:4000000000800020110000009D1000009D10000080B500AF024A034B1B68136001F070F8BC760040FA46004010B5054C237833B9044B13B10448AFF300800123237010BD54
:400040006081FF1F0000000014620000084B10B51BB108490848AFF300800848036803B910BD074B002BFBD0BDE81040184700BF000000006481FF1F14620000C880FF1FE6
:400080000000000080B500AF012001F031FA0346002B40D001F052FA03469AB21F4B1A801F4B1B78002B0DD01C4B1B881A461D491D4805F08BFC1C4802F04CF91B4B0022EC
:4000C0001A7028E0194B1B78002B0DD0134B1B881A461449144805F079FC134802F03AF9124B00221A7016E0114B1B78002B12D0104B1B781A4610490B4805F067FC0A48CC
:4001000002F028F90B4B1B780133DAB2094B1A70074B00221A7000BF80BD00BFD681FF1FD481FF1F18620000C481FF1F7891FF1FD581FF1F7991FF1F2062000080B400AF7F
:4001400000BFBD4680BC704780B500AF02F090FB02F06AFD02F07AFC02F050FE002002F03BFA002002F056FA002002F06FFA002002F08AFA002003F067FC00BF80BD00BF7D
:4001800080B582B000AF01F08BF902F045F802F0DFFA02F06DFB02F0B7FC02F045FD02F0C5FB02F053FC02F0C1FB02F04FFCDB4B00221A70DA4B00221A70DA4B00221A7035
:4001C000D94B00221A7001F083F902F073F9D74802F0B4F9D64803F0E9FB62B602F07EF803467B717B79233B552B00F2E38101A252F823F0EF040000B5050000B50500006D
:40020000B5050000B5050000B5050000B5050000C9040000B5050000B5050000B5050000B5050000B50500004D0300007303000099030000BF030000E50300000B0400004C
:4002400031040000570400007D040000A3040000B5050000B5050000B5050000B5050000B5050000B5050000B5050000B5050000B5050000B5050000B5050000B50500000E
:40028000B5050000B5050000B5050000B5050000B5050000B5050000B5050000B5050000B5050000B5050000B5050000B5050000B505000015050000B5050000B50500003E
:4002C000B5050000B5050000A9050000B5050000B5050000B5050000B5050000B5050000B5050000B5050000B5050000B5050000B5050000B5050000B5050000B50500006A
:40030000B5050000B5050000B5050000B5050000B5050000B5050000B5050000B5050000B5050000B5050000B5050000B5050000B505000015050000B5050000B5050000BD
:40034000B5050000B5050000A9050000794802F001F8FFF7F9FE012002F03EF9012002F093F902F0F5F902F0B9FC012003F06CFB21E1714801F0EEFFFFF7E6FE002002F052
:400380002BF9002002F062F902F0E2F902F0CEFA012003F059FB0EE1684801F0DBFFFFF7D3FE012002F018F9002002F04FF902F0CFF902F0BBFA012003F046FBFBE06048D5
:4003C00001F0C8FFFFF7C0FE002002F023F9002002F03CF902F098FB02F0A8FA012003F033FBE8E0574801F0B5FFFFF7ADFE002002F0F2F8012002F029F902F0A9F902F05D
:4004000095FA012003F020FBD5E04F4801F0A2FFFFF79AFE012002F0DFF8012002F016F902F096F902F082FA012003F00DFBC2E0464801F08FFFFFF787FE002002F0EAF85D
:40044000012002F003F902F05FFB02F06FFA012003F0FAFAAFE03E4801F07CFFFFF774FE002002F0B9F8002002F00EF902F070F902F034FC012003F0E7FA9CE0354801F09D
:4004800069FFFFF761FE012002F0A6F8002002F0FBF802F05DF902F021FC012003F0D4FA89E02D4801F056FFFFF74EFE002002F0B1F8002002F0E8F802F026FB02F00EFC6E
:4004C000012003F0C1FA76E0244801F043FFFFF73BFE002002F080F8012002F0D5F802F037F902F0FBFB012003F0AEFA63E01C4801F030FFFFF728FE002002F08BF8012040
:4005000002F0C2F802F000FB02F0E8FB012003F09BFA50E00023FB803EE000BFD481FF1F7891FF1FD581FF1F7991FF1F850000003D010000286200002C6200003062000056
:4005400034620000386200003C6200004062000044620000486200004C6200005062000054620000012000F0C3FF0346002B13D000F0E4FF03469AB20F4B1A80B7F9063039
:400580000D4A128811B20D4A22F81310B7F906309BB201339BB2FB80B7F90630B3F5FA6FE0DB00F00FF806E0054801F0D3FEFFF7CBFD00E000BF11E6D681FF1FD881FF1FE6
:4005C0005862000090B5ADF57B5D8DB000AF002307F57B5202F12C02136054E0A44A07F57B5303F12C031B6832F91330184604F06FFE03460C4607F57B5202F12002C2E933
:4006000000344FF000029B4B07F57B5101F12001D1E9000104F0C2FE03460C4607F57B5202F12002C2E900344FF00002924B07F57B5101F12001D1E9000104F0D9FF0346F4
:400640000C4607F57B5202F12002C2E9003407F17003183B07F57B5202F12C021268D2001A4407F57B5303F1200318CBC2E9003407F57B5303F12C031B68013307F57B5209
:4006800002F12C02136007F57B5303F12C031B68B3F5FA6FA2DB07F17003383B184620231A46002105F089F907F13003103B4FF000014FF00002C3E9001207F13003103B06
:4006C0004FF000014FF00002C3E9021207F13003103B4FF000014FF00002C3E9041207F13003203B654A1C4613460FCB84E80F0007F130032C3B624A07CA83E80700002317
:4007000007F57B5202F12B0213702BE007F57B5303F12B031C7807F57B5303F12B031A7807F13003203B53F8221007F17003183B42F210724FF4FA6000F0AAF80A46014607
:4007400007F17003383BE0000344C3E9001207F57B5303F12B031B78013307F57B5202F12B02137007F57B5303F12B031B78032BCCD9002307F57B5202F12A0213702BE0AC
:4007800007F57B5303F12A031C7807F57B5303F12A031A7807F130032C3B53F8221007F17003183B42F210724FF4FA6000F070F80A46014607F13003103BE0000344C3E9E5
:4007C000001207F57B5303F12A031B78013307F57B5202F12A02137007F57B5303F12A031B78022BCCD907F17003383B0421184600F05CF9034607F57B5202F11E0213801C
:4008000007F13003103B0321184600F04FF9034607F57B5202F11C02138007F57B5303F11E031A8807F13003203B53F822301A461449154805F0CAF8134801F08BFD07F58D
:400840007B5303F11C031A8807F130032C3B53F822301A460D490C4805F0B8F80A4801F079FD00BF07F57B573437BD4690BD00BFD881FF1F0000E03F000060407C62000043
:400880008C6200006C620000C481FF1F74620000B0B5A2B000AFF860B9607A603B60F86804F016FD4FF000024FF0804304F0A0FE03460C46C7E91A34F86804F009FD03467F
:4008C0000C46C7E91834B86804F002FDD7E9182304F064FD03460C4625461C46786804F0F7FC02460B462046294604F081FE03460C46184621464FF000026B4B04F09CFB55
:4009000003460C461846214604F0F8FF0346FB65F86D04F0DDFC62A3D3E9002304F03EFD03460C4618462146D7E9182304F060FE03460C46C7E91434D7E9140103F016F967
:40094000C7E91201D7E9140103F0C8F8C7E91001D7E9100102460B4604F06EFB03460C46C7E90E344FF000034FF00004C7E90C344FF000034FF00004C7E920344FF00003D7
:400980004FF00004C7E91E340023A7F876302EE0B7F87630DB003A68134418CBC7E90A34D7E92023D7E90E0104F0F8FC03460C4618462146D7E91E2304F03CFB03460C46A1
:4009C00018462146D7E90A2304F036FB03460C46C7E90C34D7E92034C7E91E34D7E90C34C7E92034B7F876300133A7F87630B7F87620FB689A42CBDBD7E91023D7E91E01B1
:400A000004F0CCFC03460C461A462346D7E9200104F010FB03460C4618462146D7E91A2304F0E6FD03460C46C7E90834D7E91223D7E91E0104F0B2FC03460C461846214625
:400A4000D7E91A2304F0D4FD03460C46C7E90634D7E90823D7E9080104F0A0FC03460C4625461C46D7E90623D7E9060104F096FC02460B462046294604F0DEFA03460C4678
:400A80001846214603F0BAF8C7E90401D7E90434184621468837BD46B0BD00BFAFF30080182D4454FB2119400000E03F90B587B000AF78600B46FB707B6818CBC7E904346C
:400AC0000023FB810123BB8118E0BB89DB007A681344D3E90001D7E9042304F0EFFE0346002B08D0BB89DB007A68134418CBC7E90434BB89FB81BB890133BB81FB789BB27F
:400B0000BA899A42E1D3FB8918461C37BD4690BD80B582B000AF786039603A680021786804F04BFF00BF0837BD4680BD80B584B000AFF860B9607A607A68B968F86804F0FD
:400B400031FF00BF1037BD4680BD00BF80B483B000AF0346FB71FEE780B487B000AF7860396000233B6100237B6127E07B699B007A6813441B68BB60BB68FB73BB6823F023
:400B8000FF03BB6014E03B695B003A6813441B781A46BB68134419463B695B003A6813445B780B703B6901333B61FB7B013BFB73FB7B002BE7D17B6901337B617B69222B08
:400BC000D4D900BF1C37BD4680BC704780B582B000AF4E4B00221A804D4B50221A704D4B17221A804C4B18221A704C4B19221A804B4B18221A704B4B1D221A804A4B182277
:400C00001A704A4B1D221A80494B18221A70494B1D221A80484B18221A70484B1D221A80474B18221A70042246494748FFF77EFF464B02221A704FF0402308221A70444B03
:400C400003221A70434B444A1278D2B21A70434B08221A80424B41F251221A800023FB7019237B6014E0FB785B00DAB23D4B1B78DBB203F00103DBB21343DBB203F00303F7
:400C8000FB704FF4F07002F0FFFE7B68013B7B607B68002B02D0FB78032BE4D17B68002B02D10320FFF752FF2F4B4FF480721A802D4B07221A702D4B00221A702C4B482243
:400CC0001A70294B00221A702A4B02221A702A4B04221A70294A294B1B78DBB243F07F03DBB21370264A264B1B78DBB243F00103DBB21370234A234B1B78DBB263F07F031E
:400D0000DBB2137000BF0837BD4680BD80400040824000408440004086400040884000408A4000408C4000408E4000409040004092400040944000409640004098400040C9
:400D40009A400040C4050048004100400043004000420040A146004008010049224200402042004025420040044000400640004008400040014000400B400040A243004099
:400D8000A1430040A043004080B483B000AF174B1B78FB71164AFB7903F00703DBB21370144AFB791B09DBB21370134B90221A70124B01221A70124B01221A70114B102252
:400DC0001A70114B01221A70104B01221A70104B80221A700F4B01221A700F4B44221A7000BF0C37BD4680BC704700BFCF0100496E5800406F5800400D510040835A0040E8
:400E00008B5A0040905A0040935A00409B5A0040005B00405B5B00407658004080B483B000AF0346FB71FB79012B0ED8FB79094A52F82330FA79074951F822201178FA7963
:400E40000548825C0A43D2B21A7000BF0C37BD4680BC7047C8620000D062000080B483B000AF0346FB71FB79012B10D8FB790A4A52F82330FA79084951F822201178FA7995
:400E80000648825CD243D2B20A40D2B21A7000BF0C37BD4680BC7047C8620000D062000080B586B000AF72B65F4A5F4B1B78DBB243F00403DBB213700023FB7513E0FA7DC5
:400EC00013465B0013445B00584A13443B613B691A683B699B889BB219461046FFF718FEFB7D0133FB75FB7D092BE8D90023FB751CE0FA7D13469B0013445B004C4A1344DA
:400F0000FB60FB681B68BB60FB685B687B60FB681A7A5B7A1B0213437B807B881A467968B868FFF703FEFB7D0133FB75FB7D012BDFD940494FF09040FFF70EFE3E4B0A22F8
:400F40001A7004213D48FFF7E3FD04213C48FFF7DFFD04213B48FFF7DBFD04213A48FFF7D7FD04213948FFF7D3FD04213848FFF7CFFD04213748FFF7CBFD04213648FFF737
:400F8000C7FD364A354B1B78DBB243F00203DBB21370334A324B1B78DBB243F00203DBB21370304A2F4B1B78DBB243F04003DBB213702D4A2C4B1B78DBB243F01003DBB228
:400FC00013700A2229492A48FFF7B0FD0A2229492948FFF7ABFD082228492948FFF7A6FD0A2228492848FFF7A1FD284A274B1B78DBB243F00803DBB21370254B60221A70FA
:40100000FFF7E4FD224B80221A70224B01221A70FFF7BAFE0E2213491F48FFF787FD00BF1837BD4680BD00BFE8460040D4620000106300008C000048835800400076004042
:40104000087600401076004018760040207600402876004030760040387600400350014013500140A0430040C24300409805004800510040A4050048C0510040B005004841
:4010800012510040B805004830510040224300400048004004000840B043004080B500AF04F054FC03461B680C2B00D1FEE7FEE780B584B000AF78600F4B1A687B6813444F
:4010C0001A460E4BD31A802B09DC0B4B1B68FB60094B1A687B681344074A136007E004F035FC02460C2313604FF0FF33FB60FB6818461037BD4680BDCC80FF1F8891FF1F07
:4011000080B586B000AF224B7B61224B3B61204B7B6135E03B691B68FB603B695B68BB603B699B683B6000237B600CE0FB681A68BB681A60BB680433BB60FB680433FB60CB
:401140007B6804337B607A683B689A42EED13B69DB683B6000237B6008E0BB6800221A60BB680433BB607B6804337B607A683B689A42F2D13B6910333B617B69013B7B6126
:401180007B69002BC6D104F0E7FBFEF7F9FFFEE701000000047C000080B582B000AF194B194A1A60194A194B1B6843F40073136000237B600FE07B68032B04D8144A7B6887
:4011C00052F8233000E0134B13497A6841F822307B6801337B607B682F2BECD90F4B1B78DAB20F4B1A700F4B0B4A1A60FFF758FE00F08AFD0C4B00221A6000BF0837BD461A
:4012000080BD00BF0CED00E00004FA0514ED00E0000000009D1000000080FF1FBC760040C480FF1F08ED00E0C080FF1F80B582B002AF324B01221A70314B00221A70102009
:4012400000F054FC102000F037FD07211D2000F0BFFF2C4B04221A702B4B00221A702B4B00221A702A4A2A4B1B78DBB243F01803DBB21370274B00221A70274B00221A70B9
:40128000264B00221A70264B0A221A70254B00221A70254B00221A70244B12221A70244B13221A70234B00221A70234B14221A700123009308234FF4004248F6B651002043
:4012C00000F02CFA1D4A0D4B1B78DBB2013B1C499B000B449B7813701A4A084B1B78DBB2013B174931F823301380044B1B78DBB2184600F061F900BFBD4680BDD080FF1FD2
:401300007C81FF1F96580040975800409E580040075B004093580040885B0040895B004080580040815800408358004088580040895800408D580040014E00400E4E00400E
:401340008481FF1F0C4E004080B582B000AF02F0BAFB0346FB71444B1B78BB71434A434B1B78DBB243F00103DBB213703F4A3F4B1B78DBB243F01003DBB213703C4A3C4BD8
:401380001B78DBB243F00103DBB21370384A384B1B78DBB243F01003DBB21370354A354B1B78DBB243F00203DBB21370324A324B1B78DBB243F00203DBB213702F4A2F4B90
:4013C0001B78DBB243F00303DBB21370032000F0C3FE284A274B1B78DBB223F00203DBB21370254A244B1B78DBB223F00203DBB21370234A224B1B78DBB243F00603DBB29B
:401400001370204B7A221A701F4A1F4B1B78DBB243F00103DBB213701C4A1C4B1B78DBB243F00103DBB21370194A194B1B78DBB243F00103DBB21370164A164B1B78DBB21B
:4014400043F00103DBB21370134B4FF000521A60124B4FF000521A60FB79184602F037FB00BF0837BD4680BDD080FF1FAA430040BA430040F8460040F94600409158004022
:401480007758004082580040A1430040B1430040A2430040B243004080E200E000E100E080B500AF084B1B78002B09D1074B1B78DBB2002B01D1FFF7B9FE034B01221A7068
:4014C000FFF742FF00BF80BD7E81FF1F7F81FF1F80B400AF054A054B1B78DBB243F00103DBB2137000BFBD4680BC7047004E004080B485B000AF0346FB710D4B1B78DBB20D
:40150000002B03D00B4B1B78FB7305E00A4B1B78DBB203F00103FB73FB7B012B02D0FB79002BEAD0FB7B18461437BD4680BC70477D81FF1F7C81FF1F014E004080B483B088
:4015400000AF174B1B78DBB203F003037B717B79012B03D8134B1B88FB8011E0114B1B78DBB2FB80104B1B78DBB29BB21B029AB2FB881343FB807B79032B01D10B4B1B7894
:401580000B4B1B78DBB2002B02D00A4B00221A70B7F9063018460C37BD4680BC704700BF144E0040104E0040114E0040124E00407D81FF1F7C81FF1F80B582B000AF034666
:4015C000FB71384B00221A70FB79012B65D1364B38221A70354B04221A70354B06221A70344B00221A70344B00221A70334B0F221A70334B00221A70324B00221A70324B54
:4016000000221A70314B01221A70314B14221A70304B09221A70304B0A221A702F4B00221A702F4B11221A702E4B12221A702E4B01221A702D4B00221A702D4B00221A7036
:401640002C4B0A221A702C4B43221A70442000F01DF92A4B58221A70294B00221A70294B05221A70284B0E221A70284B00221A70274B00221A70002000F066F9254BFA224A
:401680001A600121052000F073F90121952000F055FA21491D2000F073FD00BF0837BD4680BD00BF7D81FF1F004E0040024E0040034E0040044E0040054E0040064E00406F
:4016C000084E0040094E00400A4E0040144E0040845800408558004086580040875800408A5800408B5800408C5800408E5800408F580040905800409158004094580040DA
:40170000955800409A5800409B5800409C5800409D5800407C91FF1F0919000090B587B000AF0446084611461A462346FB710346BB800B467B801346BB7197F82830002BAB
:4017400000F08B8097F82830012B00F28680FB79013B092B4AD801A252F823F085170000ED170000ED17000085170000ED170000ED1700009F170000B9170000ED1700008B
:40178000D3170000BB790F2B04D9374B1B78DBB2FB752EE0354B1B78DBB2FB7529E0BB790F2B04D9324B1B78DBB2FB7521E0314B1B78DBB2FB751CE0BB790F2B04D92E4B96
:4017C0001B78DBB2FB7514E02C4B1B78DBB2FB750FE0BB790F2B04D9294B1B78DBB2FB7507E0284B1B78DBB2FB7502E00023FB7500BFBA8897F917305B0113443B617B8897
:401800003A6902FB03F3FB60FB68DB0BBB82BB790D2B12D8BA8ABB79C3F10E0342FA03F3BB8297F82830013BBA790132D1B2164A9B0013440A469A7007E097F82830013B6D
:40184000114A9B0013440F229A7097F82830013B0D49BA8A21F8232002E0002000F070FC00BF1C37BD4690BD180100491C010049190100491D0100491A0100491E010049A9
:401880001B0100491F0100498481FF1F80B584B000AF0346FB7102F016F90346FB73174A164B1B78DBB243F00303DBB21370144A134B1B78DBB243F00303DBB21370114A07
:4018C000FB791370032000F047FC0C4A0B4B1B78DBB223F00303DBB21370094A084B1B78DBB223F00303DBB21370FB7B184602F0EEF800BF1037BD4680BD00BFF846004088
:40190000F94600409258004080B400AF00BFBD4680BC704780B582B000AF0023FB7106E0FB791846FFF79AFAFB790133FB71FB79012BF5D9034BFF221A7000BF0837BD4603
:4019400080BD00BFD180FF1F80B582B000AF0346FB71FFF7DFFFFB791846FFF75FFA034AFB79137000BF0837BD4680BDD180FF1F80B584B000AF03460A46FB8013467B71DA
:4019800000F0CEF80346FB7300F0A4F80346BB81FA88BB899A4200F08880464B1B78DBB203F00103FB72FB7B002B20D1BB89002B02D0FB88002B1AD1BB89002B0BD13E4ABB
:4019C000FB8813803D4A3D4B1B78DBB223F04003DBB2137069E0394A384B1B78DBB243F04003DBB21370344AFB8813805DE0FB7A002B33D0324B00221A70324B01221A7080
:401A0000314B00221A70314A304B1B78DBB203F07F03DBB21370294B1B78DBB203F00803002B02D0FB88002B18D1294ABB891380234B07221A7000BF214B1B78DBB203F014
:401A40000103002BF8D11B4A1A4B1B78DBB223F00103DBB213701A4B00221A70154B1B78DBB203F00103002B13D0194AFB881380134A7B79002B01D0032300E00123137054
:401A800000BF0F4B1B78DBB203F00103002BF8D10BE0094AFB8813800649064B1B78DAB2FB7A1343DBB20B70FFE700BF1037BD4680BD00BFA243004080400040824000400A
:401AC000014000401040004014400040084000400240004080B400AF034B1B889BB21846BD4680BC704700BF8040004080B483B000AF0346FB710949084B1B78DBB25AB267
:401B000097F9073023F007035BB213435BB2DBB20B7000BF0C37BD4680BC70478240004080B400AF044B1B78DBB203F00703DBB21846BD4680BC70478240004080B584B0B4
:401B400000AF03460A46FB8013467B7100F0CEF80346FB7300F0A4F80346BB81FA88BB899A4200F08880464B1B78DBB203F00103FB72FB7B002B20D1BB89002B02D0FB88DA
:401B8000002B1AD1BB89002B0BD13E4AFB8813803D4A3D4B1B78DBB223F04003DBB2137069E0394A384B1B78DBB243F04003DBB21370344AFB8813805DE0FB7A002B33D028
:401BC000324B00221A70324B01221A70314B00221A70314A304B1B78DBB203F07F03DBB21370294B1B78DBB203F00803002B02D0FB88002B18D1294ABB891380234B0722C8
:401C00001A7000BF214B1B78DBB203F00103002BF8D11B4A1A4B1B78DBB223F00103DBB213701A4B00221A70154B1B78DBB203F00103002B13D0194AFB881380134A7B7973
:401C4000002B01D0032300E00123137000BF0F4B1B78DBB203F00103002BF8D10BE0094AFB8813800649064B1B78DAB2FB7A1343DBB20B70FFE700BF1037BD4680BD00BFC6
:401C8000A14300400041004002410040014000401440004010400040084000400240004080B400AF034B1B889BB21846BD4680BC704700BF0041004080B483B000AF034639
:401CC000FB710949084B1B78DBB25AB297F9073023F007035BB213435BB2DBB20B7000BF0C37BD4680BC70470241004080B400AF044B1B78DBB203F00703DBB21846BD4693
:401D000080BC70470241004080B483B000AF134B7F221A70124B80221A707F23FB710CE0FB79DB0003F1804303F5F043FA79013AD2B21A70FB79013BFB71FB79002BEFD1A3
:401D4000FB79DB0003F1804303F5F04300221A7000BF0C37BD4680BC704700BFD580FF1FD480FF1F80B485B000AF03460A46FB711346BB710123FB60FB79172B2FD8BB79D8
:401D8000002B0ED0FB791A01184B1344FA791101164A0A441278D2B242F02002D2B21A700DE0FB791A01114B1344FA7911010F4A0A441278D2B222F02002D2B21A70FB790F
:401DC0001A010A4B1344FA791101084A0A441278D2B242F00102D2B21A700023FB60FB6818461437BD4680BC704700BF1070004080B485B000AF0346FB710123FB60FB79E7
:401E0000172B1DD8FB791A01104B1344FA7911010E4A0A441278D2B222F00102D2B21A70FB791A01094B1344FA791101074A0A441278D2B222F02002D2B21A700023FB60A2
:401E4000FB6818461437BD4680BC70471070004080B485B000AF03460A46FB711346BB710123FB60FB79172B1BD8FB791A01104B13441B78DBB223F00E03FB72FB791A0155
:401E80000B4B1344BA795200D2B252B202F00E0251B297F90B200A4352B2D2B21A700023FB60FB6818461437BD4680BC704700BF1070004080B485B000AF0346FB710B462C
:401EC000BB8013467B800123FB60BB8841F6FF72934202D14FF40053BB807B8841F6FF72934202D14FF400537B80FB79172B17D8FB79DB0003F1804303F5EC430433BB6068
:401F0000BB68BA881A80FB79DB0003F1804303F5EC430633BB60BB687A881A800023FB60FB6818461437BD4680BC704780B485B000AF03460A46FB711346BB710123FB60C1
:401F4000FB79172B07D8FB791A01064B1344BA795A720023FB60FB6818461437BD4680BC704700BF1070004090B484B000AF0446084611461A462346FB710346BB710B4686
:401F80007B7113463B710123FB60FB79172B34D8FB79DB0003F1804303F5EC43BA7902F07F02D1B27A79D201D2B20A43D2B21A70FB79DB0003F1804303F5EC433A7E1201FC
:401FC000D1B23A7902F00F02D2B20A43D2B25A70FB79DB0003F1804303F5EC433A7F02F00F02D2B29A70FB79DB0003F1804303F5EC430022DA700023FB60FB6818461037F3
:40200000BD4690BC704700BF80B582B000AFFF23FB7101F058FD0346BB71104B1B78182B12D90F4B1B78FB710C4B1B78013BDAB20A4B1A70FB79DB0003F1804303F5F04345
:402040001B78DAB2064B1A70BB79184601F03FFDFB7918460837BD4680BD00BFD480FF1FD580FF1F90B484B000AF0446084611461A462346FB710346BB800B46BB7113460D
:40208000FB700123FB6097F90730002B23DBBB8823F47F6323F00F039BB2002B1BD1FB79DB0003F1804303F5F043BB60BB68BA881A80FB79DB0003F1804303F5F043BA79D2
:4020C0009A70FB79DB0003F1804303F5F043FA78DA700023FB60FB6818461037BD4690BC704700BF80B485B000AF0346FB710B46BB8013467B800123FB6097F90730002B80
:4021000017DBFB79DB0003F1804303F5F0430433BB60BB68BA881A80FB79DB0003F1804303F5F0430633BB60BB687A881A800023FB60FB6818461437BD4680BC704700BFA8
:4021400080B483B000AF0346FB7101BE00BF0C37BD4680BC704700BF80B582B000AF0346FB80FB88054A127802FB03F3184601F08BFC00BF0837BD4680BD00BFE480FF1FA0
:4021800080B584B000AF03463960FB710F4B1B68FB60FB791F2B02D90020FFF7D1FFFB7903F01F0310339B00FA6813441B68BB60FB7903F01F0310339B00FA6813443A6882
:4021C0001A60BB6818461037BD4680BD08ED00E080B582B000AF03460A46FB711346BB71BB79072B02D90020FFF7AAFFFB791F2B02D90020FFF7A4FFFB7903F01F0303F119
:40220000604303F56443BA795201D2B21A7000BF0837BD4680BD00BF80B500AF064B1B78002B04D100F00AF8034B01221A7000F025F800BF80BD00BF8881FF1F80B400AF44
:40224000094B72221A70094B20221A70084B06221A70084B47221A70074B00221A7000BFBD4680BC704700BF8A6500408965004028650040386500408864004080B582B075
:4022800000AF01F020FC0346FB71114A104B1B78DBB243F02003DBB213700E4A0D4B1B78DBB243F01003DBB213700B4A0A4B1B78DBB243F01003DBB2137000F06DF8FB7962
:4022C000184601F004FC00BF0837BD4680BD00BF9A650040996500409864004080B483B000AF0023FB710C4B1B78BB71BB7903F02003002B09D0094B1B78FB71BB7903F056
:402300001E03002B01D00023FB71FB7918460C37BD4680BC704700BF696500404965004080B483B000AF0346FB7100BF074B1B78DBB203F00403002BF8D1054AFB791370FB
:4023400000BF0C37BD4680BC704700BF686400404864004080B584B000AF78600023FB810C4B1B78002B10D009E0FB897A6813441B781846FFF7D4FFFB890133FB81FB8912
:402380007A6813441B78002BEFD100BF1037BD4680BD00BF8881FF1F80B400AF094A094B1B78DBB243F00403DBB21370064A064B1B78DBB243F00403DBB2137000BFBD4679
:4023C00080BC7047A2430040B243004080B500AF224A224B1B78DBB203F00103DBB213701F4A1F4B1B78DBB223F00303DBB213701C4A1C4B1B78DBB223F03003DBB213704D
:40240000184A184B1B78DBB243F03003DBB21370144A144B1B78DBB223F00F03DBB21370104A104B1B78DBB243F00F03DBB213700D4A0D4B1B78DBB243F00103DBB21370EF
:4024400040F2F31000F058F840F2F31000F066F8002000F041F800BF80BD00BF004F0040024F00400B4F0040014F004080B400AF0D4A0D4B1B78DBB243F00103DBB213701D
:402480000A4A0A4B1B78DBB243F00103DBB21370074A074B1B78DBB243F00103DBB2137000BFBD4680BC7047A3430040B3430040004F004080B500AF064B1B78002B04D19A
:4024C000FFF784FF034B01221A70FFF7CFFF00BF80BD00BF8A81FF1F80B483B000AF0346FB71044AFB79137000BF0C37BD4680BC704700BF034F004080B485B000AF034606
:40250000FB80FB88FB81044AFB89138000BF1437BD4680BC704700BF044F004080B483B000AF0346FB80044AFB88138000BF0C37BD4680BC704700BF064F004080B582B079
:4025400000AF786000F03CF8786800F009F8072000F018F800F028F800BF0837BD4680BD80B485B000AF7860054B1B68FB60FB6844337A681A6000BF1437BD4680BC704716
:4025800008ED00E080B483B000AF0346FB71054AFB795B01DBB2137000BF0C37BD4680BC704700BF01E400E080B400AF034B02221A6000BFBD4680BC704700BF00E100E0CC
:4025C00080B400AF034B02221A6000BFBD4680BC704700BF80E100E080B485B000AF0346FB710B4B1B78DBB223F00803FB730849FB79DB00DBB203F00803DAB2FB7B134305
:40260000DBB20B7000BF1437BD4680BC704700BFC051004080B485B000AF0346FB710A4B1B78DBB223F00103FB730749FB7903F00103DAB2FB7B1343DBB20B7000BF143796
:40264000BD4680BC704700BF0051004080B485B000AF0346FB710B4B1B78DBB223F00203FB730849FB795B00DBB203F00203DAB2FB7B1343DBB20B7000BF1437BD4680BCFD
:40268000704700BF3051004080B485B000AF0346FB710B4B1B78DBB223F00203FB730849FB795B00DBB203F00203DAB2FB7B1343DBB20B7000BF1437BD4680BC704700BF56
:4026C0000051004080B500AF00F048FC022000F097FC002000F0B4FCFFF796FC03461A46094B1A70FFF790FC03461A46074B1A7040F29521064800F053F840F2562105484F
:4027000000F082F800BF80BD8E81FF1F8F81FF1F24630000BC65000080B500AF00F03CFC094B1B7801211846FFF71CFB074B1B7801211846FFF716FB002000F0A1FC00F0A7
:4027400075FB00BF80BD00BF8C81FF1F8D81FF1F80B500AF064B1B78002B04D1FFF7B2FF034B01221A70FFF7D7FF00BF80BD00BF8B81FF1F80B500AF00F072FB064B1B7897
:402780001846FFF735FB054B1B781846FFF730FB00F01CFC00BF80BD8C81FF1F8D81FF1F80B582B000AF78600B467B807B681B0C9AB24FF480430121012000F06BFB034660
:4027C0001A460F4B1A700F4B18780E4B1A7879880123FFF747FC0B4B1B787A6891B245F681321846FFF77EFC054B1A78054B1B7819461046FFF79AFB00BF0837BD4680BD55
:402800008C81FF1F8E81FF1F80B582B000AF78600B467B807B681B0C9AB24FF480430121012000F069FB03461A460F4B1A700F4B18780E4B1A7879880123FFF713FC0B4B31
:402840001B787A6891B245F681321846FFF74AFC054B1A78054B1B7819461046FFF766FB00BF0837BD4680BD8D81FF1F8F81FF1F80B500AF084B1B78DBB203F00203002B35
:4028800001D0012200E00022044B1A70FFF772FF00F024FC00BF80BDA84300409081FF1F80B500AF00F0CAFC022000F019FD002000F036FDFFF7A8FB03461A46094B1A7057
:4028C000FFF7A2FB03461A46074B1A7040F27A41064800F053F840F20D41054800F082F800BF80BD9481FF1F9581FF1F14680000906C000080B500AF00F0BEFC094B1B78C3
:4029000001211846FFF72EFA074B1B7801211846FFF728FA002000F023FD00F0F7FB00BF80BD00BF9281FF1F9381FF1F80B500AF064B1B78002B04D1FFF7B2FF034B01226C
:402940001A70FFF7D7FF00BF80BD00BF9181FF1F80B500AF00F0F4FB064B1B781846FFF747FA054B1B781846FFF742FA00F09EFC00BF80BD9281FF1F9381FF1F80B582B017
:4029800000AF78600B467B807B681B0C9AB24FF480430121012000F0EDFB03461A460F4B1A700F4B18780E4B1A7879880123FFF759FB0B4B1B787A6891B245F683321846A0
:4029C000FFF790FB054B1A78054B1B7819461046FFF7ACFA00BF0837BD4680BD9281FF1F9481FF1F80B582B000AF78600B467B807B681B0C9AB24FF480430121012000F0D5
:402A0000EBFB03461A460F4B1A700F4B18780E4B1A7879880123FFF725FB0B4B1B787A6891B245F683321846FFF75CFB054B1A78054B1B7819461046FFF778FA00BF08378A
:402A4000BD4680BD9381FF1F9581FF1F80B500AF084B1B78DBB203F00803002B01D0012200E00022044B1A70FFF772FF00F0A6FC00BF80BDA84300409881FF1F80B500AF26
:402A800000F04CFD022000F09BFD002000F0B8FDFFF7BAFA03461A46094B1A70FFF7B4FA03461A46074B1A7040F21D21064800F053F80421054800F083F800BF80BD00BF83
:402AC0009C81FF1F9D81FF1FA0700000C072000080B500AF00F040FD094B1B7801211846FFF740F9074B1B7801211846FFF73AF9002000F0A5FD00F079FC00BF80BD00BF16
:402B00009A81FF1F9B81FF1F80B500AF064B1B78002B04D1FFF7B2FF034B01221A70FFF7D7FF00BF80BD00BF9981FF1F80B500AF00F076FC064B1B781846FFF759F9054BD9
:402B40001B781846FFF754F900F020FD00BF80BD9A81FF1F9B81FF1F80B582B000AF78600B467B807B681B0C9AB24FF480430121012000F06FFC03461A460F4B1A700F4B8A
:402B800018780E4B1A7879880123FFF76BFA0B4B1B787A6891B24FF4B7421846FFF7A2FA054B1A78054B1B7819461046FFF7BEF900BF0837BD4680BD9A81FF1F9C81FF1F07
:402BC00080B582B000AF78600B467B807B681B0C9AB24FF480430121012000F06DFC03461A460F4B1A700F4B18780E4B1A7879880123FFF737FA0B4B1B787A6891B24FF4A4
:402C0000B7421846FFF76EFA054B1A78054B1B7819461046FFF78AF900BF0837BD4680BD9B81FF1F9D81FF1F80B500AF064B1B78DBB203F00103DAB2044B1A70FFF776FF1C
:402C400000F02CFD00BF80BDA8430040A081FF1F80B500AF00F0D2FD022000F021FE002000F03EFEFFF7D0F903461A46094B1A70FFF7CAF903461A46074B1A7040F2A93125
:402C8000064800F053F840F25131054800F082F800BF80BDA481FF1FA581FF1FC47200007076000080B500AF00F0C6FD094B1B7801211846FFF756F8074B1B7801211846DA
:402CC000FFF750F8002000F02BFE00F0FFFC00BF80BD00BFA281FF1FA381FF1F80B500AF064B1B78002B04D1FFF7B2FF034B01221A70FFF7D7FF00BF80BD00BFA181FF1F03
:402D000080B500AF00F0FCFC064B1B781846FFF76FF8054B1B781846FFF76AF800F0A6FD00BF80BDA281FF1FA381FF1F80B582B000AF78600B467B807B681B0C9AB24FF4AA
:402D400080430121012000F0F5FC03461A460F4B1A700F4B18780E4B1A7879880123FFF781F90B4B1B787A6891B245F682321846FFF7B8F9054B1A78054B1B7819461046F9
:402D8000FFF7D4F800BF0837BD4680BDA281FF1FA481FF1F80B582B000AF78600B467B807B681B0C9AB24FF480430121012000F0F3FC03461A460F4B1A700F4B18780E4B07
:402DC0001A7879880123FFF74DF90B4B1B787A6891B245F682321846FFF784F9054B1A78054B1B7819461046FFF7A0F800BF0837BD4680BDA381FF1FA581FF1F80B500AF62
:402E0000084B1B78DBB203F00403002B01D0012200E00022044B1A70FFF772FF00F0AEFD00BF80BDA8430040A881FF1F80B400AF094A094B1B78DBB243F04003DBB213708B
:402E4000064A064B1B78DBB243F04003DBB2137000BFBD4680BC7047A2430040B243004080B400AF094A094B1B78DBB223F04003DBB21370064A064B1B78DBB223F04003D5
:402E8000DBB2137000BFBD4680BC7047A2430040B243004090B585B002AF0446084611461A462346FB710346BB710B46BB8013467B80104B00221A700E4B1878BA79F979BA
:402EC00000230193002300930023FFF74DF8094B1B787A88B9881846FEF7ECFF054B1B7802211846FEF7B4FF024B1B7818460C37BD4690BDEC80FF1F90B585B002AF0446C3
:402F0000084611461A462346FB710346BB710B46BB8013467B80104B01221A700E4B1878BA79F97900230193002300930023FFF71BF8094B1B787A88B9881846FEF7BAFFFD
:402F4000054B1B7802211846FEF782FF024B1B7818460C37BD4690BDED80FF1F80B500AF0A4B00221A700A4B00221A70094A094B1B78DBB243F00803DBB21370002000F010
:402F80005FF8022000F03CF800BF80BD24580040255800408F5A004080B400AF094A094B1B78DBB243F00203DBB21370064A064B1B78DBB243F00203DBB2137000BFBD4619
:402FC00080BC7047A8430040B843004080B400AF094A094B1B78DBB223F00203DBB21370064A064B1B78DBB223F00203DBB2137000BFBD4680BC7047A8430040B8430040A2
:4030000080B483B000AF0346FB710C4A0B4B1B78DBB223F00203DBB213700849074B1B78DAB2FB7903F00203DBB21343DBB20B7000BF0C37BD4680BC704700BF2458004045
:4030400080B582B000AF0346FB710C4A0B4B1B78DBB223F00C03DBB213700849074B1B78DAB2FB7903F00C03DBB21343DBB20B7000F016F800BF0837BD4680BD245800406C
:4030800080B483B000AF0346FB71044AFB79137000BF0C37BD4680BC704700BF815B004080B483B000AF0B4B1B78DBB203F00C039B08DBB20633FB71074AFB7903F192433C
:4030C00003F598731B78DBB2137000BF0C37BD4680BC7047245800400946004080B400AF074B1B78DBB203F02003002B04D1054B1B78DAB2044B5A7000BFBD4680BC70473F
:4031000025580040815B0040AC81FF1F80B400AF094A094B1B78DBB243F02003DBB21370064A064B1B78DBB243F02003DBB2137000BFBD4680BC7047A2430040B243004025
:4031400080B400AF094A094B1B78DBB223F02003DBB21370064A064B1B78DBB223F02003DBB2137000BFBD4680BC7047A2430040B243004090B585B002AF0446084611462F
:403180001A462346FB710346BB710B46BB8013467B80104B04221A700E4B1878BA79F97900230193002300930023FEF7DDFE094B1B787A88B9881846FEF77CFE054B1B78B2
:4031C00002211846FEF744FE024B1B7818460C37BD4690BDEE80FF1F90B585B002AF0446084611461A462346FB710346BB710B46BB8013467B80104B05221A700E4B187821
:40320000BA79F97900230193002300930023FEF7ABFE094B1B787A88B9881846FEF74AFE054B1B7802211846FEF712FE024B1B7818460C37BD4690BDEF80FF1F80B500AF4B
:403240000A4B00221A700A4B00221A70094A094B1B78DBB243F00803DBB21370002000F05FF8022000F03CF800BF80BD2C5800402D5800409F5A004080B400AF094A094B42
:403280001B78DBB243F00803DBB21370064A064B1B78DBB243F00803DBB2137000BFBD4680BC7047A8430040B843004080B400AF094A094B1B78DBB223F00803DBB213709E
:4032C000064A064B1B78DBB223F00803DBB2137000BFBD4680BC7047A8430040B843004080B483B000AF0346FB710C4A0B4B1B78DBB223F00203DBB213700849074B1B78CF
:40330000DAB2FB7903F00203DBB21343DBB20B7000BF0C37BD4680BC704700BF2C58004080B582B000AF0346FB710C4A0B4B1B78DBB223F00C03DBB213700849074B1B7830
:40334000DAB2FB7903F00C03DBB21343DBB20B7000F016F800BF0837BD4680BD2C58004080B483B000AF0346FB71044AFB79137000BF0C37BD4680BC704700BF835B00407B
:4033800080B483B000AF0B4B1B78DBB203F00C039B08DBB20633FB71074AFB7903F1924303F59C731B78DBB2137000BF0C37BD4680BC70472C5800400B46004080B400AF42
:4033C000074B1B78DBB203F02003002B04D1054B1B78DAB2044B5A7000BFBD4680BC70472D580040835B0040B081FF1F80B400AF094A094B1B78DBB243F00803DBB21370DE
:40340000064A064B1B78DBB243F00803DBB2137000BFBD4680BC7047A2430040B243004080B400AF094A094B1B78DBB223F00803DBB21370064A064B1B78DBB223F00803B7
:40344000DBB2137000BFBD4680BC7047A2430040B243004090B585B002AF0446084611461A462346FB710346BB710B46BB8013467B80104B02221A700E4B1878BA79F979F2
:4034800000230193002300930023FEF76DFD094B1B787A88B9881846FEF70CFD054B1B7802211846FEF7D4FC024B1B7818460C37BD4690BDF080FF1F90B585B002AF04469A
:4034C000084611461A462346FB710346BB710B46BB8013467B80104B03221A700E4B1878BA79F97900230193002300930023FEF73BFD094B1B787A88B9881846FEF7DAFCF5
:40350000054B1B7802211846FEF7A2FC024B1B7818460C37BD4690BDF180FF1F80B500AF0A4B00221A700A4B00221A70094A094B1B78DBB243F00803DBB21370002000F029
:403540005FF8022000F03CF800BF80BD2058004021580040875A004080B400AF094A094B1B78DBB243F00103DBB21370064A064B1B78DBB243F00103DBB2137000BFBD4665
:4035800080BC7047A8430040B843004080B400AF094A094B1B78DBB223F00103DBB21370064A064B1B78DBB223F00103DBB2137000BFBD4680BC7047A8430040B8430040DE
:4035C00080B483B000AF0346FB710C4A0B4B1B78DBB223F00203DBB213700849074B1B78DAB2FB7903F00203DBB21343DBB20B7000BF0C37BD4680BC704700BF2058004084
:4036000080B582B000AF0346FB710C4A0B4B1B78DBB223F00C03DBB213700849074B1B78DAB2FB7903F00C03DBB21343DBB20B7000F016F800BF0837BD4680BD20580040AA
:4036400080B483B000AF0346FB71044AFB79137000BF0C37BD4680BC704700BF805B004080B483B000AF0B4B1B78DBB203F00C039B08DBB20633FB71074AFB7903F1924377
:4036800003F590731B78DBB2137000BF0C37BD4680BC7047205800400846004080B400AF074B1B78DBB203F02003002B04D1054B1B78DAB2044B5A7000BFBD4680BC704786
:4036C00021580040805B0040B481FF1F80B400AF094A094B1B78DBB243F01003DBB21370064A064B1B78DBB243F01003DBB2137000BFBD4680BC7047A2430040B24300407D
:4037000080B400AF094A094B1B78DBB223F01003DBB21370064A064B1B78DBB223F01003DBB2137000BFBD4680BC7047A2430040B243004090B585B002AF04460846114689
:403740001A462346FB710346BB710B46BB8013467B80104B06221A700E4B1878BA79F97900230193002300930023FEF7FDFB094B1B787A88B9881846FEF79CFB054B1B78B0
:4037800002211846FEF764FB024B1B7818460C37BD4690BDF280FF1F90B585B002AF0446084611461A462346FB710346BB710B46BB8013467B80104B07221A700E4B187838
:4037C000BA79F97900230193002300930023FEF7CBFB094B1B787A88B9881846FEF76AFB054B1B7802211846FEF732FB024B1B7818460C37BD4690BDF380FF1F80B500AF2B
:403800000A4B00221A700A4B00221A70094A094B1B78DBB243F00803DBB21370002000F05FF8022000F03CF800BF80BD2858004029580040975A004080B400AF094A094B8C
:403840001B78DBB243F00403DBB21370064A064B1B78DBB243F00403DBB2137000BFBD4680BC7047A8430040B843004080B400AF094A094B1B78DBB223F00403DBB21370E4
:40388000064A064B1B78DBB223F00403DBB2137000BFBD4680BC7047A8430040B843004080B483B000AF0346FB710C4A0B4B1B78DBB223F00203DBB213700849074B1B780D
:4038C000DAB2FB7903F00203DBB21343DBB20B7000BF0C37BD4680BC704700BF2858004080B582B000AF0346FB710C4A0B4B1B78DBB223F00C03DBB213700849074B1B786F
:40390000DAB2FB7903F00C03DBB21343DBB20B7000F016F800BF0837BD4680BD2858004080B483B000AF0346FB71044AFB79137000BF0C37BD4680BC704700BF825B0040BA
:4039400080B483B000AF0B4B1B78DBB203F00C039B08DBB20633FB71074AFB7903F1924303F594731B78DBB2137000BF0C37BD4680BC7047285800400A46004080B400AF89
:40398000074B1B78DBB203F02003002B04D1054B1B78DAB2044B5A7000BFBD4680BC704729580040825B0040B881FF1F80B582B000AF786000F03CF8786800F009F8072003
:4039C00000F018F800F028F800BF0837BD4680BD80B485B000AF7860054B1B68FB60FB6840337A681A6000BF1437BD4680BC704708ED00E080B483B000AF0346FB71054A3A
:403A0000FB795B01DBB2137000BF0C37BD4680BC704700BF00E400E080B400AF034B01221A6000BFBD4680BC704700BF00E100E080B400AF034B01221A6000BFBD4680BC5C
:403A4000704700BF80E100E080B485B000AF0346FB710B4B1B78DBB223F02003FB730849FB795B01DBB203F02003DAB2FB7B1343DBB20B7000BF1437BD4680BC704700BFC5
:403A80000051004000000000142816D902B4012114381049097811F0C001890904B40E4A515C04BC00BF00BF00BF8841FDD500BF00BF02BC704700BF00BF70F10400FCD5FC
:403AC00070470B050709EFF3108072B6704780F31088704700480040C23A000030B5214A21F00043934287B01BDD1F4A934205DD02460B4601F09EFA07B030BD02AA00F02E
:403B0000DBF800F0030001281AD002280FD008B3DDE9020101230093DDE9042301F0C4F8EAE70022002300F0A3FB07B030BDDDE90423DDE9020100F09BFB01F10041DBE755
:403B40000090DDE90423DDE9020101F0ADF801F10041D1E7DDE90423DDE9020100F088FBCAE700BFFB21E93FFFFFEF7F30B5214A21F00043934287B01BDD1F4A934205DD6D
:403B800002460B4601F056FA07B030BD02AA00F093F800F0030001281ED0022811D0DDE9042300B3DDE9020100F062FB01F10041EAE7002300930022002301F075F807B081
:403BC00030BD01230093DDE90201DDE9042301F06BF801F10041D7E7DDE90423DDE9020100F046FBD0E70124DDE90201009401F05BF8C9E7FB21E93FFFFFEF7F2DE9F04F0D
:403C00008BB004460D4600F06DFA284B064693F900A00F46BAF1FF3F12D022462B462046294601F055FE834650B94FF000084FF000092046294642464B4601F021FE20B920
:403C4000304639460BB0BDE8F08F194A0123CDF820B0CDE90445CDE9024501920093BAF1000F15D042464B464046494601F0C0FCBAF1020FCDE906010CD101F067FE2123C8
:403C80000360089B63B9DDE906010BB0BDE8F08FCDE90689684601F04BF90028F1D1ECE701F054FE089B0360EDE700BFF480FF1FC4790000000000002DE9F04F944C21F060
:403CC0000047A7428FB040F381801446914A0E46974226DC84A3D3E90023002940F3A08101F0A8F98C4B80469F42894600F083807FA3D3E9002301F09DF902460B464046C1
:403D0000C4E90023494601F095F979A3D3E9002301F090F90125C4E9020128460FB0BDE8F08F7E4A974240F383807D4A974258DC3D15A5F21645A7EB05518B46824601F0A8
:403D4000DDFD01F0C5FA8046894642464B4650465946CDE9088901F06DF90022714B01F01DFB8B46824601F0C9FD01F0B1FA8046894642464B4650465946CDE90A8901F048
:403D800059F90022674B01F009FB00220023CDE90C0101F06BFD002800F06A81002340464946002201F062FD002814BF012302235D480221019000912A46214608A800F035
:403DC0007BFB002EC0F24A81054606E0C2E9000100250024C2E90245002528460FB0BDE8F08F02460B4601F025F90025C4E90201C4E90001F1E740A3D3E9002301F01AF94B
:403E00003FA3D3E9002306460F4601F013F902460B463046C4E90023394601F00BF938A3D3E9002301F006F90125C4E90201D4E700F0F0FF34A3D3E900238046894601F07A
:403E4000ADFA0022394B01F0F7F801F057FD054601F03EFA24A3D3E90023CDE9040101F09DFA02460B464046494601F0E3F820A3D3E9002382468B46DDE9040101F08EFA7A
:403E80001F2DCDE9020155DC294B6A1E53F822309F424FD002460B465046594601F0CAF802460B4681468846C4E900234A4643465046594601F0BEF8DDE9022301F0BAF831
:403EC00002460B46002EC4E9022386DA4A4608F1004301F1004184E80C00E160A0606D427BE700BFAFF3008000004054FB21F93F3163621A61B4D03D0000601A61B4D03D69
:403F00007370032E8A19A33B83C8C96D305FE43FFB21E93F7BD90240FB21F93FFB213941FFFFEF7F000070414C7A00000000E03FCC790000DDE902235046594601F07AF82B
:403F40003F15C1F30A53FB1A102B81468846C4E90001ABDD58A3D3E90023DDE9040101F01DFA8046894602460B465046594601F061F8CDE9060102460B465046594601F0EB
:403F800059F842464B4601F055F84DA3D3E9002380468946DDE9040101F000FA42464B4601F048F802460B46CDE90201DDE9060101F040F80B4602468846C1F30A517F1A9E
:403FC000312F8146C4E9002372DD3FA3D3E90023DDE9040101F0E2F98046894602460B46DDE9060101F026F802460B4682468B46DDE9060101F01EF842464B4601F01AF8F7
:4040000033A3D3E9002380468946DDE9040101F0C5F942464B4601F00DF8CDE9020139E701F00AF82E4B80469F42894622D02AA3D3E9002301F000F802460B464046C4E99F
:404040000023494600F0F6FF23A3D3E9002300F0F3FF4FF0FF35C4E90201BEE66268E36802F1004203F1004345426260E360B4E603239DE610A3D3E9002300F0DDFF10A3FA
:40408000D3E9002306460F4600F0D6FF02460B463046C4E90023394600F0CCFF08A3D3E9002300F0C9FF4FF0FF35C4E9020194E6DDE906ABFAE600BF0000601A61B4D03D11
:4040C0007370032E8A19A33B0000002E8A19A33BC14920259A837B393163621A61B4D03DFB21F93F2DE9F0415F4E0C46B6460E407645054600F0988000290B46024674DD25
:404100005FEA215E7FD0AEF2FF3EC3F313031EF0010F43F4801363D100273E4603EBD2710B444FEA6E0E520016204FF4001174189C424FEAD2754FEA420202DC1B1B6618EE
:404140000F44013805EB43034FEA5101EFD1844620244FF0004109E020D003EBD275013C4FEA51012B444FEA420220D09E4201EB0C05F1DA002D05EB010C09DBB04695426F
:40418000A3EB060300D9013B4646521B0844E4E7BCF1000FF2DB06F10108F0E7954217D8002D05EB010C49DB98460023ECE7134310D140087B1003F17F5303F50013FA071F
:4041C00003EB0E57394648BF40F00040BDE8F0813346C2E7411C35D000F001031844E8E75B0003EBD273520096E721F000460643ECD079BB8E46D30AAEF1150E5205002BDB
:40420000F9D0DD0221D4002100E001465B00DC0201F10100F9D5C0F1200422FA04F42343C1EB0E0E82406EE702460B4601F0B6F82A46234600F000FFBDE8F081BCF1000F9F
:40424000A9DAB1E701372046B4E720244FF0FF310020E2E702460B4600F0ECFE02460B4601F0C6F9B2E700BF0000F07F000000002DE9F04F21F00046B6F1795F85B00C4619
:4042800092469B4605466BDA01F038FB002800F0E7802A4623462846214601F07FF874A3D3E900238046894601F078F872A3D3E9002300F0C1FE42464B4601F06FF870A3E9
:4042C000D3E9002300F0B6FE42464B4601F066F86DA3D3E9002300F0AFFE42464B4601F05DF86BA3D3E9002300F0A4FE42464B4601F054F868A3D3E9002300F09DFE424616
:404300004B4601F04BF8CDE900010022644B4046494601F043F8DDE9002306460F464046494601F03BF85246804689465B462846214601F033F802460B464046494600F0CF
:4043400079FE02460B463046394600F073FE02460B460020534900F06DFE05B0BDE8F08F02460B4601F01AF841A3D3E900238046894601F013F840A3D3E9002300F05CFE52
:4043800042464B4601F00AF83DA3D3E9002300F051FE42464B4601F001F83BA3D3E9002300F04AFE42464B4600F0F8FF38A3D3E9002300F03FFE42464B4600F0EFFF36A344
:4043C000D3E9002300F038FE4B46424600F0E6FF354BCDE900019E4297DD344B00229E4238DCA6F5001300202E4916461F4600F021FECDE902010022294B4046494600F041
:40440000CDFF32463B4600F015FEDDE9002306460F464046494600F0C1FF5246804689465B462846214600F0B9FF02460B464046494600F0FFFD02460B463046394600F002
:40444000F9FD02460B46DDE9020100F0F3FD05B0BDE8F08F164B0026CDE90223154FCAE71049002005B0BDE8F08F00BFAFF30080D43888BEE9FAA8BDC4B1B4BD9EEE213E16
:40448000AD529C804F7E923E9015CB19A001FA3E7751C1166CC1563F4C5555555555A53F0000E03F0000F03F3233D33F0000E93F0000E73F0000D23F2DE9F04F794CADF5C8
:4044C0001D7D1F460B93D31E84FB0354DB17C3EBA403A69E744C23EAE37554F826406B1C26460994A3EB83037C1E0D95029402EBC3032D1B341904900A91089316D42C4414
:40450000013422AEA79F08E057F8250000F0E0FE0135A542E6E9020108D0002DF4DA013500200021A542E6E90201F6D1099B002B2FDB099B74AADDF8089002EBC30B0DF588
:40454000E47A029B002BC0F295810B9B0026C3EB090824AB03EBC808049B0027A3F1080524AB03EBC904F5E9022374E8020100F015FF02460B463046394600F05DFD44457D
:4045800006460F46EFD1EAE90267DA4509F10109D7D1099B10A91D4603F18043023B9B001A1D0A440B440F920E939CAB03EBC503002D53E928672BDD9CAB03EBC504A83C4F
:4045C0000DF13C0A0DF5E47B0022384B3046394600F0E4FE01F092F900F07AFE0022344B8046894600F0DAFE02460B463046394600F020FD01F082F974E802234AF8040FEB
:404600004946404600F018FD5C4506460F46DBD1089C30463946224600F08EFC00224FF07F5306460F4600F0B9FE00F0F9FB0022204B00F0B3FE02460B463046394600F0EC
:40464000F9FC0F46064601F059F9814600F040FE02460B463046394600F0ECFC002C06460F4640F3EE80681E10AB53F82030C4F1180243FA02F101FA02F29B1AC4F1170845
:4046800010AA42F82030894443FA08F8B8F1000F3DDD002D09F1010940F3D382002214460FA911E0ABAAAA2A547B00000000703E0000704100002040C3F180700BB108607D
:4046C0000124013295420DDD51F8043F002CF3D0C3F1FF13013203F57F4395420B604FF00104F1DC089B002B0DDD012B00F0B180022B08D16A1E10AB53F8223010A9C3F3C6
:40470000150341F82230B8F1020F00F08180002200233046394601F0A9F8002800F05B82099B05F1FF3B5B4510DC05F1804310AA013B0F9802EB8303002253F804198342F2
:4047400042EA0102F9D1002A40F0B180099B10AA013B52F82330002B40F071820E9A012352F8041901330029FAD0E9186A1C8A420C914BDC0D990B985118DB0001F180417F
:404780000593A79B05440139E80003EB810A24ABD20003EB000B74AB13440193A2F10803069007934FF000095AF8040F00F090FD029BEBE80201002B4FF000064FF0000776
:4047C0001BDB069B03EB0904079B09EB030824AB1C449844049BA3F10805F5E9022374E8020100F0DBFD02460B463046394600F023FC444506460F46EFD1019B09F10809E3
:40480000E3E802670193059B9945CDD10C9DCCE632463B460020B04900F00CFC06460F46002C3FF474AF089A0020AB4900F084FB02460B463046394600F0FCFB06460F46D1
:4048400065E710D16B1E10AA52F823304FEAE3581CE76A1E10AB53F8223010A9C3F3160341F822304FE700229C4B01F01DF858B980464CE700260027EAE90267DA4509F1D0
:4048800001097FF45EAE84E6002D09F10109C8BF4FF002083FF702AF32463B4600208E4900F0C8FB4FF0020806460F462FE7089A10AB53F82B30183ACDF81490CDF8048073
:4048C00008926BB90BF18043013B10A901EB830353F804190BF1FF3B183A0029F8D00892089A00207C4900F027FBBBF1000F04460D46C0F2B6814FEACB030DF5E87810AA5C
:4049000002EB8B0608EB03090493043609F1080756F8040D00F0DCFC22462B4600F03EFD002267E902016E4B2046294600F036FDB84504460D46EBD14B46CDF818B09B467A
:404940000DF5987ACDF808A0DDF824A04FF00009BAF1000FC0F226815DA3D3E90023DFF884815D4600260027002403E0A14510DBF8E90223F5E8020100F010FD02460B46C3
:404980003046394600F058FB0134A24506460F46ECDA029BABF1080B03EBC903C3E9006772AB5B4509F10109D2D1A69BDDF818B0DDF808A0032B00F28380DFE813F0D100A6
:4049C000950095000400BBF1000F40F35481049BCDF808B053449846D3E90067D34658E9029A32463B464846514600F025FB04460D4602460B464846514600F01BFB324615
:404A00003B4600F019FBC8E9000168E90245C34526462F46E3D1DA46DDF808B0BBF1010F40F32981049B0DF59C7B53449846D3E90067994659E902343046CDE902341A465B
:404A40003946234600F0F8FA04460D4602460B46DDE9020100F0EEFA32463B4600F0ECFAC9E9000169E90245CB4526462F46E1D100231D4608F1080850AC184678E9022368
:404A8000294600F0D9FA444503460D46F5D1019A002A00F0D880DAF80440DAF80C200A9FDAF80010DAF8080005F1004504F1004402F100427D613B617C60FA603960B86049
:404AC000059B03F007000DF51D7DBDE8F08F00BF00000040FB21F93F0000F03F0000E03F0000703E687B000000242146049D0835554475E90223204600F09EFA55450446D3
:404B0000F7D1019B002B50D00A9F01F100450B46DAE9000187E83000224600F08BFABBF1000F03460D460DDD01241846FAE90223294600F081FA0134A34503460D46F4DA28
:404B4000019A0AB105F10045184629460A9BC3E90201059B03F007000DF51D7DBDE8F08F00231C46049A0832924418467AE90223214600F061FA0BF1FF3BBBF1FF3F0346F5
:404B80000C46F2D1019A0AB104F10044184621460A9BC3E90001059B03F007000DF51D7DBDE8F08F00260027F3E626460F4622460A9C0B46DAE90001C4E9006700F03AFA9E
:404BC000BBF1000F03460D46AEDC184629460A9BC3E90201BDE7089B30465A423946CDF81490CDF8048000F0A7F900222C4B06460F4600F059FE002840D00022294B3046D4
:404C0000394600F0CBFB00F079FE044600F060FB0022234B00F0C2FB0B4602463946304600F008FA00F06AFE089B05F1010B1833089310AB43F8250043F82B4050E6012388
:404C400093E500244EE51846DAE90067DAE9022329460A9DC5E90067C5E90401C5E902232EE7A69B032B3FF62BAFDFE803F0151010020DF5987A00231D4608E73046394642
:404C800000F03CFE10ABAB4643F8250028E6002421460DF5987A34E700231C4672E700BF000070410000703E2DE9F04F21F00046B6F1795F85B00C4690469946054604DA6A
:404CC00000F01CFE002800F085802A4623462846214600F063FB06460F4602460B462846214600F05BFB3EA3D3E9002382468B463046394600F052FB3BA3D3E9002300F004
:404D000099F932463B4600F049FB39A3D3E9002300F092F932463B4600F040FB36A3D3E9002300F087F932463B4600F037FB34A3D3E9002300F080F90E9BCDE900019BB34A
:404D40000022334B4046494600F028FBDDE90023CDE902015046594600F020FB02460B46DDE9020100F066F932463B4600F016FB42464B4600F05EF923A3D3E9002306468D
:404D80000F465046594600F009FB02460B463046394600F051F902460B462846214600F049F905B0BDE8F08F02460B463046394600F0F4FA14A3D3E9002300F03BF9524676
:404DC0005B4600F0EBFA2A46234600F035F905B0BDE8F08F2846214605B0BDE8F08F00BF7CD5CF5A3AD9E53DEB9C2B8AE6E55A3E7DFEB157E31DC73ED561C119A0012A3F10
:404E0000A6F810111111813F495555555555C53F0000E03F21F00041704700BF00000000C1F30A522DE9F843A2F2FF36132E0B4604460D46884607461CDC002E3FDB3A4ABC
:404E4000864642FA06F901EA0902024317D034A3D3E9002300F0F0F80022002300F02EFD20B1002D40DB28EA0905002738462946BDE8F883332E06DDB6F5806F2FD020466B
:404E80001946BDE8F883A2F213424FF0FF3929FA02F910EA090FF2D021A3D3E9002300F0CBF80022002300F009FD0028DED0002D20DB454627EA090738462946D8E718A37F
:404EC000D3E9002300F0B8F80022002300F0F6FC0028CBD0002D18DB00273D46C6E702460B4600F0A9F8CCE74FF4801343FA06F6B044B8E7142E10D00123C6F1340603FA1F
:404F000006F6371928BF9844D3E725F00042074B224318BF1D460027A8E705F10108C8E79C7500883CE4377EFFFF0F000000F0BF0020704700000000F8B5C1F30A560446F0
:404F40000D460B46174606BB21F00043034325D000222F4B00F022FA2E4A044697420D460B462ADBC1F30A56363E40F2FE723E44964228DC002E12DD23F0FF4323F4E00300
:404F800043EA065520462946F8BD40F2FF729642EBD102460B4600F04FF8F8BDF8BD16F1350F1DDA4CF250339F420CDC14A1D1E9000122462B4600F031F811A3D3E90023AD
:404FC00000F0ECF9F8BD22460FA1D1E900012B4600F024F80CA3D3E9002300F0DFF9F8BD23F0FF4323F4E003363643EA0655204629460022084B00F0D1F9F8BDAFF30080AE
:4050000059F3F8C21F6EA5019C7500883CE4377E00005043B03CFFFF0000903C03F0004321F0004242EA0301704700BF81F0004102E000BF83F0004330B54FEA41044FEAAC
:40504000430594EA050F08BF90EA020F1FBF54EA000C55EA020C7FEA645C7FEA655C00F0E2804FEA5454D4EB5555B8BF6D420CDD2C4480EA020281EA030382EA000083EA69
:40508000010180EA020281EA0303362D88BF30BD11F0004F4FEA01314FF4801C4CEA113102D0404261EB410113F0004F4FEA03334CEA133302D0524263EB430394EA050FBB
:4050C00000F0A780A4F10104D5F1200E0DDB02FA0EFC22FA05F2801841F1000103FA0EF2801843FA05F359410EE0A5F120050EF1200E012A03FA0EFC28BF4CF0020C43FA65
:4051000005F3C01851EBE37101F0004507D54FF0000EDCF1000C7EEB00006EEB0101B1F5801F1BD3B1F5001F0CD349085FEA30004FEA3C0C04F101044FEA445212F5800F92
:4051400080F09A80BCF1004F08BF5FEA500C50F1000041EB045141EA050130BD5FEA4C0C404141EB010111F4801FA4F10104E9D191F0000F04BF01460020B1FA81F308BF75
:405180002033A3F10B03B3F120020CDA0C3208DD02F1140CC2F10C0201FA0CF021FA02F10CE002F11402D8BFC2F1200C01FA02F120FA0CFCDCBF41EA0C019040E41AA2BFD5
:4051C00001EB0451294330BD6FEA04041F3C1CDA0C340EDC04F11404C4F1200220FA04F001FA02F340EA030021FA04F345EA030130BDC4F10C04C4F1200220FA02F001FA55
:4052000004F340EA0300294630BD21FA04F0294630BD94F0000F83F4801306BF81F480110134013D4EE77FEA645C18BF7FEA655C29D094EA050F08BF90EA020F05D054EA59
:40524000000C04BF1946104630BD91EA030F1EBF0021002030BD5FEA545C05D14000494128BF41F0004130BD14F580043CBF01F5801130BD01F0004545F0FE4141F47001FA
:405280004FF0000030BD7FEA645C1ABF194610467FEA655C1CBF0B46024650EA013406BF52EA033591EA030F41F4002130BD00BF90F0000F04BF0021704730B54FF4806400
:4052C00004F132044FF000054FF0000150E700BF90F0000F04BF0021704730B54FF4806404F1320410F0004548BF40424FF000013EE700BF42004FEAE2014FEA31014FEAB4
:4053000002701FBF12F07F4393F07F4F81F06051704792F0000F14BF93F07F4F704730B54FF4607401F0004521F0004120E700BF50EA010208BF704730B54FF000050AE0AB
:4053400050EA010208BF704730B511F0004502D5404261EB41014FF4806404F132045FEA915C3FF4DCAE4FF003025FEADC0C18BF03325FEADC0C18BF033202EBDC02C2F1DF
:40538000200300FA03FC20FA02F001FA03FE40EA0E0021FA02F11444C1E600BF70B54FF0FF0C4CF4E06C1CEA11541DBF1CEA135594EA0C0F95EA0C0F00F0DEF82C4481EA41
:4053C000030621EA4C5123EA4C5350EA013518BF52EA033541F4801143F4801338D0A0FB02CE4FF00005E1FB02E506F00042E0FB03E54FF00006E1FB03569CF0000F18BFA4
:405400004EF0010EA4F1FF04B6F5007F64F5407404D25FEA4E0E6D4146EB060642EAC62141EA55514FEAC52040EA5E504FEACE2EB4F1FD0C88BFBCF5E06F1ED8BEF1004FF2
:4054400008BF5FEA500E50F1000041EB045170BD06F0004646EA010140EA020081EA0301B4EB5C04C2BFD4EB0C0541EA045170BD41F480114FF0000E013C00F3AB8014F156
:40548000360FDEBF002001F0004170BDC4F10004203C35DA0C341BDC04F11404C4F1200500FA05F320FA04F001FA05F240EA020001F0004221F0004110EBD37021FA04F653
:4054C00042EB06015EEA430E08BF20EAD37070BDC4F10C04C4F1200500FA04F320FA05F001FA04F240EA020001F0004110EBD37041F100015EEA430E08BF20EAD37070BD65
:40550000C4F1200500FA05F24EEA020E20FA04F301FA05F243EA020321FA04F001F0004121FA04F220EA020000EBD3705EEA430E08BF20EAD37070BD94F0000F0FD101F059
:405540000046400041EB010111F4801F08BF013CF7D041EA060195F0000F18BF704703F00046520043EB030313F4801F08BF013DF7D043EA0603704794EA0C0F0CEA13559F
:4055800018BF95EA0C0F0CD050EA410618BF52EA4306D1D181EA030101F000414FF0000070BD50EA410606BF1046194652EA430619D094EA0C0F02D150EA013613D195EA69
:4055C0000C0F05D152EA03361CBF104619460AD181EA030101F0004141F0FE4141F470014FF0000070BD41F0FE4141F4780170BD70B54FF0FF0C4CF4E06C1CEA11541DBF2A
:405600001CEA135594EA0C0F95EA0C0F00F0A7F8A4EB050481EA030E52EA03354FEA013100F088804FEA03334FF0805545EA131343EA12634FEA022245EA111545EA10657F
:405640004FEA00260EF000419D4208BF964244F1FD0404F5407402D25B084FEA3202B61A65EB03055B084FEA32024FF480104FF4002CB6EB020E75EB030E22BFB61A7546BF
:4056800040EA0C005B084FEA3202B6EB020E75EB030E22BFB61A754640EA5C005B084FEA3202B6EB020E75EB030E22BFB61A754640EA9C005B084FEA3202B6EB020E75EBCB
:4056C000030E22BFB61A754640EADC0055EA060E18D04FEA051545EA16754FEA06164FEAC30343EA52734FEAC2025FEA1C1CC0D111F4801F0BD141EA00014FF000004FF060
:40570000004CB6E711F4801F04BF01430020B4F1FD0C88BFBCF5E06F3FF6AFAEB5EB030C04BFB6EB020C5FEA500C50F1000041EB045170BD0EF0004E4EEA113114EB5C0454
:40574000C2BFD4EB0C0541EA045170BD41F480114FF0000E013C90E645EA060E8DE60CEA135594EA0C0F08BF95EA0C0F3FF43BAF94EA0C0F0AD150EA01347FF434AF95EA82
:405780000C0F7FF425AF104619462CE795EA0C0F06D152EA03353FF4FDAE1046194622E750EA410618BF52EA43067FF4C5AE50EA41047FF40DAF52EA43057FF4EBAE12E744
:4057C0004FF0FF3C06E000BF4FF0010C02E000BF4FF0010C4DF804CD4FEA410C7FEA6C5C4FEA430C18BF7FEA6C5C1BD001B050EA410C0CBF52EA430C91EA030F02BF90EAB3
:40580000020F0020704710F1000F91EA030F58BF994208BF90422CBFD8176FEAE37040F0010070474FEA410C7FEA6C5C02D150EA013C07D14FEA430C7FEA6C5CD6D152EA75
:40584000033CD3D05DF8040B704700BF8446104662468C461946634600E000BF01B5FFF7B7FF002848BF10F1000F01BD4DF808EDFFF7F4FF0CBF012000205DF808FB00BF86
:405880004DF808EDFFF7EAFF34BF012000205DF808FB00BF4DF808EDFFF7E0FF94BF012000205DF808FB00BF4DF808EDFFF7CEFF94BF012000205DF808FB00BF4DF808EDE8
:4058C000FFF7C4FF34BF012000205DF808FB00BF4FEA410C7FEA6C5C02D150EA013C0AD14FEA430C7FEA6C5C02D152EA033C02D14FF0000070474FF0010070474FEA410285
:4059000012F5001215D211D56FF47873B3EB625212D94FEAC12343F0004343EA505311F0004F23FA02F018BF404270474FF00000704750EA013005D111F0004008BF6FF086
:40594000004070474FF00000704700BF014B1868704700BF5881FF1F0E4B70B51E460E4C0025E41AA410A54204D056F8253098470135F8E702F034F9084B094C1E46E41AB4
:40598000A4100025A54204D056F8253098470135F8E770BDEC7B0000EC7B0000EC7B0000F47B000010B5431E0A44914204D011F8014B03F8014FF8E710BD03460244934220
:4059C00002D003F8011BFAE7704700000EB400B54FF402719CB0ADF814106FF00041049107914FF6FF711DAB02900690084853F8042BADF81610006802A9019300F064F8EA
:405A0000029B00221A701CB05DF804EB03B070475881FF1F2DE9F0478E6882469E420C46914698463ED88A8912F4906F3AD02568096902236F1A656905EB450595FBF3F555
:405A40007B1C43449D4238BF1D4653050FD5294600F040FB064698B13A462169FFF7A2FFA38923F4906343F08003A38113E02A4600F08EFB064670B92169504600F0DEFA7A
:405A80000C23CAF80030A3894FF0FF3043F04003A381BDE8F08726613E44266046466561ED1BA560464528BF464649463246206800F0A8FAA36800209B1BA36023681E4497
:405AC0002660BDE8F08700002DE9F04F9DB003938B8980461C060D4616460DD50B695BB9402100F0F7FA2860286118B90C23C8F80030CDE040236B610023099320238DF811
:405B00002930DFF89CB130238DF82A3037463C4614F8013B1BB9B7EB060910D003E0252BF9D02746F3E74B46324629464046FFF771FF013000F0A780099B4B4409933B7899
:405B4000002B00F0A08000234FF0FF3204930793059206938DF853301A930126052221784E4800F041FA671C049B38B14B4A3C46801A06FA00F018430490EFE7D90644BF46
:405B800020228DF853201A0744BF2B228DF8532022782A2A03D0079A00210A200BE0039A111D12680391002A10DA524243F00200079204900BE027463B780134303B092BE8
:405BC00003D800FB02320121F5E701B107923B782E2B1ED17B782A2B0AD1039B02371A1D1B680392002BB8BF4FF0FF33059310E0002319460593781C0A2407463A78013067
:405C0000303A092A03D804FB01210123F5E703B1059103223978224800F0E6F940B14023CBEB000003FA00F0049B013718430490397806221B487E1C8DF8281000F0D4F965
:405C400088B1194B33B9039B073323F007030833039314E003AB00932A46144B04A94046AFF3008007E003AB00932A460F4B04A9404600F093F8B0F1FF3F824603D0099BBE
:405C80005344099342E7AB895B0601D4099801E04FF0FF301DB0BDE8F08F00BFAA7B0000B07B0000B47B000000000000155A00002DE9F04791461F460A698B680646934280
:405CC000B8BF1346C9F8003091F843200C46DDF8208012B10133C9F800302368990642BFD9F800300233C9F80030256815F0060510D104F1190A07E00123524639463046C8
:405D0000C04701301AD00135E368D9F800209B1A9D42F1DB94F843302268003318BF012392060FD5E118302081F843005A1C94F845102244023382F8431003E04FF0FF3027
:405D4000BDE8F08704F1430239463046C0470130F4D02268D9F80050E36802F00602042A08BF5D1B2269A3680CBF25EAE57500259342C4BF9B1AED184FF000091A344D4556
:405D800009D00123224639463046C0470130D5D009F10109F3E70020BDE8F0872DE9F04317460A7E85B06E2A984606460C460C9B01F1430E00F0AE8011D8632A22D009D8CA
:405DC000002A00F0BB80582A40F0CA8081F84520834955E0642A1ED0692A1CD0C0E0732A00F0B08009D86F2A2ED0702A40F0B8800A6842F020020A603EE0752A24D0782A1E
:405E00003AD0ADE01A6801F14205111D1960136884F84230A8E021681A6811F0800F02D0111D196008E011F0400F02F10401196002D0B2F9003000E01368002B3CDA2D2223
:405E40005B4284F8432037E021681A6811F0800F02D0111D196007E011F0400F02F10401196001D0138800E01368227E5C496F2A14BF0A2208221BE078225A4984F84520EC
:405E80002268186812F0800F00F104051D6003D1550601D5038800E00368D00744BF42F0200222601BB9226822F0200222601022002084F8430001E049490A226568002D87
:405EC000A56008DB206820F0040020602BB9002D7DD175460CE0002B79D07546B3FBF2F002FB1033CB5C05F8013D03460028F5D1082A0BD12368DA0708D5236962689A4277
:405F0000DEBF302305F8013C05F1FF35C5EB0E0323612EE008681A6810F0800F496903D0101D1860136808E010F0400F02F104001860136801D0198000E019600023236109
:405F4000754616E01A68111D1960156800216268284600F049F808B1401B6060636804E004F1420584F8422001232361002384F84330CDF800803B4603AA21463046FFF7A3
:405F800097FE013002D14FF0FF3026E023692A4639463046C0470130F5D023689B0710D5002504F1190907E001234A4639463046C0470130E7D00135E368039A9B1A9D4267
:405FC000F2DBE068039B9842B8BF184605E00B7804F1420584F842308AE705B0BDE8F083BB7B0000CC7B000010B5C9B202449042034605D01C7801308C42F8D1184610BDF5
:40600000002010BD884210B501EB020301D8421E0BE09842FBD28118D21AD34204D013F8014D01F8014DF8E710BD994204D011F8014B02F8014FF8E710BD000038B505463C
:40604000002944D051F8043C0C1F002BB8BFE41800F0D4F81E4A1368114613B96360146030E0A3420DD92268A018834201BF18685B681218226063600C6023E0A24203D816
:4060800013465A68002AF9D118681918A1420BD12168014458188242196013D110685268014419605A600DE002D90C232B6009E021686018824201BF106852680918216094
:4060C00062605C602846BDE8384000F098B838BDC081FF1F70B5CD1C25F0030508350C2D38BF0C25002D064601DBA94202D90C23336046E000F082F8234B1C681A46214614
:40610000A1B10B685B1B0ED40B2B03D90B60CC18CD501EE08C420BBF63684B681360636018BF0C4615E00C464968E9E7174C23681BB9304600F052F820602946304600F0C2
:406140004DF8431C18D0C41C24F00304A0420DD12560304600F053F804F10B00231D20F00700C31A0ED05A42E25070BD211A304600F034F80130EBD10C233360304600F0B3
:406180003EF8002070BD00BFC081FF1FBC81FF1FF8B5074615460E4621B91146BDE8F840FFF798BF1AB9FFF749FF2846F8BD00F027F885420ED929463846FFF78BFF044637
:4061C00050B131462A46FFF7EDFB31463846FFF735FF01E03046F8BD2046F8BD38B5064C0023054608462360FAF762FF431C02D1236803B12B6038BD8091FF1F7047704735
:4062000051F8040C0028BEBF091851F8043CC018043870470000000025580D0A0000000025780D0A0000000030000000310000003200000033000000340000003500000074
:40624000360000003700000038000000390000002A0000002300000044697361626C696E672044414373202E2E2E00004C6F3D25640D0A0048693D25640D0A00B902000080
:406280000203000054030000AD030000B904000038050000C5050000310A0D00320A0D00330A0D00340A0D00350A0D00360A0D00370A0D00380A0D00390A0D002A0A0D0021
:4062C000300A0D00230A0D00035B00402443004040000000004F00400C00205100401000405100403000F051004010000000014000100014014080040019014000030040E3
:406300000140000A004C01400002005001402000605200401005004806008018014018050048800080808181828283848485858687878888898A8A8B8B8C8C8D8E8E8F8FEE
:406340009091919292939394949596969797989899999A9B9B9C9C9D9D9E9E9F9FA0A0A1A1A2A2A3A3A4A4A5A5A6A6A7A7A7A8A8A9A9AAAAABABABACACADADADAEAEAFAFFD
:40638000AFB0B0B1B1B1B2B2B2B3B3B3B4B4B4B5B5B5B6B6B6B6B7B7B7B8B8B8B8B9B9B9B9B9BABABABABBBBBBBBBBBBBCBCBCBCBCBCBCBDBDBDBDBDBDBDBDBDBEBEBEBECC
:4063C000BEBEBEBEBEBEBEBEBEBEBEBEBEBEBEBEBEBEBEBEBEBEBEBDBDBDBDBDBDBDBDBDBDBCBCBCBCBCBCBCBBBBBBBBBBBABABABABAB9B9B9B9B8B8B8B8B7B7B7B7B6B6B0
:40640000B6B5B5B5B5B4B4B4B3B3B3B2B2B1B1B1B0B0B0AFAFAEAEAEADADACACACABABAAAAA9A9A9A8A8A7A7A6A6A5A5A4A4A3A3A2A2A1A1A0A09F9F9E9E9D9D9C9C9B9B01
:406440009A9A9999989897969695959494939392919190908F8F8E8D8D8C8C8B8A8A89898887878686858584838382828180807F7F7E7D7D7C7C7B7A7A797978787776760B
:40648000757574737372727170706F6F6E6E6D6C6C6B6B6A6A696968676766666565646463636262616160605F5F5E5E5D5D5C5C5B5B5A5A595958585757565656555554E2
:4064C00054535353525251515150504F4F4F4E4E4E4D4D4C4C4C4B4B4B4A4A4A4A494949484848484747474746464646454545454544444444444343434343434342424243
:4065000042424242424242414141414141414141414141414141414141414141414141414141424242424242424242434343434343434444444444444545454546464646C7
:406540004647474747484848494949494A4A4A4B4B4B4C4C4C4D4D4D4E4E4E4F4F5050505151525252535354545455555656575758585859595A5A5B5B5C5C5D5D5E5E5FCC
:406580005F606061616262636364646566666767686869696A6B6B6C6C6D6D6E6E6F70707171727373747475757677777878797A7A7B7B7C7D7D7E7E7F0000008080818134
:4065C0008283838485858687878889898A8B8B8C8D8D8E8E8F909091929293939495959697979898999A9A9B9B9C9D9D9E9E9F9FA0A1A1A2A2A3A3A4A4A5A5A6A6A7A7A826
:40660000A8A9A9AAAAABABACACADADAEAEAEAFAFB0B0B1B1B1B2B2B3B3B3B4B4B4B5B5B5B6B6B6B7B7B7B8B8B8B8B9B9B9B9BABABABABBBBBBBBBBBCBCBCBCBCBCBDBDBD38
:40664000BDBDBDBDBDBDBEBEBEBEBEBEBEBEBEBEBEBEBEBEBEBEBEBEBEBEBEBEBEBEBDBDBDBDBDBDBDBDBDBCBCBCBCBCBCBBBBBBBBBBBABABABAB9B9B9B9B8B8B8B8B7B70E
:40668000B7B6B6B6B5B5B5B4B4B4B3B3B3B2B2B1B1B1B0B0AFAFAEAEAEADADACACABABAAAAA9A9A8A8A7A7A6A6A5A5A4A4A3A3A2A2A1A1A09F9F9E9E9D9D9C9B9B9A9A9985
:4066C0009898979796959594939392929190908F8E8E8D8D8C8B8B8A898988878786858584838382818180807F7E7E7D7C7C7B7A7A79787877767675747473727271717085
:406700006F6F6E6D6D6C6C6B6A6A69686867676665656464636262616160605F5E5E5D5D5C5C5B5B5A5A5959585857575656555554545353525251515150504F4F4E4E4E0A
:406740004D4D4C4C4C4B4B4B4A4A4A4949494848484747474746464646454545454444444444434343434343424242424242424242414141414141414141414141414141DA
:4067800041414141414141414142424242424242424243434343434344444444444545454546464646474747474848484949494A4A4A4B4B4B4C4C4C4D4D4E4E4E4F4F5048
:4067C00050515151525253535454555556565757585859595A5A5B5B5C5C5D5D5E5E5F60606161626263646465656667676868696A6A6B6C6C6D6D6E6F6F70717172727379
:406800007474757676777878797A7A7B7C7C7D7E7E7F00008080808181818282828383838484848585858686868787878888888989898A8A8A8B8B8B8C8C8C8D8D8D8E8EA3
:406840008E8F8F8F909090919191929292939393949494959595969696979797989898989999999A9A9A9B9B9B9C9C9C9C9D9D9D9E9E9E9F9F9F9FA0A0A0A1A1A1A2A2A2F9
:40688000A2A3A3A3A4A4A4A4A5A5A5A5A6A6A6A7A7A7A7A8A8A8A8A9A9A9A9AAAAAAAAABABABABACACACACADADADADAEAEAEAEAEAFAFAFAFB0B0B0B0B0B1B1B1B1B1B2B234
:4068C000B2B2B2B3B3B3B3B3B4B4B4B4B4B5B5B5B5B5B5B6B6B6B6B6B6B7B7B7B7B7B7B8B8B8B8B8B8B8B9B9B9B9B9B9B9BABABABABABABABABABBBBBBBBBBBBBBBBBBBCC3
:40690000BCBCBCBCBCBCBCBCBCBCBCBDBDBDBDBDBDBDBDBDBDBDBDBDBDBDBDBDBEBEBEBEBEBEBEBEBEBEBEBEBEBEBEBEBEBEBEBEBEBEBEBEBEBEBEBEBEBEBEBEBEBEBEBEFE
:40694000BEBEBEBEBEBEBEBEBEBEBDBDBDBDBDBDBDBDBDBDBDBDBDBDBDBDBDBCBCBCBCBCBCBCBCBCBCBCBCBBBBBBBBBBBBBBBBBBBABABABABABABABABAB9B9B9B9B9B9B922
:40698000B8B8B8B8B8B8B8B7B7B7B7B7B7B6B6B6B6B6B6B5B5B5B5B5B5B4B4B4B4B4B3B3B3B3B3B2B2B2B2B2B1B1B1B1B1B0B0B0B0B0AFAFAFAFAEAEAEAEAEADADADADAC1F
:4069C000ACACACABABABABAAAAAAAAA9A9A9A9A8A8A8A8A7A7A7A7A6A6A6A5A5A5A5A4A4A4A4A3A3A3A2A2A2A2A1A1A1A0A0A09F9F9F9F9E9E9E9D9D9D9C9C9C9C9B9B9BA7
:406A00009A9A9A999999989898989797979696969595959494949393939292929191919090908F8F8F8E8E8E8D8D8D8C8C8C8B8B8B8A8A8A8989898888888787878686864E
:406A40008585858484848383838282828181818080807F7F7E7E7E7D7D7D7C7C7C7B7B7B7A7A7A797979787878777777767676757575747474737373727272717171707070
:406A8000706F6F6F6E6E6E6D6D6D6C6C6C6B6B6B6A6A6A6969696868686767676766666665656564646463636363626262616161606060605F5F5F5E5E5E5D5D5D5D5C5C71
:406AC0005C5B5B5B5B5A5A5A5A595959585858585757575756565656555555555454545453535353525252525151515151505050504F4F4F4F4F4E4E4E4E4E4D4D4D4D4DA8
:406B00004C4C4C4C4C4B4B4B4B4B4A4A4A4A4A4A49494949494948484848484847474747474747464646464646464545454545454545454444444444444444444343434388
:406B400043434343434343434242424242424242424242424242424242414141414141414141414141414141414141414141414141414141414141414141414141414141B4
:406B800041414141414141424242424242424242424242424242424243434343434343434343434344444444444444444445454545454545454546464646464646474747F8
:406BC000474747474848484848484949494949494A4A4A4A4A4A4B4B4B4B4B4C4C4C4C4C4D4D4D4D4D4E4E4E4E4E4F4F4F4F4F505050505151515151525252525353535369
:406C000054545454555555555656565657575757585858585959595A5A5A5A5B5B5B5B5C5C5C5D5D5D5D5E5E5E5F5F5F60606060616161626262636363636464646565654E
:406C4000666666676767676868686969696A6A6A6B6B6B6C6C6C6D6D6D6E6E6E6F6F6F7070707171717272727373737474747575757676767777777878787979797A7A7A1D
:406C80007B7B7B7C7C7C7D7D7D7E7E7E7F7F00008080808181818282838383848484858586868687878788888989898A8A8A8B8B8C8C8C8D8D8D8E8E8E8F8F90909091916F
:406CC00091929293939394949495959596969697979798989999999A9A9A9B9B9B9C9C9C9D9D9D9E9E9E9F9F9FA0A0A0A1A1A1A2A2A2A2A3A3A3A4A4A4A5A5A5A6A6A6A681
:406D0000A7A7A7A8A8A8A8A9A9A9AAAAAAAAABABABACACACACADADADADAEAEAEAEAFAFAFAFB0B0B0B0B1B1B1B1B1B2B2B2B2B3B3B3B3B3B4B4B4B4B4B5B5B5B5B5B6B6B697
:406D4000B6B6B7B7B7B7B7B7B8B8B8B8B8B8B9B9B9B9B9B9B9BABABABABABABABBBBBBBBBBBBBBBBBBBCBCBCBCBCBCBCBCBCBCBCBDBDBDBDBDBDBDBDBDBDBDBDBDBDBDBE70
:406D8000BEBEBEBEBEBEBEBEBEBEBEBEBEBEBEBEBEBEBEBEBEBEBEBEBEBEBEBEBEBEBEBEBEBEBEBEBEBEBEBEBEBDBDBDBDBDBDBDBDBDBDBDBDBDBDBDBCBCBCBCBCBCBCBC72
:406DC000BCBCBCBBBBBBBBBBBBBBBBBABABABABABABABAB9B9B9B9B9B9B9B8B8B8B8B8B8B7B7B7B7B7B6B6B6B6B6B6B5B5B5B5B5B4B4B4B4B4B3B3B3B3B2B2B2B2B2B1B1CC
:406E0000B1B1B0B0B0B0AFAFAFAFAFAEAEAEADADADADACACACACABABABABAAAAAAA9A9A9A9A8A8A8A7A7A7A7A6A6A6A5A5A5A4A4A4A4A3A3A3A2A2A2A1A1A1A0A0A09F9F34
:406E40009F9E9E9E9D9D9D9C9C9C9B9B9B9A9A9A999999989898979797969696959594949493939392929291919190908F8F8F8E8E8E8D8D8C8C8C8B8B8B8A8A8989898820
:406E800088888787868686858585848483838382828281818080807F7F7F7E7E7D7D7D7C7C7C7B7B7A7A7A79797978787777777676767575747474737373727271717170CA
:406EC00070706F6F6E6E6E6D6D6D6C6C6C6B6B6B6A6A6969696868686767676666666565656464646363636262626161616060605F5F5F5E5E5E5D5D5D5C5C5C5B5B5B5B55
:406F00005A5A5A595959585858585757575656565655555554545454535353535252525251515150505050504F4F4F4F4E4E4E4E4D4D4D4D4D4C4C4C4C4B4B4B4B4B4A4AE5
:406F40004A4A4A49494949494948484848484747474747474646464646464645454545454545454444444444444444434343434343434343434342424242424242424242C4
:406F80004242424242414141414141414141414141414141414141414141414141414141414141414141414141414141414141424242424242424242424242424242434379
:406FC000434343434343434343444444444444444444454545454545454646464646464647474747474748484848484849494949494A4A4A4A4A4B4B4B4B4B4C4C4C4C4CD9
:407000004D4D4D4D4E4E4E4E4E4F4F4F4F505050505151515152525252535353535454545555555556565657575757585858595959595A5A5A5B5B5B5C5C5C5D5D5D5D5E23
:407040005E5E5F5F5F60606061616162626263636364646465656566666667676868686969696A6A6A6B6B6B6C6C6C6D6D6E6E6E6F6F6F70707171717272727373737474D9
:4070800075757576767677777878787979797A7A7B7B7B7C7C7C7D7D7E7E7E7F7F00000080808182828384858586878788898A8A8B8C8C8D8E8F8F909191929393949596AF
:4070C00096979898999A9A9B9C9C9D9D9E9F9FA0A1A1A2A2A3A4A4A5A5A6A6A7A8A8A9A9AAAAABABACACADADAEAEAFAFB0B0B1B1B2B2B2B3B3B4B4B4B5B5B6B6B6B7B7B76C
:40710000B8B8B8B9B9B9B9BABABABABBBBBBBBBCBCBCBCBCBCBDBDBDBDBDBDBDBDBEBEBEBEBEBEBEBEBEBEBEBEBEBEBEBEBEBEBEBEBEBEBDBDBDBDBDBDBDBDBCBCBCBCBC37
:40714000BBBBBBBBBBBABABABAB9B9B9B8B8B8B7B7B7B6B6B6B5B5B5B4B4B3B3B3B2B2B1B1B0B0B0AFAFAEAEADADACACABABAAAAA9A8A8A7A7A6A6A5A4A4A3A3A2A1A1A010
:40718000A09F9E9E9D9C9C9B9B9A9999989797969594949392929190908F8E8E8D8C8B8B8A89898887868685848383828181807F7E7E7D7C7C7B7A79797877767675747449
:4071C00073727171706F6F6E6D6D6C6B6B6A6968686766666564646363626161605F5F5E5E5D5C5C5B5B5A595958585757565555545453535252515150504F4F4F4E4E4DEA
:407200004D4C4C4C4B4B4A4A4A4949494848484747474646464545454544444444444343434343424242424242424241414141414141414141414141414141414141414133
