:400000000080002011000000251100002511000080B500AF024A034B1B68136001F0B4F8BC760040FA46004010B5054C237833B9044B13B10448AFF300800123237010BDFE
:400040008081FF1F0000000044560000084B10B51BB108490848AFF300800848036803B910BD074B002BFBD0BDE81040184700BF000000008481FF1F44560000C880FF1F5E
:400080000000000080B582B000AF01F04DFA02F0D7F801F061FACD4802F070F962B600F053FA02F02FF903467B707B78233B552B00F2DF8101A252F823F000BF1D030000D0
:4000C000730400007304000073040000730400007304000073040000050300007304000073040000730400007304000073040000150200002D020000450200005D020000EF
:40010000750200008D020000A5020000BD020000D5020000ED02000073040000730400007304000073040000730400007304000073040000730400007304000073040000E7
:40014000350300007304000073040000730400007304000073040000730400007304000073040000730400007304000073040000730400007304000073040000C5030000FD
:40018000730400007304000073040000730400005F0400007304000073040000730400007304000073040000730400007304000073040000730400007304000073040000E3
:4001C000350300007304000073040000730400007304000073040000730400007304000073040000730400007304000073040000730400007304000073040000C50300007D
:40020000730400007304000073040000730400005F0400006E4802F0B1F840F2AD3000F063F94FF4A76000F02FF923E1694802F0A5F840F2B92000F057F940F2B94000F0C7
:4002400023F917E1644802F099F840F2B92000F04BF94FF4A76000F017F90BE15F4802F08DF840F2B92000F03FF940F2C55000F00BF9FFE05A4802F081F840F2023000F0FA
:4002800033F940F2B94000F0FFF8F3E0554802F075F840F2023000F027F94FF4A76000F0F3F8E7E0504802F069F840F2023000F01BF940F2C55000F0E7F8DBE04B4802F028
:4002C0005DF84FF4557000F00FF940F2B94000F0DBF8CFE0464802F051F84FF4557000F003F94FF4A76000F0CFF8C3E0414802F045F84FF4557000F0F7F840F2C55000F0D5
:40030000C3F8B7E03C4802F039F840F2AD3000F0EBF840F2B94000F0B7F8ABE0374802F02DF840F2AD3000F0DFF840F2C55000F0ABF89FE00023FB8019E0012001F01CF90A
:400340000346002B13D001F03DF903469AB22C4B1A80B7F906302A4A128811B2294A22F81310B7F906309BB201339BB2FB80B7F9063040F289229342DFDD234801F0FEFF16
:400380000023BB8012E0B7F904301E4A32F913301A461E491E4804F031FD1D4801F0EEFFB7F904309BB201339BB2BB80B7F9043040F289229342E6DD164801F0DFFF00F03E
:4003C000D7F857E000237B8040E000BF48560000585600005C5600006056000064560000685600006C5600007056000074560000785600007C56000080560000845600002C
:40040000CC81FF1FD081FF1F88560000A0560000BC81FF1FA8560000012001F0ADF80346002B13D001F0CEF803469AB2124B1A80B7F90230104A128811B2104A22F8131034
:40044000B7F902309BB201339BB27B80B7F9023040F289229342DFDD00F08AF80AE0084801F08CFF962000F03FF8962000F00CF800E000BF15E600BFCC81FF1FD081FF1F9F
:40048000C05600000000000090B587B000AF78607B684FF4967202FB03F3184604F030F903460C46C7E90434D7E904230CA1D1E9000104F0B5FA03460C46C7E90234D7E9D1
:4004C000020104F033FC03469BB2013B9BB20121184602F059FB00BF1C37BD4690BD00BF0000000060E3764190B587B000AF78607B68C82202FB03F3184604F001F903467E
:400500000C46C7E90434D7E904230DA1D1E9000104F086FA03460C46C7E90234D7E9020104F004FC03469BB2013B9BB20121184602F0F6FB00BF1C37BD4690BDAFF300807F
:400540000000000060E3764180B500AF002001F051FF002001F06CFF9620FFF7C5FF9620FFF792FF01F0C6FF02F080F800BF80BD90B5ADF5A55D85B000AF002307F5A55214
:4005800002F10C02136048E0944A07F5A55303F10C031B6832F91330184604F0B1F803460C4607F5A552C2E900344FF000028C4B07F5A551D1E9000104F008F903460C461C
:4005C00007F5A552C2E900344FF00002854B07F5A551D1E9000104F023FA03460C4607F5A552C2E9003407F15003083B07F5A55202F10C021268D2001A4407F5A55318CBEA
:40060000C2E9003407F5A55303F10C031B68013307F5A55202F10C02136007F5A55303F10C031B6840F289229342ADDD07F13003103B184628231A46002104F0D6FB07F1B3
:400640001003103B184620231A46002104F0CDFB002307F5A55202F10B02137029E007F5A55303F10B031C7807F5A55303F10B031B785D4A52F8231007F15003083B42F2A3
:40068000107240F28A2000F0BBF80A46014607F13003103BE0000344C3E9001207F5A55303F10B031B78013307F5A55202F10B02137007F5A55303F10B031B78042BCED9B5
:4006C000002307F5A55202F10A02137029E007F5A55303F10A031C7807F5A55303F10A031B78424A52F8231007F15003083B42F2107240F28A2000F083F80A46014607F125
:400700001003103BE0000344C3E9001207F5A55303F10A031B78013307F5A55202F10A02137007F5A55303F10A031B78032BCED907F13003103B0521184600F06FF903464D
:4007400007F5A45202F11E02138007F11003103B0421184600F062F9034607F5A45202F11C02138007F5A45303F11E031B881E4A52F823301A461E491E4804F03FFB1D486E
:4007800001F0FCFD1C4801F0F9FD07F5A45303F11C031B88154A52F823301A461749154804F02CFB134801F0E9FD07F5A45303F11E031B880C4A52F8230007F5A45303F1A0
:4007C0001C031B88094A52F82330194600F058F900BF07F5A5571437BD4690BDD081FF1F0000E03F00006040CC80FF1FE080FF1FD8560000BC81FF1FE0560000E456000046
:40080000B0B5A2B000AFF860B9607A603B60F86803F076FF4FF000024FF0804304F000F903460C46C7E91A34F86803F069FF03460C46C7E91834B86803F062FFD7E918231A
:4008400003F0C4FF03460C4625461C46786803F057FF02460B462046294604F0E1F803460C46184621464FF000026B4B03F0FCFD03460C461846214604F058FA0346FB6564
:40088000F86D03F03DFF62A3D3E9002303F09EFF03460C4618462146D7E9182304F0C0F803460C46C7E91434D7E9140102F076FBC7E91201D7E9140102F028FBC7E91001F0
:4008C000D7E9100102460B4603F0CEFD03460C46C7E90E344FF000034FF00004C7E90C344FF000034FF00004C7E920344FF000034FF00004C7E91E340023A7F876302EE048
:40090000B7F87630DB003A68134418CBC7E90A34D7E92023D7E90E0103F058FF03460C4618462146D7E91E2303F09CFD03460C4618462146D7E90A2303F096FD03460C4646
:40094000C7E90C34D7E92034C7E91E34D7E90C34C7E92034B7F876300133A7F87630B7F87620FB689A42CBDBD7E91023D7E91E0103F02CFF03460C461A462346D7E9200140
:4009800003F070FD03460C4618462146D7E91A2304F046F803460C46C7E90834D7E91223D7E91E0103F012FF03460C4618462146D7E91A2304F034F803460C46C7E90634E7
:4009C000D7E90823D7E9080103F000FF03460C4625461C46D7E90623D7E9060103F0F6FE02460B462046294603F03EFD03460C461846214602F01AFBC7E90401D7E90434A2
:400A0000184621468837BD46B0BD00BFAFF30080182D4454FB2119400000E03F90B587B000AF78600B46FB707B6818CBC7E904340023FB810123BB8118E0BB89DB007A680B
:400A40001344D3E90001D7E9042304F04FF90346002B08D0BB89DB007A68134418CBC7E90434BB89FB81BB890133BB81FB789BB2BA899A42E1D3FB8918461C37BD4690BD44
:400A800080B582B000AF78603960564B5A687B689A4207D1544B5A683B689A4202D1534801F06CFC4F4B5A687B689A4207D14E4B9A683B689A4202D14D4801F05FFC494BB9
:400AC0005A687B689A4207D1474BDA683B689A4202D1484801F052FC424B9A687B689A4207D1414B5A683B689A4202D1424801F045FC3C4B9A687B689A4207D13A4B9A687F
:400B00003B689A4202D13D4801F038FC354B9A687B689A4207D1344BDA683B689A4202D1374801F02BFC2F4BDA687B689A4207D12D4B5A683B689A4202D1324801F01EFC92
:400B4000284BDA687B689A4207D1274B9A683B689A4202D12C4801F011FC224BDA687B689A4207D1204BDA683B689A4202D1274801F004FC1B4B1A697B689A4207D11A4B67
:400B80005A683B689A4202D1214801F0F7FB154B1A697B689A4207D1134B9A683B689A4202D11C4801F0EAFB0E4B1A697B689A4207D10D4BDA683B689A4202D1164801F0C1
:400BC000DDFB084B1A687B689A4204D0064B1A683B689A4202D1114801F0D0FB00BF0837BD4680BDCC80FF1FE080FF1FF0560000FC5600000857000014570000205700007C
:400C00002C5700003857000044570000505700005C57000068570000745700008057000080B582B000AF786039603A680021786804F0DBF800BF0837BD4680BD80B584B0B4
:400C400000AFF860B9607A607A68B968F86804F0C1F800BF1037BD4680BD00BF80B483B000AF0346FB71FEE780B487B000AF7860396000233B6100237B6127E07B699B00E6
:400C80007A6813441B68BB60BB68FB73BB6823F0FF03BB6014E03B695B003A6813441B781A46BB68134419463B695B003A6813445B780B703B6901333B61FB7B013BFB73E7
:400CC000FB7B002BE7D17B6901337B617B691D2BD4D900BF1C37BD4680BC704780B582B000AF464B00221A80454B50221A70454B4FF405721A80444B18221A70434B40F2E0
:400D00001F321A80424B18221A70424B19221A80414B18221A70042240494148FFF78EFF404B02221A704FF0402308221A703E4B03221A703D4B3E4A1278D2B21A703D4B13
:400D400008221A803C4B41F251221A800023FB7019237B6014E0FB785B00DAB2374B1B78DBB203F00103DBB21343DBB203F00303FB704FF4F07002F09FF87B68013B7B6062
:400D80007B68002B02D0FB78032BE4D17B68002B02D10320FFF762FF294B4FF480721A80274B07221A70274B00221A70264B48221A70234B00221A70244B02221A70244B11
:400DC00004221A70234A234B1B78DBB243F00F03DBB21370204A204B1B78DBB243F00103DBB213701D4A1D4B1B78DBB263F07F03DBB2137000BF0837BD4680BD80400040A5
:400E0000824000408440004086400040884000408A4000408C4000408E400040A0040048004100400043004000420040A146004008010049224200402042004025420040A2
:400E4000044000400640004008400040014000400B400040A2430040A1430040A043004080B483B000AF124B1B78FB71114AFB7903F00703DBB213700F4AFB791B09DBB29C
:400E800013700E4B01221A700D4B20221A700D4B30221A700C4B20221A700C4B20221A700B4B44221A7000BF0C37BD4680BC7047CF0100496E5800406F5800403D510040D9
:400EC000905A0040985A0040005B0040585B00407658004080B483B000AF0346FB71FB79012B0ED8FB79094A52F82330FA79074951F822201178FA790548825C0A43D2B2FF
:400F00001A7000BF0C37BD4680BC7047905700009857000080B483B000AF0346FB71FB79012B10D8FB790A4A52F82330FA79084951F822201178FA790648825CD243D2B291
:400F40000A40D2B21A7000BF0C37BD4680BC7047905700009857000080B586B000AF72B6574A574B1B78DBB243F00403DBB213700023FB7513E0FA7D13465B0013445B00F9
:400F8000504A13443B613B691A683B699B889BB219461046FFF744FEFB7D0133FB75FB7D082BE8D90023FB751CE0FA7D13469B0013445B00444A1344FB60FB681B68BB6008
:400FC000FB685B687B60FB681A7A5B7A1B0213437B807B881A467968B868FFF72FFEFB7D0133FB75FB7D012BDFD938494FF09040FFF73AFE364B0A221A7004213548FFF72A
:401000000FFE04213448FFF70BFE04213348FFF707FE04213248FFF703FE324A314B1B78DBB243F00203DBB213702F4A2E4B1B78DBB243F00203DBB213702C4A2B4B1B7899
:40104000DBB243F04003DBB21370294A284B1B78DBB243F01003DBB213700A2225492648FFF7ECFD082225492548FFF7E7FD082224492548FFF7E2FD082224492448FFF769
:40108000DDFD244A234B1B78DBB243F00803DBB21370214B60221A70FFF720FE1E4B80221A701E4B01221A70FFF7DAFE0E220F491B48FFF7C3FD00BF1837BD4680BD00BF59
:4010C000E84600409C570000D45700007800004883580040007600400876004010760040187600400350014013500140A0430040C24300407C040048C051004088040048F4
:40110000F251004090040048125100409804004832510040224300400048004004000840B043004080B500AF03F028FE03461B680C2B00D1FEE7FEE780B584B000AF7860CF
:401140000F4B1A687B6813441A460E4BD31A802B09DC0B4B1B68FB60094B1A687B681344074A136007E003F009FE02460C2313604FF0FF33FB60FB6818461037BD4680BD3C
:40118000F080FF1FF086FF1F80B586B000AF224B7B61224B3B61204B7B6135E03B691B68FB603B695B68BB603B699B683B6000237B600CE0FB681A68BB681A60BB68043339
:4011C000BB60FB680433FB607B6804337B607A683B689A42EED13B69DB683B6000237B6008E0BB6800221A60BB680433BB607B6804337B607A683B689A42F2D13B6910332E
:401200003B617B69013B7B617B69002BC6D103F0BBFDFEF737FFFEE701000000245C000080B582B000AF194B194A1A60194A194B1B6843F40073136000237B600FE07B68A6
:40124000032B04D8144A7B6852F8233000E0134B13497A6841F822307B6801337B607B682F2BECD90F4B1B78DAB20F4B1A700F4B0B4A1A60FFF770FE00F08AFD0C4B0022B1
:401280001A6000BF0837BD4680BD00BF0CED00E00004FA0514ED00E000000000251100000080FF1FBC760040C480FF1F08ED00E0C080FF1F80B582B002AF324B01221A70DD
:4012C000314B00221A70102000F054FC102000F037FD07211D2000F08FFF2C4B04221A702B4B00221A702B4B00221A702A4A2A4B1B78DBB243F01803DBB21370274B0022B9
:401300001A70274B00221A70264B00221A70264B0A221A70254B00221A70254B00221A70244B12221A70244B13221A70234B00221A70234B14221A700123009308234FF4C1
:40134000004248F6B651002000F02CFA1D4A0D4B1B78DBB2013B1C499B000B449B7813701A4A084B1B78DBB2013B174931F823301380044B1B78DBB2184600F061F900BF58
:40138000BD4680BDF480FF1F9C81FF1F96580040975800409E580040075B004093580040885B0040895B004080580040815800408358004088580040895800408D580040C7
:4013C000014E00400E4E0040A481FF1F0C4E004080B582B000AF01F08EFD0346FB71444B1B78BB71434A434B1B78DBB243F00103DBB213703F4A3F4B1B78DBB243F0100355
:40140000DBB213703C4A3C4B1B78DBB243F00103DBB21370384A384B1B78DBB243F01003DBB21370354A354B1B78DBB243F00203DBB21370324A324B1B78DBB243F00203F5
:40144000DBB213702F4A2F4B1B78DBB243F00303DBB21370032000F093FE284A274B1B78DBB223F00203DBB21370254A244B1B78DBB223F00203DBB21370234A224B1B789D
:40148000DBB243F00603DBB21370204B7A221A701F4A1F4B1B78DBB243F00103DBB213701C4A1C4B1B78DBB243F00103DBB21370194A194B1B78DBB243F00103DBB2137026
:4014C000164A164B1B78DBB243F00103DBB21370134B4FF000521A60124B4FF000521A60FB79184601F00BFD00BF0837BD4680BDF480FF1FAA430040BA430040F846004070
:40150000F9460040915800407758004082580040A1430040B1430040A2430040B243004080E200E000E100E080B500AF084B1B78002B09D1074B1B78DBB2002B01D1FFF7F1
:40154000B9FE034B01221A70FFF742FF00BF80BD9E81FF1F9F81FF1F80B400AF054A054B1B78DBB243F00103DBB2137000BFBD4680BC7047004E004080B485B000AF03467E
:40158000FB710D4B1B78DBB2002B03D00B4B1B78FB7305E00A4B1B78DBB203F00103FB73FB7B012B02D0FB79002BEAD0FB7B18461437BD4680BC70479D81FF1F9C81FF1FDA
:4015C000014E004080B483B000AF174B1B78DBB203F003037B717B79012B03D8134B1B88FB8011E0114B1B78DBB2FB80104B1B78DBB29BB21B029AB2FB881343FB807B7907
:40160000032B01D10B4B1B780B4B1B78DBB2002B02D00A4B00221A70B7F9063018460C37BD4680BC704700BF144E0040104E0040114E0040124E00409D81FF1F9C81FF1F1B
:4016400080B582B000AF0346FB71384B00221A70FB79012B65D1364B38221A70354B04221A70354B06221A70344B00221A70344B00221A70334B0F221A70334B00221A701A
:40168000324B00221A70324B00221A70314B01221A70314B14221A70304B09221A70304B0A221A702F4B00221A702F4B11221A702E4B12221A702E4B01221A702D4B0022BE
:4016C0001A702D4B00221A702C4B0A221A702C4B43221A70442000F01DF92A4B58221A70294B00221A70294B05221A70284B02221A70284B00221A70274B00221A70002003
:4017000000F066F9254BFA221A600121052000F073F90121952000F055FA21491D2000F043FD00BF0837BD4680BD00BF9D81FF1F004E0040024E0040034E0040044E00404A
:40174000054E0040064E0040084E0040094E00400A4E0040144E0040845800408558004086580040875800408A5800408B5800408C5800408E5800408F5800409058004087
:401780009158004094580040955800409A5800409B5800409C5800409D580040E486FF1F9119000090B587B000AF0446084611461A462346FB710346BB800B467B8013462F
:4017C000BB7197F82830002B00F08B8097F82830012B00F28680FB79013B092B4AD801A252F823F00D18000075180000751800000D180000751800007518000027180000E2
:4018000041180000751800005B180000BB790F2B04D9374B1B78DBB2FB752EE0354B1B78DBB2FB7529E0BB790F2B04D9324B1B78DBB2FB7521E0314B1B78DBB2FB751CE06A
:40184000BB790F2B04D92E4B1B78DBB2FB7514E02C4B1B78DBB2FB750FE0BB790F2B04D9294B1B78DBB2FB7507E0284B1B78DBB2FB7502E00023FB7500BFBA8897F91730A4
:401880005B0113443B617B883A6902FB03F3FB60FB68DB0BBB82BB790D2B12D8BA8ABB79C3F10E0342FA03F3BB8297F82830013BBA790132D1B2164A9B0013440A469A70A5
:4018C00007E097F82830013B114A9B0013440F229A7097F82830013B0D49BA8A21F8232002E0002000F040FC00BF1C37BD4690BD180100491C010049190100491D0100491B
:401900001A0100491E0100491B0100491F010049A481FF1F80B584B000AF0346FB7101F0EAFA0346FB73174A164B1B78DBB243F00303DBB21370144A134B1B78DBB243F037
:401940000303DBB21370114AFB791370032000F017FC0C4A0B4B1B78DBB223F00303DBB21370094A084B1B78DBB223F00303DBB21370FB7B184601F0C2FA00BF1037BD466B
:4019800080BD00BFF8460040F94600409258004080B400AF00BFBD4680BC704780B582B000AF0023FB7106E0FB791846FFF7B2FAFB790133FB71FB79012BF5D9034BFF227C
:4019C0001A7000BF0837BD4680BD00BFF580FF1F80B582B000AF0346FB71FFF7DFFFFB791846FFF777FA034AFB79137000BF0837BD4680BDF580FF1F80B584B000AF03467F
:401A00000A46FB8013467B7100F0CEF80346FB7300F0A4F80346BB81FA88BB899A4200F08880464B1B78DBB203F00103FB72FB7B002B20D1BB89002B02D0FB88002B1AD1FD
:401A4000BB89002B0BD13E4AFB8813803D4A3D4B1B78DBB223F04003DBB2137069E0394A384B1B78DBB243F04003DBB21370344AFB8813805DE0FB7A002B33D0324B0022E0
:401A80001A70324B01221A70314B00221A70314A304B1B78DBB203F07F03DBB21370294B1B78DBB203F00803002B02D0FB88002B18D1294ABB891380234B07221A7000BF5F
:401AC000214B1B78DBB203F00103002BF8D11B4A1A4B1B78DBB223F00103DBB213701A4B00221A70154B1B78DBB203F00103002B13D0194AFB881380134A7B79002B01D002
:401B0000032300E00123137000BF0F4B1B78DBB203F00103002BF8D10BE0094AFB8813800649064B1B78DAB2FB7A1343DBB20B70FFE700BF1037BD4680BD00BFA2430040DE
:401B40008040004082400040014000401040004014400040084000400240004080B400AF034B1B889BB21846BD4680BC704700BF8040004080B483B000AF0346FB71094963
:401B8000084B1B78DBB25AB297F9073023F007035BB213435BB2DBB20B7000BF0C37BD4680BC70478240004080B400AF044B1B78DBB203F00703DBB21846BD4680BC704720
:401BC0008240004080B584B000AF03460A46FB8013467B7100F0CEF80346FB7300F0A4F80346BB81FA88BB899A4200F08880464B1B78DBB203F00103FB72FB7B002B20D1B3
:401C0000BB89002B02D0FB88002B1AD1BB89002B0BD13E4AFB8813803D4A3D4B1B78DBB223F04003DBB2137069E0394A384B1B78DBB243F04003DBB21370344AFB881380C3
:401C40005DE0FB7A002B33D0324B00221A70324B01221A70314B00221A70314A304B1B78DBB203F07F03DBB21370294B1B78DBB203F00803002B02D0FB88002B18D1294AD5
:401C8000BB891380234B07221A7000BF214B1B78DBB203F00103002BF8D11B4A1A4B1B78DBB223F00103DBB213701A4B00221A70154B1B78DBB203F00103002B13D0194AEC
:401CC000FB881380134A7B79002B01D0032300E00123137000BF0F4B1B78DBB203F00103002BF8D10BE0094AFB8813800649064B1B78DAB2FB7A1343DBB20B70FFE700BF25
:401D00001037BD4680BD00BFA14300400041004002410040014000401440004010400040084000400240004080B400AF034B1B889BB21846BD4680BC704700BF00410040D1
:401D400080B483B000AF0346FB710949084B1B78DBB25AB297F9073023F007035BB213435BB2DBB20B7000BF0C37BD4680BC70470241004080B400AF044B1B78DBB203F0AB
:401D80000703DBB21846BD4680BC70470241004080B483B000AF134B7F221A70124B80221A707F23FB710CE0FB79DB0003F1804303F5F043FA79013AD2B21A70FB79013BF6
:401DC000FB71FB79002BEFD1FB79DB0003F1804303F5F04300221A7000BF0C37BD4680BC704700BFF980FF1FF880FF1F80B485B000AF03460A46FB711346BB710123FB6036
:401E0000FB79172B2FD8BB79002B0ED0FB791A01184B1344FA791101164A0A441278D2B242F02002D2B21A700DE0FB791A01114B1344FA7911010F4A0A441278D2B222F041
:401E40002002D2B21A70FB791A010A4B1344FA791101084A0A441278D2B242F00102D2B21A700023FB60FB6818461437BD4680BC704700BF1070004080B485B000AF034621
:401E80000A46FB711346BB710123FB60FB79172B1BD8FB791A01104B13441B78DBB223F00E03FB72FB791A010B4B1344BA795200D2B252B202F00E0251B297F90B200A4371
:401EC00052B2D2B21A700023FB60FB6818461437BD4680BC704700BF1070004080B485B000AF0346FB710B46BB8013467B800123FB60BB8841F6FF72934202D14FF400537C
:401F0000BB807B8841F6FF72934202D14FF400537B80FB79172B17D8FB79DB0003F1804303F5EC430433BB60BB68BA881A80FB79DB0003F1804303F5EC430633BB60BB68BB
:401F40007A881A800023FB60FB6818461437BD4680BC704780B485B000AF03460A46FB711346BB710123FB60FB79172B07D8FB791A01064B1344BA795A720023FB60FB6878
:401F800018461437BD4680BC704700BF1070004090B484B000AF0446084611461A462346FB710346BB710B467B7113463B710123FB60FB79172B34D8FB79DB0003F18043BA
:401FC00003F5EC43BA7902F07F02D1B27A79D201D2B20A43D2B21A70FB79DB0003F1804303F5EC433A7E1201D1B23A7902F00F02D2B20A43D2B25A70FB79DB0003F1804396
:4020000003F5EC433A7F02F00F02D2B29A70FB79DB0003F1804303F5EC430022DA700023FB60FB6818461037BD4690BC704700BF80B582B000AFFF23FB7100F05CFF034613
:40204000BB71104B1B78182B12D90F4B1B78FB710C4B1B78013BDAB20A4B1A70FB79DB0003F1804303F5F0431B78DAB2064B1A70BB79184600F043FFFB7918460837BD462B
:4020800080BD00BFF880FF1FF980FF1F90B484B000AF0446084611461A462346FB710346BB800B46BB711346FB700123FB6097F90730002B23DBBB8823F47F6323F00F0317
:4020C0009BB2002B1BD1FB79DB0003F1804303F5F043BB60BB68BA881A80FB79DB0003F1804303F5F043BA799A70FB79DB0003F1804303F5F043FA78DA700023FB60FB68F5
:4021000018461037BD4690BC704700BF80B485B000AF0346FB710B46BB8013467B800123FB6097F90730002B17DBFB79DB0003F1804303F5F0430433BB60BB68BA881A80A3
:40214000FB79DB0003F1804303F5F0430633BB60BB687A881A800023FB60FB6818461437BD4680BC704700BF80B483B000AF0346FB7101BE00BF0C37BD4680BC704700BF9B
:4021800080B582B000AF0346FB80FB88054A127802FB03F3184600F08FFE00BF0837BD4680BD00BF0881FF1F80B584B000AF03463960FB710F4B1B68FB60FB791F2B02D940
:4021C0000020FFF7D1FFFB7903F01F0310339B00FA6813441B68BB60FB7903F01F0310339B00FA6813443A681A60BB6818461037BD4680BD08ED00E080B582B000AF0346C3
:402200000A46FB711346BB71BB79072B02D90020FFF7AAFFFB791F2B02D90020FFF7A4FFFB7903F01F0303F1604303F56443BA795201D2B21A7000BF0837BD4680BD00BFBB
:4022400080B500AF064B1B78002B04D100F00AF8034B01221A7000F025F800BF80BD00BFA881FF1F80B400AF094B72221A70094B20221A70084B06221A70084B47221A70DA
:40228000074B00221A7000BFBD4680BC704700BF896500408865004029640040396400408864004080B582B000AF00F024FE0346FB71114A104B1B78DBB243F02003DBB2E5
:4022C00013700E4A0D4B1B78DBB243F01003DBB213700B4A0A4B1B78DBB243F01003DBB2137000F06DF8FB79184600F008FE00BF0837BD4680BD00BF996500409865004080
:402300009864004080B483B000AF0023FB710C4B1B78BB71BB7903F02003002B09D0094B1B78FB71BB7903F01E03002B01D00023FB71FB7918460C37BD4680BC704700BF68
:40234000686500404A65004080B483B000AF0346FB7100BF074B1B78DBB203F00403002BF8D1054AFB79137000BF0C37BD4680BC704700BF686400404864004080B584B019
:4023800000AF78600023FB810C4B1B78002B10D009E0FB897A6813441B781846FFF7D4FFFB890133FB81FB897A6813441B78002BEFD100BF1037BD4680BD00BFA881FF1FE7
:4023C00080B400AF094A094B1B78DBB243F00803DBB21370064A064B1B78DBB243F00803DBB2137000BFBD4680BC7047A2430040B243004080B485B000AF0346FB710B4BA4
:402400001B78DBB223F00403FB730849FB799B00DBB203F00403DAB2FB7B1343DBB20B7000BF1437BD4680BC704700BFC051004080B485B000AF0346FB710B4B1B78DBB25A
:4024400023F00203FB730849FB795B00DBB203F00203DAB2FB7B1343DBB20B7000BF1437BD4680BC704700BFF051004080B500AF00F0DAF9022000F00FFA002000F02CFA99
:40248000FFF7D6FD03461A46094B1A70FFF7D0FD03461A46074B1A704FF49671064800F03BF80421054800F06BF800BF80BD00BFAD81FF1FAE81FF1FE85700001459000004
:4024C00080B500AF00F0CEF9084B1B7801211846FFF78CFC064B1B7801211846FFF786FC002000F019FA00BF80BD00BFAB81FF1FAC81FF1F80B500AF064B1B78002B04D146
:40250000FFF7B4FF034B01221A70FFF7D9FF00BF80BD00BFAA81FF1F80B582B000AF78600B467B807B681B0C9AB24FF480430121012000F015F903461A460F4B1A700F4B67
:4025400018780E4B1A7879880123FFF79FFD0B4B1B787A6891B245F682321846FFF7D6FD054B1A78054B1B7819461046FFF7F2FC00BF0837BD4680BDAB81FF1FAD81FF1FD3
:4025800080B582B000AF78600B467B807B681B0C9AB24FF480430121012000F013F903461A460F4B1A700F4B18780E4B1A7879880123FFF76BFD0B4B1B787A6891B245F618
:4025C00082321846FFF7A2FD054B1A78054B1B7819461046FFF7BEFC00BF0837BD4680BDAC81FF1FAE81FF1F80B500AF00F026FA022000F05BFA002000F078FAFFF718FD4C
:4026000003461A46084B1A70FFF712FD03461A46064B1A70C821064800F03AF80421054800F06AF800BF80BDB281FF1FB381FF1F18590000E059000080B500AF00F01CFA3B
:40264000084B1B7801211846FFF7D0FB064B1B7801211846FFF7CAFB002000F067FA00BF80BD00BFB081FF1FB181FF1F80B500AF064B1B78002B04D1FFF7B6FF034B012265
:402680001A70FFF7D9FF00BF80BD00BFAF81FF1F80B582B000AF78600B467B807B681B0C9AB24FF480430121012000F063F903461A460F4B1A700F4B18780E4B1A78798831
:4026C0000123FFF7E3FC0B4B1B787A6891B245F683321846FFF71AFD054B1A78054B1B7819461046FFF736FC00BF0837BD4680BDB081FF1FB281FF1F80B582B000AF78600A
:402700000B467B807B681B0C9AB24FF480430121012000F061F903461A460F4B1A700F4B18780E4B1A7879880123FFF7AFFC0B4B1B787A6891B245F683321846FFF7E6FC08
:40274000054B1A78054B1B7819461046FFF702FC00BF0837BD4680BDB181FF1FB381FF1F90B585B002AF0446084611461A462346FB710346BB710B46BB8013467B80104B0C
:4027800000221A700E4B1878BA79F97900230193002300930023FFF7FBFB094B1B787A88B9881846FFF79AFB054B1B7802211846FFF762FB024B1B7818460C37BD4690BDC8
:4027C0001081FF1F90B585B002AF0446084611461A462346FB710346BB710B46BB8013467B80104B01221A700E4B1878BA79F97900230193002300930023FFF7C9FB094B52
:402800001B787A88B9881846FFF768FB054B1B7802211846FFF730FB024B1B7818460C37BD4690BD1181FF1F80B500AF0A4B00221A700A4B00221A70094A094B1B78DBB258
:4028400043F00803DBB21370002000F045F8022000F022F800BF80BD2858004029580040975A004080B400AF094A094B1B78DBB243F00403DBB21370064A064B1B78DBB22E
:4028800043F00403DBB2137000BFBD4680BC7047A8430040B843004080B483B000AF0346FB710C4A0B4B1B78DBB223F00203DBB213700849074B1B78DAB2FB7903F00203C6
:4028C000DBB21343DBB20B7000BF0C37BD4680BC704700BF2858004080B582B000AF0346FB710C4A0B4B1B78DBB223F00C03DBB213700849074B1B78DAB2FB7903F00C0375
:40290000DBB21343DBB20B7000F016F800BF0837BD4680BD2858004080B483B000AF0346FB71044AFB79137000BF0C37BD4680BC704700BF825B004080B483B000AF0B4B60
:402940001B78DBB203F00C039B08DBB20633FB71074AFB7903F1924303F594731B78DBB2137000BF0C37BD4680BC7047285800400A46004090B585B002AF044608461146CE
:402980001A462346FB710346BB710B46BB8013467B80104B02221A700E4B1878BA79F97900230193002300930023FFF7F1FA094B1B787A88B9881846FFF790FA054B1B789A
:4029C00002211846FFF758FA024B1B7818460C37BD4690BD1281FF1F90B585B002AF0446084611461A462346FB710346BB710B46BB8013467B80104B03221A700E4B1878F5
:402A0000BA79F97900230193002300930023FFF7BFFA094B1B787A88B9881846FFF75EFA054B1B7802211846FFF726FA024B1B7818460C37BD4690BD1381FF1F80B500AFFB
:402A40000A4B00221A700A4B00221A70094A094B1B78DBB243F00803DBB21370002000F045F8022000F022F800BF80BD2C5800402D5800409F5A004080B400AF094A094B7E
:402A80001B78DBB243F00803DBB21370064A064B1B78DBB243F00803DBB2137000BFBD4680BC7047A8430040B843004080B483B000AF0346FB710C4A0B4B1B78DBB223F0D4
:402AC0000203DBB213700849074B1B78DAB2FB7903F00203DBB21343DBB20B7000BF0C37BD4680BC704700BF2C58004080B582B000AF0346FB710C4A0B4B1B78DBB223F083
:402B00000C03DBB213700849074B1B78DAB2FB7903F00C03DBB21343DBB20B7000F016F800BF0837BD4680BD2C58004080B483B000AF0346FB71044AFB79137000BF0C3741
:402B4000BD4680BC704700BF835B004080B483B000AF0B4B1B78DBB203F00C039B08DBB20633FB71074AFB7903F1924303F59C731B78DBB2137000BF0C37BD4680BC7047EF
:402B80002C5800400B46004080B584B000AF03460A46FB8013467B7100F0B4F80346FB7300F0A4F80346BB81FA88BB899A4200F08880464B1B78DBB203F00203FB72FB7BC5
:402BC000002B20D1BB89002B02D0FB88002B1AD1BB89002B0BD13E4AFB8813803D4A3D4B1B78DBB223F04003DBB2137069E0394A384B1B78DBB243F04003DBB21370344AEE
:402C0000FB8813805DE0FB7A002B33D0324B00221A70324B02221A70314B00221A70314A304B1B78DBB203F07F03DBB21370294B1B78DBB203F00803002B02D0FB88002B4A
:402C400018D1294ABB891380234B07221A7000BF214B1B78DBB203F00103002BF8D11B4A1A4B1B78DBB223F00203DBB213701A4B00221A70154B1B78DBB203F00203002B04
:402C800013D0194AFB881380134A7B79002B01D0032300E00123137000BF0F4B1B78DBB203F00103002BF8D10BE0094AFB8813800649064B1B78DAB2FB7A1343DBB20B70B4
:402CC000FFE700BF1037BD4680BD00BFA24300408440004086400040014000401040004014400040084000400240004080B400AF034B1B889BB21846BD4680BC704700BFD7
:402D00008440004080B400AF044B1B78DBB203F00703DBB21846BD4680BC70478640004080B584B000AF03460A46FB8013467B7100F0B4F80346FB7300F0A4F80346BB8184
:402D4000FA88BB899A4200F08880464B1B78DBB203F00403FB72FB7B002B20D1BB89002B02D0FB88002B1AD1BB89002B0BD13E4AFB8813803D4A3D4B1B78DBB223F04003C7
:402D8000DBB2137069E0394A384B1B78DBB243F04003DBB21370344AFB8813805DE0FB7A002B33D0324B00221A70324B04221A70314B00221A70314A304B1B78DBB203F013
:402DC0007F03DBB21370294B1B78DBB203F00803002B02D0FB88002B18D1294ABB891380234B07221A7000BF214B1B78DBB203F00103002BF8D11B4A1A4B1B78DBB223F07D
:402E00000403DBB213701A4B00221A70154B1B78DBB203F00403002B13D0194AFB881380134A7B79002B01D0032300E00123137000BF0F4B1B78DBB203F00103002BF8D14B
:402E40000BE0094AFB8813800649064B1B78DAB2FB7A1343DBB20B70FFE700BF1037BD4680BD00BFA2430040884000408A400040014000401040004014400040084000401D
:402E80000240004080B400AF034B1B889BB21846BD4680BC704700BF8840004080B400AF044B1B78DBB203F00703DBB21846BD4680BC70478A400040142816D902B4012117
:402EC00014381049097811F0C001890904B40E4A515C04BC00BF00BF00BF8841FDD500BF00BF02BC704700BF00BF70F10400FCD570470B050709EFF3108072B6704780F3C1
:402F00001088704700480040F22E000030B5214A21F00043934287B01BDD1F4A934205DD02460B4601F09EFA07B030BD02AA00F0DBF800F0030001281AD002280FD008B3D3
:402F4000DDE9020101230093DDE9042301F0C4F8EAE70022002300F0A3FB07B030BDDDE90423DDE9020100F09BFB01F10041DBE70090DDE90423DDE9020101F0ADF801F1F0
:402F80000041D1E7DDE90423DDE9020100F088FBCAE700BFFB21E93FFFFFEF7F30B5214A21F00043934287B01BDD1F4A934205DD02460B4601F056FA07B030BD02AA00F0ED
:402FC00093F800F0030001281ED0022811D0DDE9042300B3DDE9020100F062FB01F10041EAE7002300930022002301F075F807B030BD01230093DDE90201DDE9042301F01C
:403000006BF801F10041D7E7DDE90423DDE9020100F046FBD0E70124DDE90201009401F05BF8C9E7FB21E93FFFFFEF7F2DE9F04F8BB004460D4600F06DFA284B064693F9A9
:4030400000A00F46BAF1FF3F12D022462B462046294601F055FE834650B94FF000084FF000092046294642464B4601F021FE20B9304639460BB0BDE8F08F194A0123CDF846
:4030800020B0CDE90445CDE9024501920093BAF1000F15D042464B464046494601F0C0FCBAF1020FCDE906010CD101F067FE21230360089B63B9DDE906010BB0BDE8F08FE6
:4030C000CDE90689684601F04BF90028F1D1ECE701F054FE089B0360EDE700BF1481FF1FE4590000000000002DE9F04F944C21F00047A7428FB040F381801446914A0E46AD
:40310000974226DC84A3D3E90023002940F3A08101F0A8F98C4B80469F42894600F083807FA3D3E9002301F09DF902460B464046C4E90023494601F095F979A3D3E90023DF
:4031400001F090F90125C4E9020128460FB0BDE8F08F7E4A974240F383807D4A974258DC3D15A5F21645A7EB05518B46824601F0DDFD01F0C5FA8046894642464B4650467F
:403180005946CDE9088901F06DF90022714B01F01DFB8B46824601F0C9FD01F0B1FA8046894642464B4650465946CDE90A8901F059F90022674B01F009FB00220023CDE9CC
:4031C0000C0101F06BFD002800F06A81002340464946002201F062FD002814BF012302235D480221019000912A46214608A800F07BFB002EC0F24A81054606E0C2E9000119
:4032000000250024C2E90245002528460FB0BDE8F08F02460B4601F025F90025C4E90201C4E90001F1E740A3D3E9002301F01AF93FA3D3E9002306460F4601F013F902466D
:403240000B463046C4E90023394601F00BF938A3D3E9002301F006F90125C4E90201D4E700F0F0FF34A3D3E900238046894601F0ADFA0022394B01F0F7F801F057FD054630
:4032800001F03EFA24A3D3E90023CDE9040101F09DFA02460B464046494601F0E3F820A3D3E9002382468B46DDE9040101F08EFA1F2DCDE9020155DC294B6A1E53F8223034
:4032C0009F424FD002460B465046594601F0CAF802460B4681468846C4E900234A4643465046594601F0BEF8DDE9022301F0BAF802460B46002EC4E9022386DA4A4608F14A
:40330000004301F1004184E80C00E160A0606D427BE700BFAFF3008000004054FB21F93F3163621A61B4D03D0000601A61B4D03D7370032E8A19A33B83C8C96D305FE43FEE
:40334000FB21E93F7BD90240FB21F93FFB213941FFFFEF7F000070416C5A00000000E03FEC590000DDE902235046594601F07AF83F15C1F30A53FB1A102B81468846C4E9C8
:403380000001ABDD58A3D3E90023DDE9040101F01DFA8046894602460B465046594601F061F8CDE9060102460B465046594601F059F842464B4601F055F84DA3D3E9002337
:4033C00080468946DDE9040101F000FA42464B4601F048F802460B46CDE90201DDE9060101F040F80B4602468846C1F30A517F1A312F8146C4E9002372DD3FA3D3E90023DA
:40340000DDE9040101F0E2F98046894602460B46DDE9060101F026F802460B4682468B46DDE9060101F01EF842464B4601F01AF833A3D3E9002380468946DDE9040101F0C3
:40344000C5F942464B4601F00DF8CDE9020139E701F00AF82E4B80469F42894622D02AA3D3E9002301F000F802460B464046C4E90023494600F0F6FF23A3D3E9002300F045
:40348000F3FF4FF0FF35C4E90201BEE66268E36802F1004203F1004345426260E360B4E603239DE610A3D3E9002300F0DDFF10A3D3E9002306460F4600F0D6FF02460B4614
:4034C0003046C4E90023394600F0CCFF08A3D3E9002300F0C9FF4FF0FF35C4E9020194E6DDE906ABFAE600BF0000601A61B4D03D7370032E8A19A33B0000002E8A19A33B77
:40350000C14920259A837B393163621A61B4D03DFB21F93F2DE9F0415F4E0C46B6460E407645054600F0988000290B46024674DD5FEA215E7FD0AEF2FF3EC3F313031EF066
:40354000010F43F4801363D100273E4603EBD2710B444FEA6E0E520016204FF4001174189C424FEAD2754FEA420202DC1B1B66180F44013805EB43034FEA5101EFD18446B1
:4035800020244FF0004109E020D003EBD275013C4FEA51012B444FEA420220D09E4201EB0C05F1DA002D05EB010C09DBB0469542A3EB060300D9013B4646521B0844E4E756
:4035C000BCF1000FF2DB06F10108F0E7954217D8002D05EB010C49DB98460023ECE7134310D140087B1003F17F5303F50013FA0703EB0E57394648BF40F00040BDE8F08148
:403600003346C2E7411C35D000F001031844E8E75B0003EBD273520096E721F000460643ECD079BB8E46D30AAEF1150E5205002BF9D0DD0221D4002100E001465B00DC02E7
:4036400001F10100F9D5C0F1200422FA04F42343C1EB0E0E82406EE702460B4601F0B6F82A46234600F000FFBDE8F081BCF1000FA9DAB1E701372046B4E720244FF0FF3182
:403680000020E2E702460B4600F0ECFE02460B4601F0C6F9B2E700BF0000F07F000000002DE9F04F21F00046B6F1795F85B00C4692469B4605466BDA01F038FB002800F067
:4036C000E7802A4623462846214601F07FF874A3D3E900238046894601F078F872A3D3E9002300F0C1FE42464B4601F06FF870A3D3E9002300F0B6FE42464B4601F066F84F
:403700006DA3D3E9002300F0AFFE42464B4601F05DF86BA3D3E9002300F0A4FE42464B4601F054F868A3D3E9002300F09DFE42464B4601F04BF8CDE900010022644B4046F9
:40374000494601F043F8DDE9002306460F464046494601F03BF85246804689465B462846214601F033F802460B464046494600F079FE02460B463046394600F073FE0246C0
:403780000B460020534900F06DFE05B0BDE8F08F02460B4601F01AF841A3D3E900238046894601F013F840A3D3E9002300F05CFE42464B4601F00AF83DA3D3E9002300F011
:4037C00051FE42464B4601F001F83BA3D3E9002300F04AFE42464B4600F0F8FF38A3D3E9002300F03FFE42464B4600F0EFFF36A3D3E9002300F038FE4B46424600F0E6FFD8
:40380000354BCDE900019E4297DD344B00229E4238DCA6F5001300202E4916461F4600F021FECDE902010022294B4046494600F0CDFF32463B4600F015FEDDE90023064602
:403840000F464046494600F0C1FF5246804689465B462846214600F0B9FF02460B464046494600F0FFFD02460B463046394600F0F9FD02460B46DDE9020100F0F3FD05B0DE
:40388000BDE8F08F164B0026CDE90223154FCAE71049002005B0BDE8F08F00BFAFF30080D43888BEE9FAA8BDC4B1B4BD9EEE213EAD529C804F7E923E9015CB19A001FA3EB5
:4038C0007751C1166CC1563F4C5555555555A53F0000E03F0000F03F3233D33F0000E93F0000E73F0000D23F2DE9F04F794CADF51D7D1F460B93D31E84FB0354DB17C3EBAA
:40390000A403A69E744C23EAE37554F826406B1C26460994A3EB83037C1E0D95029402EBC3032D1B341904900A91089316D42C44013422AEA79F08E057F8250000F0E0FE6E
:403940000135A542E6E9020108D0002DF4DA013500200021A542E6E90201F6D1099B002B2FDB099B74AADDF8089002EBC30B0DF5E47A029B002BC0F295810B9B0026C3EB61
:40398000090824AB03EBC808049B0027A3F1080524AB03EBC904F5E9022374E8020100F015FF02460B463046394600F05DFD444506460F46EFD1EAE90267DA4509F10109F1
:4039C000D7D1099B10A91D4603F18043023B9B001A1D0A440B440F920E939CAB03EBC503002D53E928672BDD9CAB03EBC504A83C0DF13C0A0DF5E47B0022384B304639469C
:403A000000F0E4FE01F092F900F07AFE0022344B8046894600F0DAFE02460B463046394600F020FD01F082F974E802234AF8040F4946404600F018FD5C4506460F46DBD1ED
:403A4000089C30463946224600F08EFC00224FF07F5306460F4600F0B9FE00F0F9FB0022204B00F0B3FE02460B463046394600F0F9FC0F46064601F059F9814600F040FEF2
:403A800002460B463046394600F0ECFC002C06460F4640F3EE80681E10AB53F82030C4F1180243FA02F101FA02F29B1AC4F1170810AA42F82030894443FA08F8B8F1000FD9
:403AC0003DDD002D09F1010940F3D382002214460FA911E0ABAAAA2A745B00000000703E0000704100002040C3F180700BB108600124013295420DDD51F8043F002CF3D0BB
:403B0000C3F1FF13013203F57F4395420B604FF00104F1DC089B002B0DDD012B00F0B180022B08D16A1E10AB53F8223010A9C3F3150341F82230B8F1020F00F081800022B5
:403B400000233046394601F0A9F8002800F05B82099B05F1FF3B5B4510DC05F1804310AA013B0F9802EB8303002253F80419834242EA0102F9D1002A40F0B180099B10AA4C
:403B8000013B52F82330002B40F071820E9A012352F8041901330029FAD0E9186A1C8A420C914BDC0D990B985118DB0001F180410593A79B05440139E80003EB810A24ABA0
:403BC000D20003EB000B74AB13440193A2F10803069007934FF000095AF8040F00F090FD029BEBE80201002B4FF000064FF000071BDB069B03EB0904079B09EB030824ABCD
:403C00001C449844049BA3F10805F5E9022374E8020100F0DBFD02460B463046394600F023FC444506460F46EFD1019B09F10809E3E802670193059B9945CDD10C9DCCE671
:403C400032463B460020B04900F00CFC06460F46002C3FF474AF089A0020AB4900F084FB02460B463046394600F0FCFB06460F4665E710D16B1E10AA52F823304FEAE3585B
:403C80001CE76A1E10AB53F8223010A9C3F3160341F822304FE700229C4B01F01DF858B980464CE700260027EAE90267DA4509F101097FF45EAE84E6002D09F10109C8BF72
:403CC0004FF002083FF702AF32463B4600208E4900F0C8FB4FF0020806460F462FE7089A10AB53F82B30183ACDF81490CDF8048008926BB90BF18043013B10A901EB830306
:403D000053F804190BF1FF3B183A0029F8D00892089A00207C4900F027FBBBF1000F04460D46C0F2B6814FEACB030DF5E87810AA02EB8B0608EB03090493043609F10807B4
:403D400056F8040D00F0DCFC22462B4600F03EFD002267E902016E4B2046294600F036FDB84504460D46EBD14B46CDF818B09B460DF5987ACDF808A0DDF824A04FF000093B
:403D8000BAF1000FC0F226815DA3D3E90023DFF884815D4600260027002403E0A14510DBF8E90223F5E8020100F010FD02460B463046394600F058FB0134A24506460F46FC
:403DC000ECDA029BABF1080B03EBC903C3E9006772AB5B4509F10109D2D1A69BDDF818B0DDF808A0032B00F28380DFE813F0D100950095000400BBF1000F40F35481049BD7
:403E0000CDF808B053449846D3E90067D34658E9029A32463B464846514600F025FB04460D4602460B464846514600F01BFB32463B4600F019FBC8E9000168E90245C34599
:403E400026462F46E3D1DA46DDF808B0BBF1010F40F32981049B0DF59C7B53449846D3E90067994659E902343046CDE902341A463946234600F0F8FA04460D4602460B46FE
:403E8000DDE9020100F0EEFA32463B4600F0ECFAC9E9000169E90245CB4526462F46E1D100231D4608F1080850AC184678E90223294600F0D9FA444503460D46F5D1019A7C
:403EC000002A00F0D880DAF80440DAF80C200A9FDAF80010DAF8080005F1004504F1004402F100427D613B617C60FA603960B860059B03F007000DF51D7DBDE8F08F00BFB4
:403F000000000040FB21F93F0000F03F0000E03F0000703E885B000000242146049D0835554475E90223204600F09EFA55450446F7D1019B002B50D00A9F01F100450B46D7
:403F4000DAE9000187E83000224600F08BFABBF1000F03460D460DDD01241846FAE90223294600F081FA0134A34503460D46F4DA019A0AB105F10045184629460A9BC3E925
:403F80000201059B03F007000DF51D7DBDE8F08F00231C46049A0832924418467AE90223214600F061FA0BF1FF3BBBF1FF3F03460C46F2D1019A0AB104F100441846214607
:403FC0000A9BC3E90001059B03F007000DF51D7DBDE8F08F00260027F3E626460F4622460A9C0B46DAE90001C4E9006700F03AFABBF1000F03460D46AEDC184629460A9B80
:40400000C3E90201BDE7089B30465A423946CDF81490CDF8048000F0A7F900222C4B06460F4600F059FE002840D00022294B3046394600F0CBFB00F079FE044600F060FBC1
:404040000022234B00F0C2FB0B4602463946304600F008FA00F06AFE089B05F1010B1833089310AB43F8250043F82B4050E6012393E500244EE51846DAE90067DAE9022346
:4040800029460A9DC5E90067C5E90401C5E902232EE7A69B032B3FF62BAFDFE803F0151010020DF5987A00231D4608E73046394600F03CFE10ABAB4643F8250028E60024E5
:4040C00021460DF5987A34E700231C4672E700BF000070410000703E2DE9F04F21F00046B6F1795F85B00C4690469946054604DA00F01CFE002800F085802A462346284630
:40410000214600F063FB06460F4602460B462846214600F05BFB3EA3D3E9002382468B463046394600F052FB3BA3D3E9002300F099F932463B4600F049FB39A3D3E90023C3
:4041400000F092F932463B4600F040FB36A3D3E9002300F087F932463B4600F037FB34A3D3E9002300F080F90E9BCDE900019BB30022334B4046494600F028FBDDE90023DF
:40418000CDE902015046594600F020FB02460B46DDE9020100F066F932463B4600F016FB42464B4600F05EF923A3D3E9002306460F465046594600F009FB02460B4630467D
:4041C000394600F051F902460B462846214600F049F905B0BDE8F08F02460B463046394600F0F4FA14A3D3E9002300F03BF952465B4600F0EBFA2A46234600F035F905B0AD
:40420000BDE8F08F2846214605B0BDE8F08F00BF7CD5CF5A3AD9E53DEB9C2B8AE6E55A3E7DFEB157E31DC73ED561C119A0012A3FA6F810111111813F495555555555C53F66
:404240000000E03F21F00041704700BF00000000C1F30A522DE9F843A2F2FF36132E0B4604460D46884607461CDC002E3FDB3A4A864642FA06F901EA0902024317D034A31F
:40428000D3E9002300F0F0F80022002300F02EFD20B1002D40DB28EA0905002738462946BDE8F883332E06DDB6F5806F2FD020461946BDE8F883A2F213424FF0FF3929FA35
:4042C00002F910EA090FF2D021A3D3E9002300F0CBF80022002300F009FD0028DED0002D20DB454627EA090738462946D8E718A3D3E9002300F0B8F80022002300F0F6FCA7
:404300000028CBD0002D18DB00273D46C6E702460B4600F0A9F8CCE74FF4801343FA06F6B044B8E7142E10D00123C6F1340603FA06F6371928BF9844D3E725F00042074B1E
:40434000224318BF1D460027A8E705F10108C8E79C7500883CE4377EFFFF0F000000F0BF0020704700000000F8B5C1F30A5604460D460B46174606BB21F00043034325D0DD
:4043800000222F4B00F022FA2E4A044697420D460B462ADBC1F30A56363E40F2FE723E44964228DC002E12DD23F0FF4323F4E00343EA065520462946F8BD40F2FF72964290
:4043C000EBD102460B4600F04FF8F8BDF8BD16F1350F1DDA4CF250339F420CDC14A1D1E9000122462B4600F031F811A3D3E9002300F0ECF9F8BD22460FA1D1E900012B4638
:4044000000F024F80CA3D3E9002300F0DFF9F8BD23F0FF4323F4E003363643EA0655204629460022084B00F0D1F9F8BDAFF3008059F3F8C21F6EA5019C7500883CE4377EA0
:4044400000005043B03CFFFF0000903C03F0004321F0004242EA0301704700BF81F0004102E000BF83F0004330B54FEA41044FEA430594EA050F08BF90EA020F1FBF54EAD7
:40448000000C55EA020C7FEA645C7FEA655C00F0E2804FEA5454D4EB5555B8BF6D420CDD2C4480EA020281EA030382EA000083EA010180EA020281EA0303362D88BF30BD05
:4044C00011F0004F4FEA01314FF4801C4CEA113102D0404261EB410113F0004F4FEA03334CEA133302D0524263EB430394EA050F00F0A780A4F10104D5F1200E0DDB02FA76
:404500000EFC22FA05F2801841F1000103FA0EF2801843FA05F359410EE0A5F120050EF1200E012A03FA0EFC28BF4CF0020C43FA05F3C01851EBE37101F0004507D54FF008
:40454000000EDCF1000C7EEB00006EEB0101B1F5801F1BD3B1F5001F0CD349085FEA30004FEA3C0C04F101044FEA445212F5800F80F09A80BCF1004F08BF5FEA500C50F1DC
:40458000000041EB045141EA050130BD5FEA4C0C404141EB010111F4801FA4F10104E9D191F0000F04BF01460020B1FA81F308BF2033A3F10B03B3F120020CDA0C3208DDB0
:4045C00002F1140CC2F10C0201FA0CF021FA02F10CE002F11402D8BFC2F1200C01FA02F120FA0CFCDCBF41EA0C019040E41AA2BF01EB0451294330BD6FEA04041F3C1CDA19
:404600000C340EDC04F11404C4F1200220FA04F001FA02F340EA030021FA04F345EA030130BDC4F10C04C4F1200220FA02F001FA04F340EA0300294630BD21FA04F029466E
:4046400030BD94F0000F83F4801306BF81F480110134013D4EE77FEA645C18BF7FEA655C29D094EA050F08BF90EA020F05D054EA000C04BF1946104630BD91EA030F1EBF48
:404680000021002030BD5FEA545C05D14000494128BF41F0004130BD14F580043CBF01F5801130BD01F0004545F0FE4141F470014FF0000030BD7FEA645C1ABF19461046BE
:4046C0007FEA655C1CBF0B46024650EA013406BF52EA033591EA030F41F4002130BD00BF90F0000F04BF0021704730B54FF4806404F132044FF000054FF0000150E700BF0A
:4047000090F0000F04BF0021704730B54FF4806404F1320410F0004548BF40424FF000013EE700BF42004FEAE2014FEA31014FEA02701FBF12F07F4393F07F4F81F060519D
:40474000704792F0000F14BF93F07F4F704730B54FF4607401F0004521F0004120E700BF50EA010208BF704730B54FF000050AE050EA010208BF704730B511F0004502D541
:40478000404261EB41014FF4806404F132045FEA915C3FF4DCAE4FF003025FEADC0C18BF03325FEADC0C18BF033202EBDC02C2F1200300FA03FC20FA02F001FA03FE40EA1A
:4047C0000E0021FA02F11444C1E600BF70B54FF0FF0C4CF4E06C1CEA11541DBF1CEA135594EA0C0F95EA0C0F00F0DEF82C4481EA030621EA4C5123EA4C5350EA013518BFB7
:4048000052EA033541F4801143F4801338D0A0FB02CE4FF00005E1FB02E506F00042E0FB03E54FF00006E1FB03569CF0000F18BF4EF0010EA4F1FF04B6F5007F64F54074F7
:4048400004D25FEA4E0E6D4146EB060642EAC62141EA55514FEAC52040EA5E504FEACE2EB4F1FD0C88BFBCF5E06F1ED8BEF1004F08BF5FEA500E50F1000041EB045170BD7D
:4048800006F0004646EA010140EA020081EA0301B4EB5C04C2BFD4EB0C0541EA045170BD41F480114FF0000E013C00F3AB8014F1360FDEBF002001F0004170BDC4F1000465
:4048C000203C35DA0C341BDC04F11404C4F1200500FA05F320FA04F001FA05F240EA020001F0004221F0004110EBD37021FA04F642EB06015EEA430E08BF20EAD37070BD2B
:40490000C4F10C04C4F1200500FA04F320FA05F001FA04F240EA020001F0004110EBD37041F100015EEA430E08BF20EAD37070BDC4F1200500FA05F24EEA020E20FA04F31A
:4049400001FA05F243EA020321FA04F001F0004121FA04F220EA020000EBD3705EEA430E08BF20EAD37070BD94F0000F0FD101F00046400041EB010111F4801F08BF013CED
:40498000F7D041EA060195F0000F18BF704703F00046520043EB030313F4801F08BF013DF7D043EA0603704794EA0C0F0CEA135518BF95EA0C0F0CD050EA410618BF52EAE6
:4049C0004306D1D181EA030101F000414FF0000070BD50EA410606BF1046194652EA430619D094EA0C0F02D150EA013613D195EA0C0F05D152EA03361CBF104619460AD145
:404A000081EA030101F0004141F0FE4141F470014FF0000070BD41F0FE4141F4780170BD70B54FF0FF0C4CF4E06C1CEA11541DBF1CEA135594EA0C0F95EA0C0F00F0A7F896
:404A4000A4EB050481EA030E52EA03354FEA013100F088804FEA03334FF0805545EA131343EA12634FEA022245EA111545EA10654FEA00260EF000419D4208BF964244F12A
:404A8000FD0404F5407402D25B084FEA3202B61A65EB03055B084FEA32024FF480104FF4002CB6EB020E75EB030E22BFB61A754640EA0C005B084FEA3202B6EB020E75EBC5
:404AC000030E22BFB61A754640EA5C005B084FEA3202B6EB020E75EB030E22BFB61A754640EA9C005B084FEA3202B6EB020E75EB030E22BFB61A754640EADC0055EA060ED8
:404B000018D04FEA051545EA16754FEA06164FEAC30343EA52734FEAC2025FEA1C1CC0D111F4801F0BD141EA00014FF000004FF0004CB6E711F4801F04BF01430020B4F1A8
:404B4000FD0C88BFBCF5E06F3FF6AFAEB5EB030C04BFB6EB020C5FEA500C50F1000041EB045170BD0EF0004E4EEA113114EB5C04C2BFD4EB0C0541EA045170BD41F48011B5
:404B80004FF0000E013C90E645EA060E8DE60CEA135594EA0C0F08BF95EA0C0F3FF43BAF94EA0C0F0AD150EA01347FF434AF95EA0C0F7FF425AF104619462CE795EA0C0F4E
:404BC00006D152EA03353FF4FDAE1046194622E750EA410618BF52EA43067FF4C5AE50EA41047FF40DAF52EA43057FF4EBAE12E74FF0FF3C06E000BF4FF0010C02E000BFC8
:404C00004FF0010C4DF804CD4FEA410C7FEA6C5C4FEA430C18BF7FEA6C5C1BD001B050EA410C0CBF52EA430C91EA030F02BF90EA020F0020704710F1000F91EA030F58BFEE
:404C4000994208BF90422CBFD8176FEAE37040F0010070474FEA410C7FEA6C5C02D150EA013C07D14FEA430C7FEA6C5CD6D152EA033CD3D05DF8040B704700BF8446104601
:404C800062468C461946634600E000BF01B5FFF7B7FF002848BF10F1000F01BD4DF808EDFFF7F4FF0CBF012000205DF808FB00BF4DF808EDFFF7EAFF34BF012000205DF88C
:404CC00008FB00BF4DF808EDFFF7E0FF94BF012000205DF808FB00BF4DF808EDFFF7CEFF94BF012000205DF808FB00BF4DF808EDFFF7C4FF34BF012000205DF808FB00BF52
:404D00004FEA410C7FEA6C5C02D150EA013C0AD14FEA430C7FEA6C5C02D152EA033C02D14FF0000070474FF0010070474FEA410212F5001215D211D56FF47873B3EB6252CE
:404D400012D94FEAC12343F0004343EA505311F0004F23FA02F018BF404270474FF00000704750EA013005D111F0004008BF6FF0004070474FF00000704700BF014B186860
:404D8000704700BF7881FF1F0E4B70B51E460E4C0025E41AA410A54204D056F8253098470135F8E700F02CFF084B094C1E46E41AA4100025A54204D056F825309847013590
:404DC000F8E770BD0C5C00000C5C00000C5C0000145C000010B5431E0A44914204D011F8014B03F8014FF8E710BD03460244934202D003F8011BFAE7704700000EB400B53C
:404E00004FF402719CB0ADF814106FF00041049107914FF6FF711DAB02900690084853F8042BADF81610006802A9019300F064F8029B00221A701CB05DF804EB03B07047EA
:404E40007881FF1F2DE9F0478E6882469E420C46914698463ED88A8912F4906F3AD02568096902236F1A656905EB450595FBF3F57B1C43449D4238BF1D4653050FD52946C2
:404E800000F040FB064698B13A462169FFF7A2FFA38923F4906343F08003A38113E02A4600F08EFB064670B92169504600F0DEFA0C23CAF80030A3894FF0FF3043F0400317
:404EC000A381BDE8F08726613E44266046466561ED1BA560464528BF464649463246206800F0A8FAA36800209B1BA36023681E442660BDE8F08700002DE9F04F9DB00393BA
:404F00008B8980461C060D4616460DD50B695BB9402100F0F7FA2860286118B90C23C8F80030CDE040236B610023099320238DF82930DFF89CB130238DF82A3037463C4608
:404F400014F8013B1BB9B7EB060910D003E0252BF9D02746F3E74B46324629464046FFF771FF013000F0A780099B4B4409933B78002B00F0A08000234FF0FF320493079314
:404F8000059206938DF853301A930126052221784E4800F041FA671C049B38B14B4A3C46801A06FA00F018430490EFE7D90644BF20228DF853201A0744BF2B228DF853206E
:404FC00022782A2A03D0079A00210A200BE0039A111D12680391002A10DA524243F00200079204900BE027463B780134303B092B03D800FB02320121F5E701B107923B7851
:405000002E2B1ED17B782A2B0AD1039B02371A1D1B680392002BB8BF4FF0FF33059310E0002319460593781C0A2407463A780130303A092A03D804FB01210123F5E703B1EB
:40504000059103223978224800F0E6F940B14023CBEB000003FA00F0049B013718430490397806221B487E1C8DF8281000F0D4F988B1194B33B9039B073323F007030833C5
:40508000039314E003AB00932A46144B04A94046AFF3008007E003AB00932A460F4B04A9404600F093F8B0F1FF3F824603D0099B5344099342E7AB895B0601D4099801E0FB
:4050C0004FF0FF301DB0BDE8F08F00BFCA5B0000D05B0000D45B000000000000454E00002DE9F04791461F460A698B6806469342B8BF1346C9F8003091F843200C46DDF89C
:40510000208012B10133C9F800302368990642BFD9F800300233C9F80030256815F0060510D104F1190A07E00123524639463046C04701301AD00135E368D9F800209B1A1E
:405140009D42F1DB94F843302268003318BF012392060FD5E118302081F843005A1C94F845102244023382F8431003E04FF0FF30BDE8F08704F1430239463046C0470130B9
:40518000F4D02268D9F80050E36802F00602042A08BF5D1B2269A3680CBF25EAE57500259342C4BF9B1AED184FF000091A344D4509D00123224639463046C0470130D5D06E
:4051C00009F10109F3E70020BDE8F0872DE9F04317460A7E85B06E2A984606460C460C9B01F1430E00F0AE8011D8632A22D009D8002A00F0BB80582A40F0CA8081F845209E
:40520000834955E0642A1ED0692A1CD0C0E0732A00F0B08009D86F2A2ED0702A40F0B8800A6842F020020A603EE0752A24D0782A3AD0ADE01A6801F14205111D19601368A4
:4052400084F84230A8E021681A6811F0800F02D0111D196008E011F0400F02F10401196002D0B2F9003000E01368002B3CDA2D225B4284F8432037E021681A6811F0800F35
:4052800002D0111D196007E011F0400F02F10401196001D0138800E01368227E5C496F2A14BF0A2208221BE078225A4984F845202268186812F0800F00F104051D6003D100
:4052C000550601D5038800E00368D00744BF42F0200222601BB9226822F0200222601022002084F8430001E049490A226568002DA56008DB206820F0040020602BB9002D24
:405300007DD175460CE0002B79D07546B3FBF2F002FB1033CB5C05F8013D03460028F5D1082A0BD12368DA0708D5236962689A42DEBF302305F8013C05F1FF35C5EB0E0342
:4053400023612EE008681A6810F0800F496903D0101D1860136808E010F0400F02F104001860136801D0198000E0196000232361754616E01A68111D1960156800216268A8
:40538000284600F049F808B1401B6060636804E004F1420584F8422001232361002384F84330CDF800803B4603AA21463046FFF797FE013002D14FF0FF3026E023692A46A8
:4053C00039463046C0470130F5D023689B0710D5002504F1190907E001234A4639463046C0470130E7D00135E368039A9B1A9D42F2DBE068039B9842B8BF184605E00B7872
:4054000004F1420584F842308AE705B0BDE8F083DB5B0000EC5B000010B5C9B202449042034605D01C7801308C42F8D1184610BD002010BD884210B501EB020301D8421EE4
:405440000BE09842FBD28118D21AD34204D013F8014D01F8014DF8E710BD994204D011F8014B02F8014FF8E710BD000038B50546002944D051F8043C0C1F002BB8BFE4181F
:4054800000F0D4F81E4A1368114613B96360146030E0A3420DD92268A018834201BF18685B681218226063600C6023E0A24203D813465A68002AF9D118681918A1420BD1F2
:4054C0002168014458188242196013D110685268014419605A600DE002D90C232B6009E021686018824201BF106852680918216062605C602846BDE8384000F098B838BDA1
:40550000B881FF1F70B5CD1C25F0030508350C2D38BF0C25002D064601DBA94202D90C23336046E000F082F8234B1C681A462146A1B10B685B1B0ED40B2B03D90B60CC18A7
:40554000CD501EE08C420BBF63684B681360636018BF0C4615E00C464968E9E7174C23681BB9304600F052F820602946304600F04DF8431C18D0C41C24F00304A0420DD1C5
:405580002560304600F053F804F10B00231D20F00700C31A0ED05A42E25070BD211A304600F034F80130EBD10C233360304600F03EF8002070BD00BFB881FF1FB481FF1FDA
:4055C000F8B5074615460E4621B91146BDE8F840FFF798BF1AB9FFF749FF2846F8BD00F027F885420ED929463846FFF78BFF044650B131462A46FFF7EDFB31463846FFF74E
:4056000035FF01E03046F8BD2046F8BD38B5064C0023054608462360FBF78EFD431C02D1236803B12B6038BDE886FF1F7047704751F8040C0028BEBF091851F8043CC018A9
:4056400004387047000000005458202D2052656164790D0A00000000300D0A00310D0A00320D0A00330D0A00340D0A00350D0A00360D0A00370D0A00380D0A00390D0A001F
:405680002A0D0A00230D0A002D2D2D2D2D3E2053616D706C657320496E69740D0A00000025640D0A000000002D2D2D2D2D3E2053616D706C657320456E640D0A000000008E
:4056C00044756D6D79204672657175656E6379202E2E2E0D0A0000004C6F3D2564487A00202D200048693D2564487A0D0A0000004465636F6465643D310D0A004465636F63
:405700006465643D320D0A004465636F6465643D330D0A004465636F6465643D340D0A004465636F6465643D350D0A004465636F6465643D360D0A004465636F6465643D0F
:40574000370D0A004465636F6465643D380D0A004465636F6465643D390D0A004465636F6465643D2A0D0A004465636F6465643D300D0A004465636F6465643D230D0A0001
:405780004465636F6465643D44756D6D790D0A00035B00402443004040000000005100401000205100401000405100403000000001400010001401400006801A01408001F1
:4057C00000400140000A004C01400002005001402000000060520040F40300480600001A0140FC030048800080818283858687898A8B8C8E8F90929394959798999A9B9C2F
:405800009E9FA0A1A2A3A4A5A6A7A8A9AAABACADAEAFB0B0B1B2B3B4B4B5B6B6B7B7B8B9B9BABABBBBBBBCBCBCBDBDBDBDBEBEBEBEBEBEBEBEBEBEBEBEBEBDBDBDBDBCBC3D
:40584000BCBBBBBBBABAB9B9B8B7B7B6B6B5B4B4B3B2B1B0B0AFAEADACABAAA9A8A7A6A5A4A3A2A1A09F9E9C9B9A99989795949392908F8E8C8B8A89878685838281807EA7
:405880007D7C7A79787675747371706F6D6C6B6A68676665646361605F5E5D5C5B5A595857565554535251504F4F4E4D4C4B4B4A494948484746464545444444434343425F
:4058C00042424241414141414141414141414141424242424343434444444545464647484849494A4B4B4C4D4E4F4F505152535455565758595A5B5C5D5E5F6061636465AF
:405900006667686A6B6C6D6F70717374757678797A7C7D7E808080808081838587898B8D8F91939597989A9C9E9FA1A3A4A6A7A9AAACADAEB0B1B2B3B4B5B6B7B8B9BABA55
:40594000BBBCBCBCBDBDBEBEBEBEBEBEBEBEBEBDBDBCBCBCBBBABAB9B8B7B6B5B4B3B2B1B0AEADACAAA9A7A6A4A3A19F9E9C9A98979593918F8D8B8987858381807E7C7A08
:4059800078767472706E6C6A6867656361605E5C5B595856555352514F4E4D4C4B4A4948474645454443434342424141414141414141414242434343444545464748494AD0
:4059C0004B4C4D4E4F515253555658595B5C5E6061636567686A6C6E70727476787A7C7E808080807371727400000000FB21F93FFB2109407CD91240FB2119407A6A1F4089
:405A00007CD92240BBFD2540FB2129403A462C407A6A2F405C4731407CD932409C6B3440BBFD3540DB8F3740FB2139401BB43A403A463C405AD83D407A6A3F404C7E404034
:405A40005C4741406C1042407CD942408CA243409C6B4440AC344540BBFD4540CBC64640DB8F4740EB584840FB21494083F9A200444E6E00FC291500D1572700DD34F5002A
:405A800062DBC0003C999500419043006351FE00BBDEAB00B761C5003A6E2400D24D42004906E00009EA2E001C92D100EB1DFE0029B11C00E83EA700F535820044BB2E00FA
:405AC0009CE98400B4267000417E5F00D6913900538339009CF439008B5F840028F9BD00F81F3B00DEFF97000F980500112FEF000A5A8B006D1F6D00CF7E360009CB27006A
:405B0000464FB7009E663F002DEA5F00BA277500E5EBC7003D7BF100F739070092528A00FB6BEA001FB15F00085D8D00300356007BFC4600F0AB6B0020BCCF0036F49A00F9
:405B4000E3A91D005E619100081BE60085996500A0145F008D40680080D8FF0027734D0006063100CA561500C9A873007BE260006B8CC00002000000030000000400000047
:405B8000060000000000000000000040FB21F93F000000002D44743E000000809846F83C0000006051CC783B00000080831BF0390000004020257A38000000802282E336AB
:405BC000000000001DF369354300232D302B2000686C4C006566674546470030313233343536373839414243444546003031323334353637383961626364656600000000C1
:405C0000F8B500BFF8BC08BC9E4670474D00000021120000F8B500BFF8BC08BC9E46704729000000385C0000C880FF1FB80000007005000000000000000000009600000000
:405C4000B90200000203000054030000AD03000096000000B904000038050000C5050000F086FF1F01FF0000807F00000F00000000366E01C05D0000180000000000E02E79
:405C8000FFFFFFFF010000000000000000000000000000000000000000000000000000000000000000000000C85B00000000000000000000000000000000000000000000C4
:405CC000000000000000000000000000000000000000000000000000000000000000000000000000000000001881FF1F0000000000000000000000000000000000000000ED
:405D00000000000000000000000000000000000000000000000000000000000000000000000000000000000000000000000000000000000000000000000000000000000063
:405D40000000000000000000000000000000000000000000000000000000000000000000000000000000000000000000000000000000000000000000000000000000000023
:405D800000000000000000000000000000000000000000000000000000000000000000000000000000000000000000000000000000000000000000000000000000000000E3
:405DC00000000000000000000000000000000000000000000000000000000000000000000000000000000000000000000000000000000000000000000000000000000000A3
:020000040003F7
:0200000480007A
:40000000025A0040016400400265004001050140020701405D0801403C090140020B0140040C0140010D014002150140011701403E180140361901400F1A0140421B01404D
:4000400006400140034101400742014004430140024401400145014006460140064701400948014007490140084C01400A4D0140085001400151014097019F01880F88382E
:400080008972E608EA80EC02000A02040302060507020E081003120413021C031E0420032102220C25012D0231023501360F3A803F114042410545EE47CB483349FF4AFFA7
:4000C0004BFF4EF04F44500C5401580459045A045B045C035D335F0166C06A406B02800C8203841085148B038C018D108E0E8FAC900192069B209D099FD0A1DCA20CA3227C
:40010000A603A910AA08AB40AD0CAF71B00FB1E0B210B51FBA02BB02BE04C003C704C9FFCA07CBFFCC40CD20CEF0CF05D008D804D904DA04DC33DD03DF01E040E1A8E24041
:40014000E320000401020202054107100B800D010F02100812A01640190B1F40200421112202278829812B082C202D802F40314032A03310350139203A443B803F06410481
:40018000464047104A204B044C204D814E0250085308560457015D115F888D089340A610A780AF40B210C0BDC298C41ECADDCC8CCECED0A2D210D6F0EA808780B440380262
:4001C0003E0158045F011C40E606EC81E4A005021004120113011E0521012A022D01300232043601370339803E445418580459045B045C325D305F018101841C8508866042
:40020000880C89088D068E0C904A91069211940C95019A0C9B029D08A104A20CA473A873A901AC25AD01AE92B00CB101B270B306B403B508B680B908BF05D602D713D80436
:40024000D904DB04DC33DD30DF010188030809290D800E80100211151404196A1A101EA01F80213422012680280229912B082F42310832623302350139173B803F045A0203
:400280005D02670969146A8070807104730888058D048F4093C495089901A222A690A780B110B301C007C29EC44FCA9DCC8FCE4FD681D830E4A088048A028F0192069A0140
:4002C000A601B201B402B501B604BE54D804D904DC10DF0100A40340070409010A120C010F081082121413081508184519111B041D801F2420202109222123052704280805
:4003000029453080311832013A153B843F40404941184910510452018002822083208580884289108B4091209210934095029709980199449B489C029D10A080A101A40250
:40034000A508A980B521C04FC25DC42FCA0FCC0FCE1FD00FD204EC813B023C023F404380CEE0D0109742A401A780022087809742A401A780C010E6109742AE20B001EC40E5
:400380007C20DE019C2033804640B420CC08D001E80232408D029E40A780CC08E00206402380260127088A408B809742C020C8E0830187409742AA01B308E660EC804204B7
:4003C00043808A04968099029E40A780E4041080750288809902AA40B240C408DE04E601EC01000801010C080D01100E11011C0E1D0110AA80800000400000000C0000203C
:40040000931C0C429F08000000041300021C4041035F2000004700180F10900008000020041800001C008343010040041C5880000F1F60200800202A00004040620304008A
:40044000010000CE30FFFFFF62A0F0410C000000000000000404040033030001000000000000400200103010001010120000000000000000000000000000000080004084F6
:4004800080008000000000000002000000000000000B0B00000000000000000000000100950018010000000000000000000000000000000000000000000000000000000075
:4004C00000000000000000000000000000000000000000000000000000000000000000000000000000000000000000000000000000000000000000000000000000000000FC
:4005000000000000000000000000000000000000000000000000000000000000000000000000000000000000000000000000000000000000000000000000000000000000BB
:40054000000000000000000000000000000000000000000000000000000000000000000000000000000000000000000000000000000000000000000000000000000000007B
:40058000000000000000000000000000000000000000000000000000000000000000000000000000000000000000000000000000000000000000000000000000000000003B
:0200000490006A
:0400000000004005B7
:0200000490105A
:04000000BC90ACAF55
:0200000490303A
:0200000037E2E5
:0200000490402A
:4000000000000000000000000000000000000000000000000000000000000000000000000000000000000000000000000000000000000000000000000000000000000000C0
:400040000000000000000000000000000000000000000000000000000000000000000000000000000000000000000000000000000000000000000000000000000000000080
:400080000000000000000000000000000000000000000000000000000000000000000000000000000000000000000000000000000000000000000000000000000000000040
:4000C0000000000000000000000000000000000000000000000000000000000000000000000000000000000000000000000000000000000000000000000000000000000000
:0200000490501A
:0C00000000012E16106900012E3B484B39
:00000001FF