:400000000080002011000000050B0000050B000080B500AF024A034B1B68136000F0A4FDBC760040FA46004010B5054C237833B9044B13B10448AFF300800123237010BD56
:400040005881FF1F00000000343D0000084B10B51BB108490848AFF300800848036803B910BD074B002BFBD0BDE81040184700BF000000005C81FF1F343D0000C880FF1F00
:400080000000000080B500AF012000F065FF0346002B40D000F086FF03469AB21F4B1A801F4B1B78002B0DD01C4B1B881A461D491D4803F01BFA1C4801F080FE1B4B0022B8
:4000C0001A7028E0194B1B78002B0DD0134B1B881A461449144803F009FA134801F06EFE124B00221A7016E0114B1B78002B12D0104B1B781A4610490B4803F0F7F90A487D
:4001000001F05CFE0B4B1B780133DAB2094B1A70074B00221A7000BF80BD00BFCE81FF1FCC81FF1F383D0000BC81FF1FD081FF1FCD81FF1FD181FF1F403D000080B500AFE0
:4001400002F0CCF802F0A6FA02F0B6F902F090FB002001F075FF002001F090FF002001F0ABFF002001F0C6FF00BF80BD80B5ADF6A87D00AF00F0C8FE01F082FD02F01EF88D
:4001800002F0ACF802F0F6F902F084FA02F004F902F092F902F000F902F08EF9DA4B00221A70DA4B00221A70D94B00221A70D94B00221A7000F0C0FE01F0B0FED64801F0EA
:4001C000F1FE62B601F0BEFD034687F8A33F97F8A33F233B552B00F2DB8101A252F823F0990400009105000091050000910500009105000091050000910500007904000067
:40020000910500009105000091050000910500009105000039030000590300007903000099030000B9030000D9030000F9030000190400003904000059040000910500003F
:40024000910500009105000091050000910500009105000091050000910500009105000091050000910500009105000091050000910500009105000091050000910500001E
:400280009105000091050000910500009105000091050000910500009105000091050000B904000091050000910500009105000091050000850500009105000091050000C3
:4002C000910500009105000091050000910500009105000091050000910500009105000091050000910500009105000091050000910500009105000091050000910500009E
:400300009105000091050000910500009105000091050000910500009105000091050000B90400009105000091050000910500009105000085050000784801F03FFDFFF78B
:40034000FDFE012001F07CFE012001F0D3FE01F035FF02F0FDF91CE1714801F02FFDFFF7EDFE002001F06CFE002001F0A5FE01F025FF02F011F80CE16A4801F01FFDFFF771
:40038000DDFE012001F05CFE002001F095FE01F015FF02F001F8FCE0634801F00FFDFFF7CDFE002001F06AFE002001F085FE02F0E1F801F0F1FFECE05C4801F0FFFCFFF712
:4003C000BDFE002001F03CFE012001F075FE01F0F5FE01F0E1FFDCE0554801F0EFFCFFF7ADFE012001F02CFE012001F065FE01F0E5FE01F0D1FFCCE04E4801F0DFFCFFF79D
:400400009DFE002001F03AFE012001F055FE02F0B1F801F0C1FFBCE0474801F0CFFCFFF78DFE002001F00CFE002001F063FE01F0C5FE02F08DF9ACE0404801F0BFFCFFF750
:400440007DFE012001F0FCFD002001F053FE01F0B5FE02F07DF99CE0394801F0AFFCFFF76DFE002001F00AFE002001F043FE02F081F802F06DF98CE0324801F09FFCFFF7F8
:400480005DFE002001F0DCFD012001F033FE01F095FE02F05DF97CE02B4801F08FFCFFF74DFE002001F0EAFD012001F023FE02F061F802F04DF96CE00023A7F8A63F1AE0C1
:4004C000012000F049FD0346002B14D000F06AFD03469AB21D4B1A80B7F9A62F1B4B1B8819B23B4623F81210B7F9A63F9BB201339BB2A7F8A63FB7F9A63FB3F5FA6FDFDB01
:400500000023A7F8A43F37E0CC81FF1FD081FF1FCD81FF1FD181FF1F85000000483D00004C3D0000503D0000543D0000583D00005C3D0000603D0000643D0000683D000087
:400540006C3D0000703D0000743D0000CE81FF1FB7F9A42F3B4633F912301A460D490E4802F0C4FF0C4801F029FCB7F9A43F9BB201339BB2A7F8A43FB7F9A43FB3F5FA6FE3
:40058000E6DB06E0054801F019FCFFF7D7FD00E000BF17E6783D0000BC81FF1F803D000080B582B000AF786039603A680021786802F093FF00BF0837BD4680BD80B584B0B9
:4005C00000AFF860B9607A607A68B968F86802F079FF00BF1037BD4680BD00BF80B483B000AF0346FB71FEE780B487B000AF7860396000233B6100237B6127E07B699B00B0
:400600007A6813441B68BB60BB68FB73BB6823F0FF03BB6014E03B695B003A6813441B781A46BB68134419463B695B003A6813445B780B703B6901333B61FB7B013BFB736D
:40064000FB7B002BE7D17B6901337B617B69222BD4D900BF1C37BD4680BC704780B582B000AF4E4B00221A804D4B50221A704D4B17221A804C4B18221A704C4B19221A8016
:400680004B4B18221A704B4B1D221A804A4B18221A704A4B1D221A80494B18221A70494B1D221A80484B18221A70484B1D221A80474B18221A70042246494748FFF77EFF15
:4006C000464B02221A704FF0402308221A70444B03221A70434B444A1278D2B21A70434B08221A80424B41F251221A800023FB7019237B6014E0FB785B00DAB23D4B1B7846
:40070000DBB203F00103DBB21343DBB203F00303FB704FF4F07002F07FFE7B68013B7B607B68002B02D0FB78032BE4D17B68002B02D10320FFF752FF2F4B4FF480721A808B
:400740002D4B07221A702D4B00221A702C4B48221A70294B00221A702A4B02221A702A4B04221A70294A294B1B78DBB243F07F03DBB21370264A264B1B78DBB243F0010353
:40078000DBB21370234A234B1B78DBB263F07F03DBB2137000BF0837BD4680BD80400040824000408440004086400040884000408A4000408C4000408E40004090400040C3
:4007C000924000409440004096400040984000409A400040A0050048004100400043004000420040A1460040080100492242004020420040254200400440004006400040A8
:4008000008400040014000400B400040A2430040A1430040A043004080B483B000AF144B1B78FB71134AFB7903F00703DBB21370114AFB791B09DBB21370104B02221A705A
:400840000F4B02221A700F4B10221A700E4B10221A700E4B12221A700D4B12221A700D4B44221A7000BF0C37BD4680BC704700BFCF0100496E5800406F580040805A0040D9
:40088000885A0040905A0040985A0040005B0040585B00407658004080B483B000AF0346FB71FB79012B0ED8FB79094A52F82330FA79074951F822201178FA790548825CF4
:4008C0000A43D2B21A7000BF0C37BD4680BC7047943D00009C3D000080B483B000AF0346FB71FB79012B10D8FB790A4A52F82330FA79084951F822201178FA790648825CCC
:40090000D243D2B20A40D2B21A7000BF0C37BD4680BC7047943D00009C3D000080B586B000AF72B65C4A5C4B1B78DBB243F00403DBB213700023FB7513E0FA7D13465B007A
:4009400013445B00554A13443B613B691A683B699B889BB219461046FFF722FEFB7D0133FB75FB7D082BE8D90023FB751CE0FA7D13469B0013445B00494A1344FB60FB6852
:400980001B68BB60FB685B687B60FB681A7A5B7A1B0213437B807B881A467968B868FFF70DFEFB7D0133FB75FB7D002BDFD03D494FF09040FFF718FE3B4B0A221A70042189
:4009C0003A48FFF7EDFD04213948FFF7E9FD04213848FFF7E5FD04213748FFF7E1FD04213648FFF7DDFD04213548FFF7D9FD04213448FFF7D5FD04213348FFF7D1FD334AF3
:400A0000324B1B78DBB243F00203DBB21370304A2F4B1B78DBB243F00203DBB213702D4A2C4B1B78DBB243F04003DBB213702A4A294B1B78DBB243F01003DBB213700A2257
:400A400026492748FFF7BAFD0A2226492648FFF7B5FD0A2225492648FFF7B0FD254A254B1B78DBB243F00803DBB21370224B60221A70FFF7F3FD204B80221A701F4B0122BF
:400A80001A70FFF7C9FE0E2212491D48FFF796FD00BF1837BD4680BDE8460040A03D0000D83D00008C000048835800400076004008760040107600401876004020760040FB
:400AC0002876004030760040387600400350014013500140A0430040C24300407C0500480051004088050048C0510040940500481051004022430040004800400400084029
:400B0000B043004080B500AF02F0B0FC03461B680C2B00D1FEE7FEE780B584B000AF78600F4B1A687B6813441A460E4BD31A802B09DC0B4B1B68FB60094B1A687B681344E2
:400B4000074A136007E002F091FC02460C2313604FF0FF33FB60FB6818461037BD4680BDCC80FF1FE081FF1F80B586B000AF224B7B61224B3B61204B7B6135E03B691B6875
:400B8000FB603B695B68BB603B699B683B6000237B600CE0FB681A68BB681A60BB680433BB60FB680433FB607B6804337B607A683B689A42EED13B69DB683B6000237B60AB
:400BC00008E0BB6800221A60BB680433BB607B6804337B607A683B689A42F2D13B6910333B617B69013B7B617B69002BC6D102F043FCFFF7BBFAFEE701000000DC540000A9
:400C000080B582B000AF194B194A1A60194A194B1B6843F40073136000237B600FE07B68032B04D8144A7B6852F8233000E0134B13497A6841F822307B6801337B607B6862
:400C40002F2BECD90F4B1B78DAB20F4B1A700F4B0B4A1A60FFF762FE00F08AFD0C4B00221A6000BF0837BD4680BD00BF0CED00E00004FA0514ED00E000000000050B000045
:400C80000080FF1FBC760040C480FF1F08ED00E0C080FF1F80B582B002AF324B01221A70314B00221A70102000F054FC102000F037FD07211D2000F0BFFF2C4B04221A7027
:400CC0002B4B00221A702B4B00221A702A4A2A4B1B78DBB243F01803DBB21370274B00221A70274B00221A70264B00221A70264B0A221A70254B00221A70254B00221A7091
:400D0000244B12221A70244B13221A70234B00221A70234B14221A700123009308234FF4004248F6B651002000F02CFA1D4A0D4B1B78DBB2013B1C499B000B449B7813702E
:400D40001A4A084B1B78DBB2013B174931F823301380044B1B78DBB2184600F061F900BFBD4680BDD080FF1F7481FF1F96580040975800409E580040075B004093580040FA
:400D8000885B0040895B004080580040815800408358004088580040895800408D580040014E00400E4E00407C81FF1F0C4E004080B582B000AF02F04EFB0346FB71444BC5
:400DC0001B78BB71434A434B1B78DBB243F00103DBB213703F4A3F4B1B78DBB243F01003DBB213703C4A3C4B1B78DBB243F00103DBB21370384A384B1B78DBB243F010034A
:400E0000DBB21370354A354B1B78DBB243F00203DBB21370324A324B1B78DBB243F00203DBB213702F4A2F4B1B78DBB243F00303DBB21370032000F0C3FE284A274B1B7833
:400E4000DBB223F00203DBB21370254A244B1B78DBB223F00203DBB21370234A224B1B78DBB243F00603DBB21370204B7A221A701F4A1F4B1B78DBB243F00103DBB2137086
:400E80001C4A1C4B1B78DBB243F00103DBB21370194A194B1B78DBB243F00103DBB21370164A164B1B78DBB243F00103DBB21370134B4FF000521A60124B4FF000521A60D7
:400EC000FB79184602F0CBFA00BF0837BD4680BDD080FF1FAA430040BA430040F8460040F9460040915800407758004082580040A1430040B1430040A2430040B243004052
:400F000080E200E000E100E080B500AF084B1B78002B09D1074B1B78DBB2002B01D1FFF7B9FE034B01221A70FFF742FF00BF80BD7681FF1F7781FF1F80B400AF054A054BE8
:400F40001B78DBB243F00103DBB2137000BFBD4680BC7047004E004080B485B000AF0346FB710D4B1B78DBB2002B03D00B4B1B78FB7305E00A4B1B78DBB203F00103FB736E
:400F8000FB7B012B02D0FB79002BEAD0FB7B18461437BD4680BC70477581FF1F7481FF1F014E004080B483B000AF174B1B78DBB203F003037B717B79012B03D8134B1B8820
:400FC000FB8011E0114B1B78DBB2FB80104B1B78DBB29BB21B029AB2FB881343FB807B79032B01D10B4B1B780B4B1B78DBB2002B02D00A4B00221A70B7F9063018460C3731
:40100000BD4680BC704700BF144E0040104E0040114E0040124E00407581FF1F7481FF1F80B582B000AF0346FB71384B00221A70FB79012B65D1364B38221A70354B04227A
:401040001A70354B06221A70344B00221A70344B00221A70334B0F221A70334B00221A70324B00221A70324B00221A70314B01221A70314B14221A70304B09221A70304B99
:401080000A221A702F4B00221A702F4B11221A702E4B12221A702E4B01221A702D4B00221A702D4B00221A702C4B0A221A702C4B43221A70442000F01DF92A4B58221A7002
:4010C000294B00221A70294B05221A70284B02221A70284B00221A70274B00221A70002000F066F9254BFA221A600121052000F073F90121952000F055FA21491D2000F088
:4011000073FD00BF0837BD4680BD00BF7581FF1F004E0040024E0040034E0040044E0040054E0040064E0040084E0040094E00400A4E0040144E0040845800408558004026
:4011400086580040875800408A5800408B5800408C5800408E5800408F580040905800409158004094580040955800409A5800409B5800409C5800409D580040D481FF1F91
:401180007113000090B587B000AF0446084611461A462346FB710346BB800B467B801346BB7197F82830002B00F08B8097F82830012B00F28680FB79013B092B4AD801A246
:4011C00052F823F0ED1100005512000055120000ED11000055120000551200000712000021120000551200003B120000BB790F2B04D9374B1B78DBB2FB752EE0354B1B787C
:40120000DBB2FB7529E0BB790F2B04D9324B1B78DBB2FB7521E0314B1B78DBB2FB751CE0BB790F2B04D92E4B1B78DBB2FB7514E02C4B1B78DBB2FB750FE0BB790F2B04D9BE
:40124000294B1B78DBB2FB7507E0284B1B78DBB2FB7502E00023FB7500BFBA8897F917305B0113443B617B883A6902FB03F3FB60FB68DB0BBB82BB790D2B12D8BA8ABB799C
:40128000C3F10E0342FA03F3BB8297F82830013BBA790132D1B2164A9B0013440A469A7007E097F82830013B114A9B0013440F229A7097F82830013B0D49BA8A21F8232097
:4012C00002E0002000F070FC00BF1C37BD4690BD180100491C010049190100491D0100491A0100491E0100491B0100491F0100497C81FF1F80B584B000AF0346FB7102F028
:40130000AAF80346FB73174A164B1B78DBB243F00303DBB21370144A134B1B78DBB243F00303DBB21370114AFB791370032000F047FC0C4A0B4B1B78DBB223F00303DBB2EA
:401340001370094A084B1B78DBB223F00303DBB21370FB7B184602F082F800BF1037BD4680BD00BFF8460040F94600409258004080B400AF00BFBD4680BC704780B582B090
:4013800000AF0023FB7106E0FB791846FFF7A4FAFB790133FB71FB79012BF5D9034BFF221A7000BF0837BD4680BD00BFD180FF1F80B582B000AF0346FB71FFF7DFFFFB79A9
:4013C0001846FFF769FA034AFB79137000BF0837BD4680BDD180FF1F80B584B000AF03460A46FB8013467B7100F0CEF80346FB7300F0A4F80346BB81FA88BB899A4200F0C4
:401400008880464B1B78DBB203F00103FB72FB7B002B20D1BB89002B02D0FB88002B1AD1BB89002B0BD13E4AFB8813803D4A3D4B1B78DBB223F04003DBB2137069E0394AD9
:40144000384B1B78DBB243F04003DBB21370344AFB8813805DE0FB7A002B33D0324B00221A70324B01221A70314B00221A70314A304B1B78DBB203F07F03DBB21370294B45
:401480001B78DBB203F00803002B02D0FB88002B18D1294ABB891380234B07221A7000BF214B1B78DBB203F00103002BF8D11B4A1A4B1B78DBB223F00103DBB213701A4B63
:4014C00000221A70154B1B78DBB203F00103002B13D0194AFB881380134A7B79002B01D0032300E00123137000BF0F4B1B78DBB203F00103002BF8D10BE0094AFB881380D0
:401500000649064B1B78DAB2FB7A1343DBB20B70FFE700BF1037BD4680BD00BFA24300408040004082400040014000401040004014400040084000400240004080B400AF75
:40154000034B1B889BB21846BD4680BC704700BF8040004080B483B000AF0346FB710949084B1B78DBB25AB297F9073023F007035BB213435BB2DBB20B7000BF0C37BD461D
:4015800080BC70478240004080B400AF044B1B78DBB203F00703DBB21846BD4680BC70478240004080B584B000AF03460A46FB8013467B7100F0CEF80346FB7300F0A4F89A
:4015C0000346BB81FA88BB899A4200F08880464B1B78DBB203F00103FB72FB7B002B20D1BB89002B02D0FB88002B1AD1BB89002B0BD13E4AFB8813803D4A3D4B1B78DBB233
:4016000023F04003DBB2137069E0394A384B1B78DBB243F04003DBB21370344AFB8813805DE0FB7A002B33D0324B00221A70324B01221A70314B00221A70314A304B1B78D7
:40164000DBB203F07F03DBB21370294B1B78DBB203F00803002B02D0FB88002B18D1294ABB891380234B07221A7000BF214B1B78DBB203F00103002BF8D11B4A1A4B1B7834
:40168000DBB223F00103DBB213701A4B00221A70154B1B78DBB203F00103002B13D0194AFB881380134A7B79002B01D0032300E00123137000BF0F4B1B78DBB203F001033D
:4016C000002BF8D10BE0094AFB8813800649064B1B78DAB2FB7A1343DBB20B70FFE700BF1037BD4680BD00BFA1430040004100400241004001400040144000401040004058
:40170000084000400240004080B400AF034B1B889BB21846BD4680BC704700BF0041004080B483B000AF0346FB710949084B1B78DBB25AB297F9073023F007035BB2134307
:401740005BB2DBB20B7000BF0C37BD4680BC70470241004080B400AF044B1B78DBB203F00703DBB21846BD4680BC70470241004080B483B000AF134B7F221A70124B802288
:401780001A707F23FB710CE0FB79DB0003F1804303F5F043FA79013AD2B21A70FB79013BFB71FB79002BEFD1FB79DB0003F1804303F5F04300221A7000BF0C37BD4680BC1F
:4017C000704700BFD580FF1FD480FF1F80B485B000AF03460A46FB711346BB710123FB60FB79172B2FD8BB79002B0ED0FB791A01184B1344FA791101164A0A441278D2B2E9
:4018000042F02002D2B21A700DE0FB791A01114B1344FA7911010F4A0A441278D2B222F02002D2B21A70FB791A010A4B1344FA791101084A0A441278D2B242F00102D2B274
:401840001A700023FB60FB6818461437BD4680BC704700BF1070004080B485B000AF0346FB710123FB60FB79172B1DD8FB791A01104B1344FA7911010E4A0A441278D2B26E
:4018800022F00102D2B21A70FB791A01094B1344FA791101074A0A441278D2B222F02002D2B21A700023FB60FB6818461437BD4680BC70471070004080B485B000AF0346B6
:4018C0000A46FB711346BB710123FB60FB79172B1BD8FB791A01104B13441B78DBB223F00E03FB72FB791A010B4B1344BA795200D2B252B202F00E0251B297F90B200A4337
:4019000052B2D2B21A700023FB60FB6818461437BD4680BC704700BF1070004080B485B000AF0346FB710B46BB8013467B800123FB60BB8841F6FF72934202D14FF4005341
:40194000BB807B8841F6FF72934202D14FF400537B80FB79172B17D8FB79DB0003F1804303F5EC430433BB60BB68BA881A80FB79DB0003F1804303F5EC430633BB60BB6881
:401980007A881A800023FB60FB6818461437BD4680BC704780B485B000AF03460A46FB711346BB710123FB60FB79172B07D8FB791A01064B1344BA795A720023FB60FB683E
:4019C00018461437BD4680BC704700BF1070004090B484B000AF0446084611461A462346FB710346BB710B467B7113463B710123FB60FB79172B34D8FB79DB0003F1804380
:401A000003F5EC43BA7902F07F02D1B27A79D201D2B20A43D2B21A70FB79DB0003F1804303F5EC433A7E1201D1B23A7902F00F02D2B20A43D2B25A70FB79DB0003F180435B
:401A400003F5EC433A7F02F00F02D2B29A70FB79DB0003F1804303F5EC430022DA700023FB60FB6818461037BD4690BC704700BF80B582B000AFFF23FB7101F0ECFC03464B
:401A8000BB71104B1B78182B12D90F4B1B78FB710C4B1B78013BDAB20A4B1A70FB79DB0003F1804303F5F0431B78DAB2064B1A70BB79184601F0D3FCFB7918460837BD4663
:401AC00080BD00BFD480FF1FD580FF1F90B484B000AF0446084611461A462346FB710346BB800B46BB711346FB700123FB6097F90730002B23DBBB8823F47F6323F00F0325
:401B00009BB2002B1BD1FB79DB0003F1804303F5F043BB60BB68BA881A80FB79DB0003F1804303F5F043BA799A70FB79DB0003F1804303F5F043FA78DA700023FB60FB68BA
:401B400018461037BD4690BC704700BF80B485B000AF0346FB710B46BB8013467B800123FB6097F90730002B17DBFB79DB0003F1804303F5F0430433BB60BB68BA881A8069
:401B8000FB79DB0003F1804303F5F0430633BB60BB687A881A800023FB60FB6818461437BD4680BC704700BF80B483B000AF0346FB7101BE00BF0C37BD4680BC704700BF61
:401BC00080B582B000AF0346FB80FB88054A127802FB03F3184601F01FFC00BF0837BD4680BD00BFE480FF1F80B584B000AF03463960FB710F4B1B68FB60FB791F2B02D99C
:401C00000020FFF7D1FFFB7903F01F0310339B00FA6813441B68BB60FB7903F01F0310339B00FA6813443A681A60BB6818461037BD4680BD08ED00E080B582B000AF034688
:401C40000A46FB711346BB71BB79072B02D90020FFF7AAFFFB791F2B02D90020FFF7A4FFFB7903F01F0303F1604303F56443BA795201D2B21A7000BF0837BD4680BD00BF81
:401C800080B500AF064B1B78002B04D100F00AF8034B01221A7000F025F800BF80BD00BF8081FF1F80B400AF094B72221A70094B20221A70084B06221A70084B47221A70C8
:401CC000074B00221A7000BFBD4680BC704700BF8A6500408965004028640040386400408964004080B582B000AF01F0B4FB0346FB71114A104B1B78DBB243F02003DBB21C
:401D000013700E4A0D4B1B78DBB243F01003DBB213700B4A0A4B1B78DBB243F01003DBB2137000F06DF8FB79184601F098FB00BF0837BD4680BD00BF9A65004099650040B5
:401D40009964004080B483B000AF0023FB710C4B1B78BB71BB7903F02003002B09D0094B1B78FB71BB7903F01E03002B01D00023FB71FB7918460C37BD4680BC704700BF2D
:401D8000696500404A65004080B483B000AF0346FB7100BF074B1B78DBB203F00403002BF8D1054AFB79137000BF0C37BD4680BC704700BF696400404965004080B584B0DB
:401DC00000AF78600023FB810C4B1B78002B10D009E0FB897A6813441B781846FFF7D4FFFB890133FB81FB897A6813441B78002BEFD100BF1037BD4680BD00BF8081FF1FD5
:401E000080B400AF094A094B1B78DBB243F00403DBB21370064A064B1B78DBB243F00403DBB2137000BFBD4680BC7047A2430040B243004080B500AF224A224B1B78DBB2B7
:401E400003F00103DBB213701F4A1F4B1B78DBB223F00303DBB213701C4A1C4B1B78DBB223F03003DBB21370184A184B1B78DBB243F03003DBB21370144A144B1B78DBB2C4
:401E800023F00F03DBB21370104A104B1B78DBB243F00F03DBB213700D4A0D4B1B78DBB243F00103DBB2137040F2F31000F058F840F2F31000F066F8002000F041F800BFAD
:401EC00080BD00BF004F0040024F00400B4F0040014F004080B400AF0D4A0D4B1B78DBB243F00103DBB213700A4A0A4B1B78DBB243F00103DBB21370074A074B1B78DBB2D0
:401F000043F00103DBB2137000BFBD4680BC7047A3430040B3430040004F004080B500AF064B1B78002B04D1FFF784FF034B01221A70FFF7CFFF00BF80BD00BF8281FF1FDE
:401F400080B483B000AF0346FB71044AFB79137000BF0C37BD4680BC704700BF034F004080B485B000AF0346FB80FB88FB81044AFB89138000BF1437BD4680BC704700BF09
:401F8000044F004080B483B000AF0346FB80044AFB88138000BF0C37BD4680BC704700BF064F004080B582B000AF786000F03CF8786800F009F8072000F018F800F028F8EA
:401FC00000BF0837BD4680BD80B485B000AF7860054B1B68FB60FB6840337A681A6000BF1437BD4680BC704708ED00E080B483B000AF0346FB71054AFB795B01DBB2137084
:4020000000BF0C37BD4680BC704700BF00E400E080B400AF034B01221A6000BFBD4680BC704700BF00E100E080B400AF034B01221A6000BFBD4680BC704700BF80E100E09F
:4020400080B485B000AF0346FB710B4B1B78DBB223F04003FB730849FB799B01DBB203F04003DAB2FB7B1343DBB20B7000BF1437BD4680BC704700BF1051004080B485B00C
:4020800000AF0346FB710B4B1B78DBB223F00403FB730849FB799B00DBB203F00403DAB2FB7B1343DBB20B7000BF1437BD4680BC704700BF0051004080B485B000AF0346C6
:4020C000FB710B4B1B78DBB223F00803FB730849FB79DB00DBB203F00803DAB2FB7B1343DBB20B7000BF1437BD4680BC704700BF0051004080B485B000AF0346FB710B4B74
:402100001B78DBB223F00803FB730849FB79DB00DBB203F00803DAB2FB7B1343DBB20B7000BF1437BD4680BC704700BFC051004080B500AF00F048FC022000F097FC00207B
:4021400000F0B4FCFFF794FC03461A46094B1A70FFF78EFC03461A46074B1A7040F29521064800F053F840F25621054800F082F800BF80BD8681FF1F8781FF1FE43D000074
:402180007C40000080B500AF00F03CFC094B1B7801211846FFF71AFB074B1B7801211846FFF714FB002000F0A1FC00F075FB00BF80BD00BF8481FF1F8581FF1F80B500AF88
:4021C000064B1B78002B04D1FFF7B2FF034B01221A70FFF7D7FF00BF80BD00BF8381FF1F80B500AF00F072FB064B1B781846FFF733FB054B1B781846FFF72EFB00F01CFCA1
:4022000000BF80BD8481FF1F8581FF1F80B582B000AF78600B467B807B681B0C9AB24FF480430121012000F06BFB03461A460F4B1A700F4B18780E4B1A7879880123FFF7AF
:4022400045FC0B4B1B787A6891B245F683321846FFF77CFC054B1A78054B1B7819461046FFF798FB00BF0837BD4680BD8481FF1F8681FF1F80B582B000AF78600B467B8090
:402280007B681B0C9AB24FF480430121012000F069FB03461A460F4B1A700F4B18780E4B1A7879880123FFF711FC0B4B1B787A6891B245F683321846FFF748FC054B1A7829
:4022C000054B1B7819461046FFF764FB00BF0837BD4680BD8581FF1F8781FF1F80B500AF084B1B78DBB203F00803002B01D0012200E00022044B1A70FFF772FF00F024FCA3
:4023000000BF80BDA84300408881FF1F80B500AF00F0CAFC022000F019FD002000F036FDFFF7A6FB03461A46094B1A70FFF7A0FB03461A46074B1A7040F27A41064800F0EB
:4023400053F840F20D41054800F082F800BF80BD8C81FF1F8D81FF1FD44200005047000080B500AF00F0BEFC094B1B7801211846FFF72CFA074B1B7801211846FFF726FA4F
:40238000002000F023FD00F0F7FB00BF80BD00BF8A81FF1F8B81FF1F80B500AF064B1B78002B04D1FFF7B2FF034B01221A70FFF7D7FF00BF80BD00BF8981FF1F80B500AF00
:4023C00000F0F4FB064B1B781846FFF745FA054B1B781846FFF740FA00F09EFC00BF80BD8A81FF1F8B81FF1F80B582B000AF78600B467B807B681B0C9AB24FF48043012185
:40240000012000F0EDFB03461A460F4B1A700F4B18780E4B1A7879880123FFF757FB0B4B1B787A6891B245F682321846FFF78EFB054B1A78054B1B7819461046FFF7AAFAE6
:4024400000BF0837BD4680BD8A81FF1F8C81FF1F80B582B000AF78600B467B807B681B0C9AB24FF480430121012000F0EBFB03461A460F4B1A700F4B18780E4B1A787988B8
:402480000123FFF723FB0B4B1B787A6891B245F682321846FFF75AFB054B1A78054B1B7819461046FFF776FA00BF0837BD4680BD8B81FF1F8D81FF1F80B500AF084B1B7800
:4024C000DBB203F00403002B01D0012200E00022044B1A70FFF772FF00F0A6FC00BF80BDA84300409081FF1F80B500AF00F04CFD022000F09BFD002000F0B8FDFFF7B8FAD8
:4025000003461A46094B1A70FFF7B2FA03461A46074B1A7040F21D21064800F053F80421054800F083F800BF80BD00BF9481FF1F9581FF1F604B0000804D000080B500AF99
:4025400000F040FD094B1B7801211846FFF73EF9074B1B7801211846FFF738F9002000F0A5FD00F079FC00BF80BD00BF9281FF1F9381FF1F80B500AF064B1B78002B04D111
:40258000FFF7B2FF034B01221A70FFF7D7FF00BF80BD00BF9181FF1F80B500AF00F076FC064B1B781846FFF757F9054B1B781846FFF752F900F020FD00BF80BD9281FF1F38
:4025C0009381FF1F80B582B000AF78600B467B807B681B0C9AB24FF480430121012000F06FFC03461A460F4B1A700F4B18780E4B1A7879880123FFF769FA0B4B1B787A68CA
:4026000091B245F681321846FFF7A0FA054B1A78054B1B7819461046FFF7BCF900BF0837BD4680BD9281FF1F9481FF1F80B582B000AF78600B467B807B681B0C9AB24FF4E1
:4026400080430121012000F06DFC03461A460F4B1A700F4B18780E4B1A7879880123FFF735FA0B4B1B787A6891B245F681321846FFF76CFA054B1A78054B1B78194610461F
:40268000FFF788F900BF0837BD4680BD9381FF1F9581FF1F80B500AF084B1B78DBB203F00203002B01D0012200E00022044B1A70FFF772FF00F028FD00BF80BDA843004013
:4026C0009881FF1F80B500AF00F0CEFD022000F01DFE002000F03AFEFFF7CAF903461A46094B1A70FFF7C4F903461A46074B1A7040F2A931064800F053F840F25131054881
:4027000000F082F800BF80BD9C81FF1F9D81FF1F844D00003051000080B500AF00F0C2FD094B1B7801211846FFF750F8074B1B7801211846FFF74AF8002000F027FE00F070
:40274000FBFC00BF80BD00BF9A81FF1F9B81FF1F80B500AF064B1B78002B04D1FFF7B2FF034B01221A70FFF7D7FF00BF80BD00BF9981FF1F80B500AF00F0F8FC064B1B785F
:402780001846FFF769F8054B1B781846FFF764F800F0A2FD00BF80BD9A81FF1F9B81FF1F80B582B000AF78600B467B807B681B0C9AB24FF480430121012000F0F1FC0346D4
:4027C0001A460F4B1A700F4B18780E4B1A7879880123FFF77BF90B4B1B787A6891B24FF4B7421846FFF7B2F9054B1A78054B1B7819461046FFF7CEF800BF0837BD4680BD74
:402800009A81FF1F9C81FF1F80B582B000AF78600B467B807B681B0C9AB24FF480430121012000F0EFFC03461A460F4B1A700F4B18780E4B1A7879880123FFF747F90B4B5D
:402840001B787A6891B24FF4B7421846FFF77EF9054B1A78054B1B7819461046FFF79AF800BF0837BD4680BD9B81FF1F9D81FF1F80B500AF064B1B78DBB203F00103DAB20B
:40288000044B1A70FFF776FF00F0AEFD00BF80BDA8430040A081FF1F80B400AF094A094B1B78DBB243F04003DBB21370064A064B1B78DBB243F04003DBB2137000BFBD469A
:4028C00080BC7047A2430040B243004080B400AF094A094B1B78DBB223F04003DBB21370064A064B1B78DBB223F04003DBB2137000BFBD4680BC7047A2430040B243004045
:4029000090B585B002AF0446084611461A462346FB710346BB710B46BB8013467B80104B00221A700E4B1878BA79F97900230193002300930023FFF74BF8094B1B787A88AC
:40294000B9881846FEF7EAFF054B1B7802211846FEF7B2FF024B1B7818460C37BD4690BDEC80FF1F90B585B002AF0446084611461A462346FB710346BB710B46BB801346CC
:402980007B80104B01221A700E4B1878BA79F97900230193002300930023FFF719F8094B1B787A88B9881846FEF7B8FF054B1B7802211846FEF780FF024B1B7818460C3762
:4029C000BD4690BDED80FF1F80B500AF0A4B00221A700A4B00221A70094A094B1B78DBB243F00803DBB21370002000F05FF8022000F03CF800BF80BD2C5800402D580040CF
:402A00009F5A004080B400AF094A094B1B78DBB243F00803DBB21370064A064B1B78DBB243F00803DBB2137000BFBD4680BC7047A8430040B843004080B400AF094A094BB1
:402A40001B78DBB223F00803DBB21370064A064B1B78DBB223F00803DBB2137000BFBD4680BC7047A8430040B843004080B483B000AF0346FB710C4A0B4B1B78DBB223F054
:402A80000203DBB213700849074B1B78DAB2FB7903F00203DBB21343DBB20B7000BF0C37BD4680BC704700BF2C58004080B582B000AF0346FB710C4A0B4B1B78DBB223F0C3
:402AC0000C03DBB213700849074B1B78DAB2FB7903F00C03DBB21343DBB20B7000F016F800BF0837BD4680BD2C58004080B483B000AF0346FB71044AFB79137000BF0C3782
:402B0000BD4680BC704700BF835B004080B483B000AF0B4B1B78DBB203F00C039B08DBB20633FB71074AFB7903F1924303F59C731B78DBB2137000BF0C37BD4680BC70472F
:402B40002C5800400B46004080B400AF074B1B78DBB203F02003002B04D1054B1B78DAB2044B5A7000BFBD4680BC70472D580040835B0040A481FF1F80B400AF094A094BA8
:402B80001B78DBB243F02003DBB21370064A064B1B78DBB243F02003DBB2137000BFBD4680BC7047A2430040B243004080B400AF094A094B1B78DBB223F02003DBB2137069
:402BC000064A064B1B78DBB223F02003DBB2137000BFBD4680BC7047A2430040B243004090B585B002AF0446084611461A462346FB710346BB710B46BB8013467B80104BC0
:402C000004221A700E4B1878BA79F97900230193002300930023FEF7DBFE094B1B787A88B9881846FEF77AFE054B1B7802211846FEF742FE024B1B7818460C37BD4690BD99
:402C4000EE80FF1F90B585B002AF0446084611461A462346FB710346BB710B46BB8013467B80104B05221A700E4B1878BA79F97900230193002300930023FEF7A9FE094B0A
:402C80001B787A88B9881846FEF748FE054B1B7802211846FEF710FE024B1B7818460C37BD4690BDEF80FF1F80B500AF0A4B00221A700A4B00221A70094A094B1B78DBB233
:402CC00043F00803DBB21370002000F05FF8022000F03CF800BF80BD2858004029580040975A004080B400AF094A094B1B78DBB243F00403DBB21370064A064B1B78DBB276
:402D000043F00403DBB2137000BFBD4680BC7047A8430040B843004080B400AF094A094B1B78DBB223F00403DBB21370064A064B1B78DBB223F00403DBB2137000BFBD46AD
:402D400080BC7047A8430040B843004080B483B000AF0346FB710C4A0B4B1B78DBB223F00203DBB213700849074B1B78DAB2FB7903F00203DBB21343DBB20B7000BF0C3720
:402D8000BD4680BC704700BF2858004080B582B000AF0346FB710C4A0B4B1B78DBB223F00C03DBB213700849074B1B78DAB2FB7903F00C03DBB21343DBB20B7000F016F8B4
:402DC00000BF0837BD4680BD2858004080B483B000AF0346FB71044AFB79137000BF0C37BD4680BC704700BF825B004080B483B000AF0B4B1B78DBB203F00C039B08DBB233
:402E00000633FB71074AFB7903F1924303F594731B78DBB2137000BF0C37BD4680BC7047285800400A46004080B400AF074B1B78DBB203F02003002B04D1054B1B78DAB29B
:402E4000044B5A7000BFBD4680BC704729580040825B0040A881FF1F80B400AF094A094B1B78DBB243F00803DBB21370064A064B1B78DBB243F00803DBB2137000BFBD4696
:402E800080BC7047A2430040B243004080B400AF094A094B1B78DBB223F00803DBB21370064A064B1B78DBB223F00803DBB2137000BFBD4680BC7047A2430040B2430040EF
:402EC00090B585B002AF0446084611461A462346FB710346BB710B46BB8013467B80104B02221A700E4B1878BA79F97900230193002300930023FEF76BFD094B1B787A88C1
:402F0000B9881846FEF70AFD054B1B7802211846FEF7D2FC024B1B7818460C37BD4690BDF080FF1F90B585B002AF0446084611461A462346FB710346BB710B46BB801346C7
:402F40007B80104B03221A700E4B1878BA79F97900230193002300930023FEF739FD094B1B787A88B9881846FEF7D8FC054B1B7802211846FEF7A0FC024B1B7818460C373C
:402F8000BD4690BDF180FF1F80B500AF0A4B00221A700A4B00221A70094A094B1B78DBB243F00803DBB21370002000F05FF8022000F03CF800BF80BD245800402558004015
:402FC0008F5A004080B400AF094A094B1B78DBB243F00203DBB21370064A064B1B78DBB243F00203DBB2137000BFBD4680BC7047A8430040B843004080B400AF094A094B08
:403000001B78DBB223F00203DBB21370064A064B1B78DBB223F00203DBB2137000BFBD4680BC7047A8430040B843004080B483B000AF0346FB710C4A0B4B1B78DBB223F09A
:403040000203DBB213700849074B1B78DAB2FB7903F00203DBB21343DBB20B7000BF0C37BD4680BC704700BF2458004080B582B000AF0346FB710C4A0B4B1B78DBB223F005
:403080000C03DBB213700849074B1B78DAB2FB7903F00C03DBB21343DBB20B7000F016F800BF0837BD4680BD2458004080B483B000AF0346FB71044AFB79137000BF0C37C4
:4030C000BD4680BC704700BF815B004080B483B000AF0B4B1B78DBB203F00C039B08DBB20633FB71074AFB7903F1924303F598731B78DBB2137000BF0C37BD4680BC704770
:40310000245800400946004080B400AF074B1B78DBB203F02003002B04D1054B1B78DAB2044B5A7000BFBD4680BC704725580040815B0040AC81FF1F80B400AF094A094BEE
:403140001B78DBB243F01003DBB21370064A064B1B78DBB243F01003DBB2137000BFBD4680BC7047A2430040B243004080B400AF094A094B1B78DBB223F01003DBB21370D3
:40318000064A064B1B78DBB223F01003DBB2137000BFBD4680BC7047A2430040B243004090B585B002AF0446084611461A462346FB710346BB710B46BB8013467B80104B0A
:4031C00006221A700E4B1878BA79F97900230193002300930023FEF7FBFB094B1B787A88B9881846FEF79AFB054B1B7802211846FEF762FB024B1B7818460C37BD4690BD7B
:40320000F280FF1F90B585B002AF0446084611461A462346FB710346BB710B46BB8013467B80104B07221A700E4B1878BA79F97900230193002300930023FEF7C9FB094B21
:403240001B787A88B9881846FEF768FB054B1B7802211846FEF730FB024B1B7818460C37BD4690BDF380FF1F80B500AF0A4B00221A700A4B00221A70094A094B1B78DBB22F
:4032800043F00803DBB21370002000F05FF8022000F03CF800BF80BD2058004021580040875A004080B400AF094A094B1B78DBB243F00103DBB21370064A064B1B78DBB2D3
:4032C00043F00103DBB2137000BFBD4680BC7047A8430040B843004080B400AF094A094B1B78DBB223F00103DBB21370064A064B1B78DBB223F00103DBB2137000BFBD46F1
:4033000080BC7047A8430040B843004080B483B000AF0346FB710C4A0B4B1B78DBB223F00203DBB213700849074B1B78DAB2FB7903F00203DBB21343DBB20B7000BF0C375A
:40334000BD4680BC704700BF2058004080B582B000AF0346FB710C4A0B4B1B78DBB223F00C03DBB213700849074B1B78DAB2FB7903F00C03DBB21343DBB20B7000F016F8F6
:4033800000BF0837BD4680BD2058004080B483B000AF0346FB71044AFB79137000BF0C37BD4680BC704700BF805B004080B483B000AF0B4B1B78DBB203F00C039B08DBB277
:4033C0000633FB71074AFB7903F1924303F590731B78DBB2137000BF0C37BD4680BC7047205800400846004080B400AF074B1B78DBB203F02003002B04D1054B1B78DAB2E4
:40340000044B5A7000BFBD4680BC704721580040805B0040B081FF1F142816D902B4012114381049097811F0C001890904B40E4A515C04BC00BF00BF00BF8841FDD500BF0A
:4034400000BF02BC704700BF00BF70F10400FCD570470B050709EFF3108072B6704780F3108870470048004052340000014B1868704700BF5481FF1F0E4B70B51E460E4CFB
:403480000025E41AA410A54204D056F8253098470135F8E702F010F8084B094C1E46E41AA4100025A54204D056F8253098470135F8E770BDC4540000C4540000C45400003F
:4034C000CC54000010B5431E0A44914204D011F8014B03F8014FF8E710BD03460244934202D003F8011BFAE7704700000EB400B54FF402719CB0ADF814106FF000410491E9
:4035000007914FF6FF711DAB02900690084853F8042BADF81610006802A9019300F064F8029B00221A701CB05DF804EB03B070475481FF1F2DE9F0478E6882469E420C46D3
:40354000914698463ED88A8912F4906F3AD02568096902236F1A656905EB450595FBF3F57B1C43449D4238BF1D4653050FD5294600F040FB064698B13A462169FFF7A2FFCE
:40358000A38923F4906343F08003A38113E02A4600F08EFB064670B92169504600F0DEFA0C23CAF80030A3894FF0FF3043F04003A381BDE8F08726613E4426604646656170
:4035C000ED1BA560464528BF464649463246206800F0A8FAA36800209B1BA36023681E442660BDE8F08700002DE9F04F9DB003938B8980461C060D4616460DD50B695BB9DF
:40360000402100F0F7FA2860286118B90C23C8F80030CDE040236B610023099320238DF82930DFF89CB130238DF82A3037463C4614F8013B1BB9B7EB060910D003E0252B56
:40364000F9D02746F3E74B46324629464046FFF771FF013000F0A780099B4B4409933B78002B00F0A08000234FF0FF3204930793059206938DF853301A9301260522217841
:403680004E4800F041FA671C049B38B14B4A3C46801A06FA00F018430490EFE7D90644BF20228DF853201A0744BF2B228DF8532022782A2A03D0079A00210A200BE0039A1E
:4036C000111D12680391002A10DA524243F00200079204900BE027463B780134303B092B03D800FB02320121F5E701B107923B782E2B1ED17B782A2B0AD1039B02371A1D26
:403700001B680392002BB8BF4FF0FF33059310E0002319460593781C0A2407463A780130303A092A03D804FB01210123F5E703B1059103223978224800F0E6F940B1402384
:40374000CBEB000003FA00F0049B013718430490397806221B487E1C8DF8281000F0D4F988B1194B33B9039B073323F007030833039314E003AB00932A46144B04A940460A
:40378000AFF3008007E003AB00932A460F4B04A9404600F093F8B0F1FF3F824603D0099B5344099342E7AB895B0601D4099801E04FF0FF301DB0BDE8F08F00BF83540000EC
:4037C000895400008D54000000000000353500002DE9F04791461F460A698B6806469342B8BF1346C9F8003091F843200C46DDF8208012B10133C9F800302368990642BF0A
:40380000D9F800300233C9F80030256815F0060510D104F1190A07E00123524639463046C04701301AD00135E368D9F800209B1A9D42F1DB94F843302268003318BF012388
:4038400092060FD5E118302081F843005A1C94F845102244023382F8431003E04FF0FF30BDE8F08704F1430239463046C0470130F4D02268D9F80050E36802F00602042A52
:4038800008BF5D1B2269A3680CBF25EAE57500259342C4BF9B1AED184FF000091A344D4509D00123224639463046C0470130D5D009F10109F3E70020BDE8F0872DE9F04306
:4038C00017460A7E85B06E2A984606460C460C9B01F1430E00F0AE8011D8632A22D009D8002A00F0BB80582A40F0CA8081F84520834955E0642A1ED0692A1CD0C0E0732AE1
:4039000000F0B08009D86F2A2ED0702A40F0B8800A6842F020020A603EE0752A24D0782A3AD0ADE01A6801F14205111D1960136884F84230A8E021681A6811F0800F02D013
:40394000111D196008E011F0400F02F10401196002D0B2F9003000E01368002B3CDA2D225B4284F8432037E021681A6811F0800F02D0111D196007E011F0400F02F1040189
:40398000196001D0138800E01368227E5C496F2A14BF0A2208221BE078225A4984F845202268186812F0800F00F104051D6003D1550601D5038800E00368D00744BF42F0AE
:4039C000200222601BB9226822F0200222601022002084F8430001E049490A226568002DA56008DB206820F0040020602BB9002D7DD175460CE0002B79D07546B3FBF2F09C
:403A000002FB1033CB5C05F8013D03460028F5D1082A0BD12368DA0708D5236962689A42DEBF302305F8013C05F1FF35C5EB0E0323612EE008681A6810F0800F496903D077
:403A4000101D1860136808E010F0400F02F104001860136801D0198000E0196000232361754616E01A68111D1960156800216268284600F049F808B1401B6060636804E037
:403A800004F1420584F8422001232361002384F84330CDF800803B4603AA21463046FFF797FE013002D14FF0FF3026E023692A4639463046C0470130F5D023689B0710D5DF
:403AC000002504F1190907E001234A4639463046C0470130E7D00135E368039A9B1A9D42F2DBE068039B9842B8BF184605E00B7804F1420584F842308AE705B0BDE8F08327
:403B000094540000A554000010B5C9B202449042034605D01C7801308C42F8D1184610BD002010BD884210B501EB020301D8421E0BE09842FBD28118D21AD34204D013F8F6
:403B4000014D01F8014DF8E710BD994204D011F8014B02F8014FF8E710BD000038B50546002944D051F8043C0C1F002BB8BFE41800F0D4F81E4A1368114613B9636014604A
:403B800030E0A3420DD92268A018834201BF18685B681218226063600C6023E0A24203D813465A68002AF9D118681918A1420BD12168014458188242196013D11068526873
:403BC000014419605A600DE002D90C232B6009E021686018824201BF106852680918216062605C602846BDE8384000F098B838BDB881FF1F70B5CD1C25F0030508350C2D53
:403C000038BF0C25002D064601DBA94202D90C23336046E000F082F8234B1C681A462146A1B10B685B1B0ED40B2B03D90B60CC18CD501EE08C420BBF63684B681360636051
:403C400018BF0C4615E00C464968E9E7174C23681BB9304600F052F820602946304600F04DF8431C18D0C41C24F00304A0420DD12560304600F053F804F10B00231D20F0BF
:403C80000700C31A0ED05A42E25070BD211A304600F034F80130EBD10C233360304600F03EF8002070BD00BFB881FF1FB481FF1FF8B5074615460E4621B91146BDE8F840C2
:403CC000FFF798BF1AB9FFF749FF2846F8BD00F027F885420ED929463846FFF78BFF044650B131462A46FFF7EDFB31463846FFF735FF01E03046F8BD2046F8BD38B5064C84
:403D00000023054608462360FCF706FF431C02D1236803B12B6038BDD881FF1F7047704751F8040C0028BEBF091851F8043CC018043870470000000025580D0A000000006F
:403D400025780D0A00000000300000003100000032000000330000003400000035000000360000003700000038000000390000002A0000002300000025640D0A0000000095
:403D800044697361626C696E672044414373202E2E2E0000035B00402443004040000000004F00400C00205100405000F05100401000000001400010001401400006801A79
:403DC0000140800100400140000A004C014000020050014020000000001A0140FC0400488000000080808181828283848485858687878888898A8A8B8B8C8C8D8E8E8F8F42
:403E00009091919292939394949596969797989899999A9B9B9C9C9D9D9E9E9F9FA0A0A1A1A2A2A3A3A4A4A5A5A6A6A7A7A7A8A8A9A9AAAAABABABACACADADADAEAEAFAF62
:403E4000AFB0B0B1B1B1B2B2B2B3B3B3B4B4B4B5B5B5B6B6B6B6B7B7B7B8B8B8B8B9B9B9B9B9BABABABABBBBBBBBBBBBBCBCBCBCBCBCBCBDBDBDBDBDBDBDBDBDBEBEBEBE31
:403E8000BEBEBEBEBEBEBEBEBEBEBEBEBEBEBEBEBEBEBEBEBEBEBEBDBDBDBDBDBDBDBDBDBDBCBCBCBCBCBCBCBBBBBBBBBBBABABABABAB9B9B9B9B8B8B8B8B7B7B7B7B6B615
:403EC000B6B5B5B5B5B4B4B4B3B3B3B2B2B1B1B1B0B0B0AFAFAEAEAEADADACACACABABAAAAA9A9A9A8A8A7A7A6A6A5A5A4A4A3A3A2A2A1A1A0A09F9F9E9E9D9D9C9C9B9B67
:403F00009A9A9999989897969695959494939392919190908F8F8E8D8D8C8C8B8A8A89898887878686858584838382828180807F7F7E7D7D7C7C7B7A7A7979787877767670
:403F4000757574737372727170706F6F6E6E6D6C6C6B6B6A6A696968676766666565646463636262616160605F5F5E5E5D5D5C5C5B5B5A5A59595858575756565655555447
:403F800054535353525251515150504F4F4F4E4E4E4D4D4C4C4C4B4B4B4A4A4A4A4949494848484847474747464646464545454545444444444443434343434343424242A8
:403FC000424242424242424141414141414141414141414141414141414141414141414141414242424242424242424343434343434344444444444445454545464646462D
:404000004647474747484848494949494A4A4A4B4B4B4C4C4C4D4D4D4E4E4E4F4F5050505151525252535354545455555656575758585859595A5A5B5B5C5C5D5D5E5E5F31
:404040005F606061616262636364646566666767686869696A6B6B6C6C6D6D6E6E6F70707171727373747475757677777878797A7A7B7B7C7D7D7E7E7F0000008080818199
:404080008283838485858687878889898A8B8B8C8D8D8E8E8F909091929293939495959697979898999A9A9B9B9C9D9D9E9E9F9FA0A1A1A2A2A3A3A4A4A5A5A6A6A7A7A88B
:4040C000A8A9A9AAAAABABACACADADAEAEAEAFAFB0B0B1B1B1B2B2B3B3B3B4B4B4B5B5B5B6B6B6B7B7B7B8B8B8B8B9B9B9B9BABABABABBBBBBBBBBBCBCBCBCBCBCBDBDBD9E
:40410000BDBDBDBDBDBDBEBEBEBEBEBEBEBEBEBEBEBEBEBEBEBEBEBEBEBEBEBEBEBEBDBDBDBDBDBDBDBDBDBCBCBCBCBCBCBBBBBBBBBBBABABABAB9B9B9B9B8B8B8B8B7B773
:40414000B7B6B6B6B5B5B5B4B4B4B3B3B3B2B2B1B1B1B0B0AFAFAEAEAEADADACACABABAAAAA9A9A8A8A7A7A6A6A5A5A4A4A3A3A2A2A1A1A09F9F9E9E9D9D9C9B9B9A9A99EA
:404180009898979796959594939392929190908F8E8E8D8D8C8B8B8A898988878786858584838382818180807F7E7E7D7C7C7B7A7A797878777676757474737272717170EA
:4041C0006F6F6E6D6D6C6C6B6A6A69686867676665656464636262616160605F5E5E5D5D5C5C5B5B5A5A5959585857575656555554545353525251515150504F4F4E4E4E70
:404200004D4D4C4C4C4B4B4B4A4A4A49494948484847474747464646464545454544444444444343434343434242424242424242424141414141414141414141414141413F
:4042400041414141414141414142424242424242424243434343434344444444444545454546464646474747474848484949494A4A4A4B4B4B4C4C4C4D4D4E4E4E4F4F50AD
:4042800050515151525253535454555556565757585859595A5A5B5B5C5C5D5D5E5E5F60606161626263646465656667676868696A6A6B6C6C6D6D6E6F6F707171727273DE
:4042C0007474757676777878797A7A7B7C7C7D7E7E7F00008080808181818282828383838484848585858686868787878888888989898A8A8A8B8B8B8C8C8C8D8D8D8E8E09
:404300008E8F8F8F909090919191929292939393949494959595969696979797989898989999999A9A9A9B9B9B9C9C9C9C9D9D9D9E9E9E9F9F9F9FA0A0A0A1A1A1A2A2A25E
:40434000A2A3A3A3A4A4A4A4A5A5A5A5A6A6A6A7A7A7A7A8A8A8A8A9A9A9A9AAAAAAAAABABABABACACACACADADADADAEAEAEAEAEAFAFAFAFB0B0B0B0B0B1B1B1B1B1B2B299
:40438000B2B2B2B3B3B3B3B3B4B4B4B4B4B5B5B5B5B5B5B6B6B6B6B6B6B7B7B7B7B7B7B8B8B8B8B8B8B8B9B9B9B9B9B9B9BABABABABABABABABABBBBBBBBBBBBBBBBBBBC28
:4043C000BCBCBCBCBCBCBCBCBCBCBCBDBDBDBDBDBDBDBDBDBDBDBDBDBDBDBDBDBEBEBEBEBEBEBEBEBEBEBEBEBEBEBEBEBEBEBEBEBEBEBEBEBEBEBEBEBEBEBEBEBEBEBEBE64
:40440000BEBEBEBEBEBEBEBEBEBEBDBDBDBDBDBDBDBDBDBDBDBDBDBDBDBDBDBCBCBCBCBCBCBCBCBCBCBCBCBBBBBBBBBBBBBBBBBBBABABABABABABABABAB9B9B9B9B9B9B987
:40444000B8B8B8B8B8B8B8B7B7B7B7B7B7B6B6B6B6B6B6B5B5B5B5B5B5B4B4B4B4B4B3B3B3B3B3B2B2B2B2B2B1B1B1B1B1B0B0B0B0B0AFAFAFAFAEAEAEAEAEADADADADAC84
:40448000ACACACABABABABAAAAAAAAA9A9A9A9A8A8A8A8A7A7A7A7A6A6A6A5A5A5A5A4A4A4A4A3A3A3A2A2A2A2A1A1A1A0A0A09F9F9F9F9E9E9E9D9D9D9C9C9C9C9B9B9B0C
:4044C0009A9A9A999999989898989797979696969595959494949393939292929191919090908F8F8F8E8E8E8D8D8D8C8C8C8B8B8B8A8A8A898989888888878787868686B4
:404500008585858484848383838282828181818080807F7F7E7E7E7D7D7D7C7C7C7B7B7B7A7A7A7979797878787777777676767575757474747373737272727171717070D5
:40454000706F6F6F6E6E6E6D6D6D6C6C6C6B6B6B6A6A6A6969696868686767676766666665656564646463636363626262616161606060605F5F5F5E5E5E5D5D5D5D5C5CD6
:404580005C5B5B5B5B5A5A5A5A595959585858585757575756565656555555555454545453535353525252525151515151505050504F4F4F4F4F4E4E4E4E4E4D4D4D4D4D0D
:4045C0004C4C4C4C4C4B4B4B4B4B4A4A4A4A4A4A494949494949484848484848474747474747474646464646464645454545454545454544444444444444444443434343EE
:404600004343434343434343424242424242424242424242424242424241414141414141414141414141414141414141414141414141414141414141414141414141414119
:40464000414141414141414242424242424242424242424242424242434343434343434343434343444444444444444444454545454545454545464646464646464747475D
:40468000474747474848484848484949494949494A4A4A4A4A4A4B4B4B4B4B4C4C4C4C4C4D4D4D4D4D4E4E4E4E4E4F4F4F4F4F5050505051515151515252525253535353CE
:4046C00054545454555555555656565657575757585858585959595A5A5A5A5B5B5B5B5C5C5C5D5D5D5D5E5E5E5F5F5F6060606061616162626263636363646464656565B4
:40470000666666676767676868686969696A6A6A6B6B6B6C6C6C6D6D6D6E6E6E6F6F6F7070707171717272727373737474747575757676767777777878787979797A7A7A82
:404740007B7B7B7C7C7C7D7D7D7E7E7E7F7F00008080808181818282838383848484858586868687878788888989898A8A8A8B8B8C8C8C8D8D8D8E8E8E8F8F9090909191D4
:4047800091929293939394949495959596969697979798989999999A9A9A9B9B9B9C9C9C9D9D9D9E9E9E9F9F9FA0A0A0A1A1A1A2A2A2A2A3A3A3A4A4A4A5A5A5A6A6A6A6E6
:4047C000A7A7A7A8A8A8A8A9A9A9AAAAAAAAABABABACACACACADADADADAEAEAEAEAFAFAFAFB0B0B0B0B1B1B1B1B1B2B2B2B2B3B3B3B3B3B4B4B4B4B4B5B5B5B5B5B6B6B6FD
:40480000B6B6B7B7B7B7B7B7B8B8B8B8B8B8B9B9B9B9B9B9B9BABABABABABABABBBBBBBBBBBBBBBBBBBCBCBCBCBCBCBCBCBCBCBCBDBDBDBDBDBDBDBDBDBDBDBDBDBDBDBED5
:40484000BEBEBEBEBEBEBEBEBEBEBEBEBEBEBEBEBEBEBEBEBEBEBEBEBEBEBEBEBEBEBEBEBEBEBEBEBEBEBEBEBEBDBDBDBDBDBDBDBDBDBDBDBDBDBDBDBCBCBCBCBCBCBCBCD7
:40488000BCBCBCBBBBBBBBBBBBBBBBBABABABABABABABAB9B9B9B9B9B9B9B8B8B8B8B8B8B7B7B7B7B7B6B6B6B6B6B6B5B5B5B5B5B4B4B4B4B4B3B3B3B3B2B2B2B2B2B1B131
:4048C000B1B1B0B0B0B0AFAFAFAFAFAEAEAEADADADADACACACACABABABABAAAAAAA9A9A9A9A8A8A8A7A7A7A7A6A6A6A5A5A5A4A4A4A4A3A3A3A2A2A2A1A1A1A0A0A09F9F9A
:404900009F9E9E9E9D9D9D9C9C9C9B9B9B9A9A9A999999989898979797969696959594949493939392929291919190908F8F8F8E8E8E8D8D8C8C8C8B8B8B8A8A8989898885
:4049400088888787868686858585848483838382828281818080807F7F7F7E7E7D7D7D7C7C7C7B7B7A7A7A797979787877777776767675757474747373737272717171702F
:4049800070706F6F6E6E6E6D6D6D6C6C6C6B6B6B6A6A6969696868686767676666666565656464646363636262626161616060605F5F5F5E5E5E5D5D5D5C5C5C5B5B5B5BBA
:4049C0005A5A5A595959585858585757575656565655555554545454535353535252525251515150505050504F4F4F4F4E4E4E4E4D4D4D4D4D4C4C4C4C4B4B4B4B4B4A4A4B
:404A00004A4A4A4949494949494848484848474747474747464646464646464545454545454545444444444444444443434343434343434343434242424242424242424229
:404A400042424242424141414141414141414141414141414141414141414141414141414141414141414141414141414141414242424242424242424242424242424343DE
:404A8000434343434343434343444444444444444444454545454545454646464646464647474747474748484848484849494949494A4A4A4A4A4B4B4B4B4B4C4C4C4C4C3E
:404AC0004D4D4D4D4E4E4E4E4E4F4F4F4F505050505151515152525252535353535454545555555556565657575757585858595959595A5A5A5B5B5B5C5C5C5D5D5D5D5E89
:404B00005E5E5F5F5F60606061616162626263636364646465656566666667676868686969696A6A6A6B6B6B6C6C6C6D6D6E6E6E6F6F6F707071717172727273737374743E
:404B400075757576767677777878787979797A7A7B7B7B7C7C7C7D7D7E7E7E7F7F00000080808182828384858586878788898A8A8B8C8C8D8E8F8F90919192939394959614
:404B800096979898999A9A9B9C9C9D9D9E9F9FA0A1A1A2A2A3A4A4A5A5A6A6A7A8A8A9A9AAAAABABACACADADAEAEAFAFB0B0B1B1B2B2B2B3B3B4B4B4B5B5B6B6B6B7B7B7D1
:404BC000B8B8B8B9B9B9B9BABABABABBBBBBBBBCBCBCBCBCBCBDBDBDBDBDBDBDBDBEBEBEBEBEBEBEBEBEBEBEBEBEBEBEBEBEBEBEBEBEBEBDBDBDBDBDBDBDBDBCBCBCBCBC9D
:404C0000BBBBBBBBBBBABABABAB9B9B9B8B8B8B7B7B7B6B6B6B5B5B5B4B4B3B3B3B2B2B1B1B0B0B0AFAFAEAEADADACACABABAAAAA9A8A8A7A7A6A6A5A4A4A3A3A2A1A1A075
:404C4000A09F9E9E9D9C9C9B9B9A9999989797969594949392929190908F8E8E8D8C8B8B8A89898887868685848383828181807F7E7E7D7C7C7B7A797978777676757474AE
:404C800073727171706F6F6E6D6D6C6B6B6A6968686766666564646363626161605F5F5E5E5D5C5C5B5B5A595958585757565555545453535252515150504F4F4F4E4E4D4F
:404CC0004D4C4C4C4B4B4A4A4A4949494848484747474646464545454544444444444343434343424242424242424241414141414141414141414141414141414141414199
:404D00004142424242424242424343434343434444444445454545464646464747474848484949494A4A4B4B4B4C4C4D4D4D4E4E4F4F505051515252535354545555565614
:404D400057575859595A5A5B5B5C5D5D5E5E5F606061626263636465656667676869696A6B6C6C6D6E6E6F70707172737374757576777878797A7A7B7C7D7D7E7F000000F5
:404D8000808080808080808181828282838384848585858686878787888889898A8A8A8B8B8C8C8C8D8D8E8E8E8F8F90909091919292929393949494959596969697979835
:404DC000989899999A9A9A9B9B9B9C9C9D9D9D9E9E9E9F9F9FA0A0A1A1A1A2A2A2A3A3A3A4A4A4A5A5A5A6A6A6A7A7A7A8A8A8A9A9A9AAAAAAAAABABABACACACADADADADE4
:404E0000AEAEAEAFAFAFAFB0B0B0B0B1B1B1B1B2B2B2B2B3B3B3B3B4B4B4B4B5B5B5B5B5B6B6B6B6B6B7B7B7B7B7B8B8B8B8B8B8B9B9B9B9B9B9BABABABABABABABBBBBB2D
:404E4000BBBBBBBBBCBCBCBCBCBCBCBCBCBCBDBDBDBDBDBDBDBDBDBDBDBDBDBDBEBEBEBEBEBEBEBEBEBEBEBEBEBEBEBEBEBEBEBEBEBEBEBEBEBEBEBEBEBEBEBEBEBEBEBEE0
:404E8000BEBEBDBDBDBDBDBDBDBDBDBDBDBDBDBCBCBCBCBCBCBCBCBCBCBBBBBBBBBBBBBBBBBABABABABABABAB9B9B9B9B9B9B8B8B8B8B8B7B7B7B7B7B7B6B6B6B6B5B5B568
:404EC000B5B5B4B4B4B4B3B3B3B3B3B2B2B2B2B1B1B1B1B0B0B0AFAFAFAFAEAEAEAEADADADACACACACABABABAAAAAAA9A9A9A8A8A8A7A7A7A7A6A6A6A5A5A5A4A4A3A3A392
:404F0000A2A2A2A1A1A1A0A0A09F9F9F9E9E9D9D9D9C9C9C9B9B9A9A9A999999989897979796969595959494939393929291919190908F8F8F8E8E8D8D8D8C8C8B8B8B8ACA
:404F40008A8989888888878786868685858484838383828281818180807F7F7E7E7E7D7D7C7C7C7B7B7A7A797979787877777776767575747474737372727271717070700B
:404F80006F6F6E6E6E6D6D6C6C6C6B6B6A6A6A69696868686767666666656565646463636362626261616060605F5F5F5E5E5E5D5D5D5C5C5C5B5B5A5A5A5959595858582C
:404FC000585757575656565555555454545353535352525251515151505050504F4F4F4E4E4E4E4D4D4D4D4C4C4C4C4C4B4B4B4B4A4A4A4A4A494949494848484848484703
:4050000047474747464646464646454545454545454444444444444444434343434343434343434242424242424242424242424241414141414141414141414141414141A5
:405040004141414141414141414141414141414141414141414142424242424242424242424242424343434343434343434344444444444444454545454545454646464689
:405080004646474747474747484848484849494949494A4A4A4A4A4B4B4B4B4C4C4C4C4D4D4D4D4E4E4E4E4F4F4F4F505050505151515252525253535354545455555555AB
:4050C0005656565757575858585959595A5A5A5B5B5B5C5C5C5D5D5D5E5E5E5F5F6060606161616262626363646464656565666667676768686969696A6A6B6B6B6C6C6D84
:405100006D6D6E6E6F6F6F7070717171727273737374747575757676777778787879797A7A7A7B7B7C7C7D7D7D7E7E7F7F0000008080808181828283838484858586868684
:405140008787888889898A8A8B8B8B8C8C8D8D8E8E8F8F90909091919292939393949495959696979797989899999A9A9A9B9B9C9C9C9D9D9E9E9E9F9FA0A0A0A1A1A2A2FA
:40518000A2A3A3A4A4A4A5A5A5A6A6A6A7A7A8A8A8A9A9A9AAAAAAABABABACACACADADADAEAEAEAEAFAFAFB0B0B0B1B1B1B1B2B2B2B3B3B3B3B4B4B4B4B5B5B5B5B6B6B6AE
:4051C000B6B6B7B7B7B7B7B8B8B8B8B8B9B9B9B9B9BABABABABABABBBBBBBBBBBBBBBCBCBCBCBCBCBCBCBCBDBDBDBDBDBDBDBDBDBDBDBDBDBEBEBEBEBEBEBEBEBEBEBEBEE5
:40520000BEBEBEBEBEBEBEBEBEBEBEBEBEBEBEBEBEBEBEBEBEBEBDBDBDBDBDBDBDBDBDBDBDBDBCBCBCBCBCBCBCBCBCBBBBBBBBBBBBBBBABABABABABAB9B9B9B9B9B9B8B863
:40524000B8B8B8B7B7B7B7B7B6B6B6B6B5B5B5B5B4B4B4B4B3B3B3B3B2B2B2B2B1B1B1B0B0B0B0AFAFAFAEAEAEADADADACACACABABABAAAAAAA9A9A9A8A8A8A7A7A7A6A63B
:40528000A6A5A5A4A4A4A3A3A3A2A2A1A1A1A0A09F9F9F9E9E9D9D9D9C9C9B9B9B9A9A99999898989797969695959594949393929292919190908F8F8E8E8D8D8D8C8C8BB8
:4052C0008B8A8A898988888887878686858584848383838282818180807F7F7E7E7D7D7C7C7C7B7B7A7A797978787777777676757574747373727272717170706F6F6E6E9B
:405300006D6D6D6C6C6B6B6A6A6A6969686867676766666565646464636362626261616060605F5F5E5E5E5D5D5C5C5C5B5B5B5A5A5959595858585757575656565555554F
:405340005454545353535252525151515050504F4F4F4F4E4E4E4D4D4D4D4C4C4C4C4B4B4B4B4A4A4A4A494949494848484848474747474746464646464645454545454550
:405380004444444444444443434343434343434342424242424242424242424241414141414141414141414141414141414141414141414141414141414141414141424278
:4053C00042424242424242424242424343434343434343434444444444444445454545454546464646464747474747484848484849494949494A4A4A4A4B4B4B4B4C4C4C34
:405400004C4D4D4D4E4E4E4E4F4F4F5050505151515152525253535354545455555556565657575758585959595A5A5A5B5B5B5C5C5D5D5D5E5E5F5F5F60606161616262C6
:4054400063636364646565656666676768686869696A6A6B6B6C6C6C6D6D6E6E6F6F6F707071717272737374747475757676777778787979797A7A7B7B7C7C7D7D7E7E7F19
:405480007F4300232D302B2000686C4C0065666745464700303132333435363738394142434445460030313233343536373839616263646566000000F8B500BFF8BC08BC53
:4054C0009E4670474D000000010C0000F8B500BFF8BC08BC9E46704729000000F0540000C880FF1F90000000880000000000000000000000E081FF1F01FF0000807F0000CF
:40550000FF00000000366E01C05D0000180000000000E02EFFFFFFFFFFFFFFFF000000000000000000000000000000000000000000000000000000000000000081540000B7
:40554000000000000000000000000000000000000000000000000000000000000000000000000000000000000000000000000000000000000000000000000000F480FF1F99
:4055800000000000000000000000000000000000000000000000000000000000000000000000000000000000000000000000000000000000000000000000000000000000EB
:4055C00000000000000000000000000000000000000000000000000000000000000000000000000000000000000000000000000000000000000000000000000000000000AB
:40560000000000000000000000000000000000000000000000000000000000000000000000000000000000000000000000000000000000000000000000000000000000006A
:40564000000000000000000000000000000000000000000000000000000000000000000000000000000000000000000000000000000000000000000000000000000000002A
:020000040003F7
:0200000480007A
:40000000024F004002520040045A00400164004002650040020101401A020140190301400C050140030701405508014036090140030B0140050D0140010F014002150140AD
:400040000517014047180140401901400B1A0140431B01400C4001400E410140114201400643014004440140044501400946014006470140084801400B490140064C0140BF
:400080000E4D0140075001400351014001100A4B6180644087018F0197019F01890F89388A728110E2080201030215021B01260133023401350139803E103F445804590427
:4000C0005C505F0188018A0296039E04B204B402B601BE50D804DC03DF010010040109400A201708181019101A021F1024022608270837283C0394029D10A801C012C205EF
:40010000C420CC60CE80E220E602EC0488018E1090029620A401AD40AE09B310B720E040EA20EC10A401A801E8080110030C04020510062408580A250E5811091310142105
:40014000150C164C1711191C1B021C211E541F0329142A083003311F321C346C38023A284003470449FF4A074BFF4C404D204EF04F055008580459045A045C225D025F018D
:40018000604061A86240632083018414850286088A608B048D048E10900692189406960898409A209B049F04A006A208A504A60AAC01B01EB240B302B401B501B620B70485
:4001C000BA02BE54BF44D401D804D904DB04DC42DD20DF0100440120030104400510061009200A500E100F021080121013801608188019081A421B111C441D141E10212098
:40020000224427C029042F083080311035143741388839013A103B083E083F024508561857205A885B128F10910196039720AD01C0E7C2AEC44DCA22CCFCCECFD040D60F2F
:4002400096039720E0C086018B109601E220EC048601E040EC108801A401E080EC02EE08080214031C032601320338083E0458045F018002830985108601880289108C0813
:400280008D048E109002912993069410950696089A019C029D10A10EA204A321A418A502A818A906AB29AD2FAE04B002B110B218B307B401B520B604B70EB920BB08BE516F
:4002C000C012C103C50EC60CC70BC815C9FFCAFFCBFFCEF0CF44D00CD418D804D904DA04DB04DC22DD22DF01E6C0EA40EB02002201A00260051008410A220B040D400E10E7
:400300000F02111412811610180419401A601D082020210122842304284029202A48300131043240388039164140421043204B085080530859016004614088088A8092103A
:400340009601972899109A10A321A480A508A708A804AB02AD28B480B710C04FC2AFC42FCA0FCC0BCE0FD00ED601D80CEC0290019204A602AE05B002B404B601BE50D80453
:40038000DC06DF010044011008010A2A0E801002110413011548180519091E811F102002210822012301288029882A2030403104321138A43B0140C94109422048014A2019
:4003C00052015A4069146A80705071047208844185088604880289808D40910A9268948095149683972098089C019D859E09A401A620B104C007C21FC4ADCA0FCC0FCE0FCC
:40040000D00FD208D608E040EC10328039023C203E08438083808410CC10CEE0D010E210E6200301070439043C2241808580890195029E08A680C0C0CEE0D010E6400640E7
:40044000128058088D10A401A680AC10AE08AF01B104B704C020C410D640E840EA10EE409D10A401A808AE40E810EE2030107F80CC08DE0133809C10AB80CC083140450872
:4004800089408F809C10A780CC08D001E00331108E019C10A508CC08E00825108A809D10A404AC05C820EC40EE1019101C08228024028C019D10A404A680B510C6C0C8306D
:4004C00009209D10A201A508AC10C20210807A0188808D109D10A201B120B508C408DC01E002E601EC08EE01003C08280C14104411011C441D01000310AA11AA007F00000C
:4005000061030E000704000000086000604C0023440C110000026000004F601060000033070000400073000C22419100607C800F070018000000008A0000400034050200A9
:40054000010E00C021FFFFFF62A0F0410C00000000000210040404042222000100000000000040020010301000101012000000000000000000000000000000000C00000C0C
:4005800000000000000000008800408880008000000000004000004B0B000000000000009500180100000000000000000000000000000000000000000000000000000000A7
:4005C00000000000000000000000000000000000000000000000000000000000000000000000000000000000000000000000000000000000000000000000000000000000FB
:4006000000000000000000000000000000000000000000000000000000000000000000000000000000000000000000000000000000000000000000000000000000000000BA
:40064000000000000000000000000000000000000000000000000000000000000000000000000000000000000000000000000000000000000000000000000000000000007A
:40068000000000000000000000000000000000000000000000000000000000000000000000000000000000000000000000000000000000000000000000000000000000003A
:0200000490006A
:0400000000004005B7
:0200000490105A
:04000000BC90ACAF55
:0200000490303A
:02000000B58CBD
:0200000490402A
:4000000000000000000000000000000000000000000000000000000000000000000000000000000000000000000000000000000000000000000000000000000000000000C0
:400040000000000000000000000000000000000000000000000000000000000000000000000000000000000000000000000000000000000000000000000000000000000080
:400080000000000000000000000000000000000000000000000000000000000000000000000000000000000000000000000000000000000000000000000000000000000040
:4000C0000000000000000000000000000000000000000000000000000000000000000000000000000000000000000000000000000000000000000000000000000000000000
:0200000490501A
:0C00000000012E16106900012E3AC5F513
:00000001FF